:020000040800F2
:1080000000000220D5D401085D9B0008619B000898
:10801000659B0008699B00086D9B0008000000003C
:10802000000000000000000000000000719B00083C
:10803000759B000800000000799B00087D9B0008EC
:1080400021D5010821D5010821D5010821D5010834
:1080500021D5010821D5010821D5010821D5010824
:1080600021D5010821D5010821D5010821D5010814
:1080700021D5010821D5010821A9000821D5010831
:1080800021D5010821D5010821D5010821D50108F4
:1080900021D5010821D5010821D5010821D50108E4
:1080A00021D5010821D5010821D5010821D50108D4
:1080B00021D5010821D5010821D5010821D50108C4
:1080C00021D5010821D5010821D5010821D50108B4
:1080D00021D5010821D5010821D5010821D50108A4
:1080E00021D5010821D5010821D5010821D5010894
:1080F00021D5010821D5010821D5010821D5010884
:1081000021D5010821D5010821D5010821D5010873
:1081100021D5010821D5010821D5010821D5010863
:1081200021D5010821D5010821D5010821D5010853
:1081300021D5010821D5010821D5010821D5010843
:1081400021D5010821D5010821D5010821D5010833
:1081500021D5010821D5010821D5010821D5010823
:1081600021D5010821D5010821D5010821D5010813
:1081700021D5010821D5010821D5010821D5010803
:1081800021D5010821D501080000000000000000F1
:10819000844641EA000313F003036DD1403A41D312
:1081A00051F8043B40F8043B51F8043B40F8043BD1
:1081B00051F8043B40F8043B51F8043B40F8043BC1
:1081C00051F8043B40F8043B51F8043B40F8043BB1
:1081D00051F8043B40F8043B51F8043B40F8043BA1
:1081E00051F8043B40F8043B51F8043B40F8043B91
:1081F00051F8043B40F8043B51F8043B40F8043B81
:1082000051F8043B40F8043B51F8043B40F8043B70
:1082100051F8043B40F8043B51F8043B40F8043B60
:10822000403ABDD2303211D351F8043B40F8043B00
:1082300051F8043B40F8043B51F8043B40F8043B40
:1082400051F8043B40F8043B103AEDD20C3205D310
:1082500051F8043B40F8043B043AF9D2043208D008
:10826000D2071CBF11F8013B00F8013B01D30B887A
:1082700003806046704700BF082A13D38B078DD058
:1082800010F003038AD0C3F10403D21ADB071CBF2A
:1082900011F8013B00F8013B80D331F8023B20F894
:1082A000023B7BE7043AD9D3013A11F8013B00F8CD
:1082B000013BF9D20B7803704B7843708B78837055
:1082C000604670472DE9F047044610300E4604F131
:1082D000810501F0F5FC04F12A0002F089FB6FEA48
:1082E000050A04F1860004F1820300220021824481
:1082F000834226636263A263E26322646264A264CF
:10830000E26422656265A265E26522666266A26633
:108310000AF0070784F87C1084F87D1084F87E103A
:1083200084F87F1084F8801084F881103FD02FB338
:10833000012F1DD0022F17D0032F11D0042F0CD0E6
:10834000052F07D0062F1CBF197004F183030024EA
:1083500003F8014B002603F8016B002503F8015BCD
:108360004FF0000803F8018B4FF0000903F8019B60
:108370004FF0000C03F801CB834216D09E4600223A
:108380000EF8012B083303F8072C8EF8012003F8B0
:10839000052C03F8042C03F8032C03F8022C03F833
:1083A000012C8342EAD1BDE8F087BDE8F087BDE843
:1083B000F08700BF2DE9F04F05460446D54B35F850
:1083C000100FD4F830E01A7807EE900A83B00E460A
:1083D000FBEEC87A0EF1080704F134081AB1B7EEC3
:1083E000007A77EE677A597819B197ED000A77EE3F
:1083F000C07AD8ED000AD3ED016AC74A37EEE01A19
:1084000007F1040BE6EE810A0221A446E8EC010A1A
:108410006C5A137802EE904AFBEEC82A1BB1F7EEB5
:10842000001A71EEE22A54781CB19BED002A72EE1C
:10843000C22A98ED003AD2ED013A147A32EEC34ADC
:10844000C246A3EE843A01F102090BF1040B083293
:10845000AAEC013A35F8098005EE908AFBEEC85A7D
:108460001CB1F7EE004A74EEE55A507818B19BED56
:10847000005A75EEC55A9AED006A92ED017A177AA4
:1084800035EEC60A09F10201A7EE006A02F10803FF
:108490008AED006A6C5A07EE904AFBEEC87A1FB16B
:1084A000F7EE000A70EEE77A587818B1DBED016A52
:1084B00077EEE67A9AED011AD3ED011A37EEC12A6A
:1084C00009F10401A1EE821A1A2902F110020BF13E
:1084D000080B0AF108088AED011A99D19CED184A97
:1084E000DCED192ADCF834703760B0EE003AA2EE09
:1084F000C34A6446B5EEC04AF1EE10FA00F182813B
:10850000F7EE003AB4EE634AF1EE10FAC8BFB0EEEF
:10851000634A94ED0E5A86ED044AB5EEC05AF1EE68
:1085200010FA00F16C81F7EE004AB4EE645AF1EEF5
:1085300010FAC8BFB0EE645AD4ED0F5A94ED106A29
:1085400086ED035A35EEC60A4FF0000CB5EEC00AB0
:10855000F1EE10FA00F15081B7EE007AB4EEC70ADE
:10856000F1EE10FAC8BFB0EE470A86ED010AD4ED6D
:108570001B0A94ED131ADFED691AFFEE006AF4EEA0
:10858000660AF1EE10FA08BFF0EE410A71EE607A69
:1085900008BF84ED1B1AB0EEE72AB4EEE12AF1EE33
:1085A00010FAD4BF0023012384F874300BB184ED9A
:1085B0001B1AD4ED142A9FED5A3ADFED5A4A71EE98
:1085C000223AE3EE834AF5EEC04AF1EE10FA00F1EA
:1085D0001081B7EE004AF4EE444AF1EE10FAC8BF3B
:1085E000F0EE444AD4ED155AC6ED054AF5EEC05AF0
:1085F000F1EE10FAC4ED004A00F1F880B7EE005A2F
:10860000F4EE455AF1EE10FAC8BFF0EE455A94ED7B
:10861000176AC6ED065AB5EEC06AF1EE10FAC4ED5F
:10862000035A00F1E080B7EE000AB4EE406AF1EEC2
:1086300010FAD8BFB0EE460AD4ED160A86ED080A45
:10864000F5EEC00AF1EE10FA84ED010A00F1C880DF
:10865000B7EE007AF4EE470AF1EE10FAC8BFF0EE7A
:10866000470A94ED111ADEED007A9EED013ADFED36
:108670002E6AD4ED122AD4ED1A3A2C48C6ED070A18
:10868000E2EE837A61EE261A37EEE35ABDEEE12A76
:10869000C4ED020A12EE10EAB0EEC57A4FEA8E0976
:1086A000F6EE000A09EB000AB4EEE07AF1EE10FAF9
:1086B000DAED005ADAED014AD8BFDFED1D7ADFEDC1
:1086C0001D6AB8EEC24A34EEE50A31EEC46AD8BF7C
:1086D000E5EE273AE6EE005AD8BFF0EE637A35EEC3
:1086E000A71AC6ED025AB4EEE61AF1EE10FAC4ED7E
:1086F0001A7A69D5C6ED026A04F12A0002F098F9E7
:1087000094F82C7094F82A20002F54D1002A7CD1A0
:1087100016E000BF00000020080000200AD7A33C9C
:108720006666863FCDCCCCBC00008044302A02086F
:10873000CDCC4C3E000040C2000040420000000092
:1087400094F8802094F8837094F87CE094F881A0E9
:1087500094F82D30009294F87D9094F8828094F8EB
:108760007EC094F87F0094F8841094F885B086F861
:1087700025E086F826A084F88270009F94F82B608C
:1087800084F87C9084F8818084F87DC084F87E0031
:1087900084F8831084F87F7084F884B093B186F0F5
:1087A000010E284684F880E084F8853003B0BDE8E7
:1087B000F04F01F06DBB002AC2D14FF0010B86F8DB
:1087C00024B0BDE79E46ECE75FED251AB4EEE11A52
:1087D000F1EE10FAC8BFB0EE611A86ED021A8BE70F
:1087E0005FED2A0A3DE71FED2B0A25E75FED2D5AC5
:1087F0000DE75FED2E4AF5E6C6F804C0B7E61FEDBB
:10880000315A99E61FED334A83E686F8247097E7DC
:108810002DE9F04F064683B0002306F8043BB24C26
:10882000019000F14C05D627214648223046FFF73B
:10883000AFFC3346F14313F8012B2944AB4201F05E
:1088400007004ED048B3012821D002281BD00328AE
:1088500015D004280FD0052809D0062803D013F816
:10886000018B424492B213F8019B4A4492B213F82E
:1088700001AB524492B213F801BB5A4492B213F8BE
:1088800001CB624492B213F801EB724492B213F836
:10889000011B0A44AB4292B223D0184693F80290CF
:1088A00010F801AB93F8038090F800B093F804C07F
:1088B00093F805E0987952441BFA82F119FA81F293
:1088C00018FA82F108331CFA81F91EFA89FA13F8B2
:1088D000018C10FA8AF018FA80FBAB421FFA8BF277
:1088E000DBD16FEA020CB4F84830B4F84AE01FFA62
:1088F0008CF2934200F0E1807C494C3C8C4207F1C1
:10890000FF3791D101987A4B7A497B4A81604FF0C9
:1089100000090124C360036143618361C361036291
:1089200043628362C362036343638363C3634260DE
:10893000A0F84C9080F8409080F84190047014F0BA
:108940000BF8F32014F018F8019F6C4BB7F84C109B
:108950006B484FF04C0A0AFB01FB5B44834200F278
:10896000B680002900F0B680DFF89C81DFF89CA17A
:108970000BF1006CD844DA440CF580473C4607F113
:10898000480BF71B04F104093959204614F06AF822
:1089900057F80910484614F065F804F108003958F2
:1089A00014F060F804F10C00395814F05BF804F18D
:1089B0001000395814F056F804F11400395814F026
:1089C00051F804F11800395814F04CF804F11C0067
:1089D000395814F047F804F120002434395814F0C1
:1089E00041F85C45CED13346F64313F8012B2E44B3
:1089F000AB4206F007014BD049B3012921D002292F
:108A00001BD0032915D004290FD0052909D0062928
:108A100003D013F801EB724492B213F8010B024435
:108A200092B213F801CB624492B213F801BB5A44DC
:108A300092B213F8017B3A4492B213F8019B4A4474
:108A400092B213F8014B2244AB4292B220D01946A5
:108A500093F802B011F801CBDE780F7893F804E0B8
:108A600058799C79624417FA82F91BFA89F216FA4E
:108A700082F108331EFA81F610FA86F713F8010C1A
:108A800014FA87F410FA84FBAB421FFA8BF2DED1A2
:108A9000D543A9B2504614F005F8019B4046B3F8FF
:108AA0004C1013F0FFFF019AB2F84C8008F101015D
:108AB000A2F84C1003B0BDE8F08FBE457FF41CAFA8
:108AC0007E1C019FA7F84C6003B0BDE8F08F019AAF
:108AD000A2F84C900820022113F088FFDFF82CA0A8
:108AE000DFF82480074F49E7887F0008B43F00087B
:108AF000AE47013F1F85A8C20A5785424C40000877
:108B0000FF7F0008004000084A4000084840000875
:108B10002DE9F04F83B00C4601F20446019317464D
:108B200013F01AFFF32013F027FF04F10800C00030
:108B3000022113F05BFF019B7604002B00F0B08054
:108B400008374FF0000A304657F8081C13F08AFF28
:108B5000301D57F8041C13F085FF57F8048C3C684F
:108B6000B8F1030F06F1080640F29280A8F104095B
:108B700054F8041B30464D4613F074FF032DC9F31F
:108B8000820206F1040B7CD9002A46D0012A3AD091
:108B9000022A30D0032A26D0042A1CD0052A12D05B
:108BA000062A08D0584654F8041B13F05BFFA9F1BD
:108BB00004050BF1040B584654F8041B13F052FF44
:108BC000043D0BF1040B584654F8041B13F04AFF04
:108BD000043D0BF1040B584654F8041B13F042FFFC
:108BE000043D0BF1040B584654F8041B13F03AFFF4
:108BF000043D0BF1040B584654F8041B13F032FFEC
:108C0000043D0BF1040B5846043D54F8041B13F0CB
:108C100029FF032D0BF1040B33D92346584653F893
:108C2000041B009313F01EFF00990BF1040909685F
:108C3000484613F017FFA1680BF1080013F012FF6C
:108C4000E1680BF10C0013F00DFF21690BF110002E
:108C500013F008FF61690BF1140013F003FF2034D7
:108C600054F8081C0BF1180013F0FCFE203D0BF12A
:108C70001C0054F8041C13F0F5FE032D0BF1200B1F
:108C8000CBD8A8F1040020F0030C0CF1040E7644BC
:108C9000019C0AF1010AA24507F10C077FF453AFCA
:108CA00003B0BDE8F08F00BF2DE9F84F064613F082
:108CB00053FEF32013F060FEB6F84C10614B62488F
:108CC0004C2202FB01F42344834206F1040A40F2E1
:108CD000AC800027A6F84C700221082013F086FE15
:108CE000DFF87091594F5A490C4601F1480BC1EB1E
:108CF0000A0504F104082959204613F0B3FE55F87B
:108D00000810404613F0AEFE04F10800295813F095
:108D1000A9FE04F10C00295813F0A4FE04F1100080
:108D2000295813F09FFE04F11400295813F09AFEFD
:108D300004F11800295813F095FE04F11C0029587D
:108D400013F090FE04F120002434295813F08AFE19
:108D50005C45CED1534606F14C0B13F8012B6FEA5C
:108D60000A0CDC445B450CF007004CD048B30128EA
:108D700021D002281BD0032815D004280FD00528A5
:108D800009D0062803D013F801EB724492B213F80D
:108D900001AB524492B213F8011B0A4492B213F889
:108DA000015B2A4492B213F8018B424492B213F849
:108DB000014B224492B213F801CB62445B4592B25C
:108DC00021D018469C7810F801AB93F803E090F896
:108DD00000801D79597993F806C0524418FA82F23E
:108DE00014FA82F01EFA80F4083315FA84F511FAA9
:108DF00085FA13F801EC1CFA8AF11EFA81F85B453A
:108E00001FFA88F2DDD1D34399B2484613F04AFEE7
:108E10003846B6F84C1013F045FEB6F84CB00BF1DE
:108E20000107A6F84C70BDE8F88F00293FF454AF55
:108E3000064FDFF8209004F100652744A14405F5B2
:108E4000804151E74C400008FF7F00084A4000087D
:108E5000004000084840000870B504469430C4F84B
:108E60008C10C4F890201D46049E01F0FDFD04F115
:108E70009E0001F03DFFD4F88C30C4F8C4600B2292
:108E8000C4F8C05084F8BC2093F84010E87A11F080
:108E9000010F01F003040CBF0226012610B96A6815
:108EA000B2420AD06E6060080121E972287293F81C
:108EB00041E00EF003032B7070BD95F808C0600808
:108EC00080EA0C01F1E700BFD0F8C010D0F88C2088
:108ED0004B68097AB3F1010CDCF1000353EB0C0C85
:108EE00009B14CF0020C82F840C0D0F8C0100B78E9
:108EF00082F84130D0F88C00FFF7D6BE70B500F193
:108F000094050446284601F0A1FECA4B19681A6868
:108F1000560801F07F005FFA86FC40284FEA4C01BA
:108F200094F8BC2094BF002001205FFA81FC360633
:108F300048BF8CF0FF0C0B2A76D8DFE812F0B600A1
:108F40000C00D800E600F700080112011C012F01F7
:108F5000430156016001D4F89030DFEDB70A93ED7C
:108F6000007A27EE201AFCEEC11A11EE901ACAB24E
:108F7000100600F1C28152005FFA82FE4FF0000C31
:108F800084F896C084F89AE0D3ED036A9FEDAB2A8B
:108F9000DFEDAB2A36EEC23A63EE223ABCEEE34A8C
:108FA00014EE100AC6B2310600F1978176005FFA1E
:108FB00086FC002284F8972084F89BC0D3ED024AF7
:108FC0009FED9E5ADFED9E5A34EEC56A66EE257A15
:108FD000BCEEE70A10EE101ACAB2160600F175814F
:108FE00052005FFA82FE4FF0000C84F898C084F8BB
:108FF0009CE0D3ED010A9FED911A9FED917A70EEFE
:10900000C11A61EE876ABCEEE62A12EE103ADEB2B1
:10901000300600F16A8173005FFA83FE4FF0000CA6
:1090200084F899C084F89DE0D4F8C06041F6A81295
:10903000B05C84F89400B17A11B3D4F8C430814E96
:109040005A6818688242A8BF1046C11136F911301B
:10905000002B12DB5E00B6F5404F80F2F580B6F5CE
:10906000004F11DAB6F5804F80F20481B0114FF055
:10907000000E84F89A0084F896E0012184F8941098
:10908000284601F073FD70BDC6F38713FF2000264C
:1090900084F8983084F89C3084F8976084F896605F
:1090A00084F89B0084F89A00E7E7D4F8C460654828
:1090B000716832689142A8BF0A464FEAE21E30F951
:1090C0001E30002BB0DB5E00B6F5404F80F2DF8033
:1090D000B6F5004F80F21981B6F5804F80F25081CD
:1090E000B011002184F89A0084F896109CE7D4F817
:1090F000C0607168327A481ED0F1000C5CEB000C45
:10910000002A74D04CF0020C71E0D4F89010D1ED2C
:10911000007ABCEEE70A002010EE102A54FA82FE14
:10912000FF238EF896008EF89A307DE7D4F8C020A1
:1091300092F800E01CFB0CF3580AA644A0F180064C
:109140006FEA000C8EF896608EF89AC06CE794F87F
:10915000C8C0A444464200218CF89A608CF896104E
:1091600062E794F8C8E0A644434200208EF89630A7
:109170008EF89A0058E7FF21002284F8961084F8B0
:10918000971084F8981084F8991084F89A2084F83D
:109190009B2084F89C2084F89D2045E700B1FF20A7
:1091A000002684F8960084F89A0084F8970084F8E2
:1091B0009B0084F8986084F89C6084F8996084F837
:1091C0009D6031E700B1FF2084F8960084F89A0092
:1091D00084F8970084F89B0084F8980084F89C0039
:1091E00084F8990084F89D001EE794F8C8C0A44450
:1091F000FF2300268CF896308CF89A6014E71868E4
:109200001B689E08F1B24A00C0F3012E3106D0B2AD
:1092100048BF80F0FF00CEF1030306065FFA83FC2F
:109220004BD44300DAB20020A4448CF896008CF8AA
:109230009A20F9E6B0FB012000007F439A99193E7D
:1092400000009643343A0208FF224FF0000C4FEA28
:10925000961E84F899E084F89DC084F897C084F83D
:1092600096C084F8982084F89C2084F89B2084F889
:109270009A2002E700224FEA961CFF2184F89BC047
:1092800084F8972084F8962084F89A10F5E64FF039
:10929000FF0C00234FEA961E84F899E084F89D3075
:1092A00084F8973084F8963084F898C084F89CC08D
:1092B00084F89BC084F89AC0B6E6BF2836D84FEA37
:1092C000800E0EF0FC00FF22AEE7BF2A35D89100D9
:1092D00001F0FC0C4FF0FF0E87E6BF2E36D8B00031
:1092E00000F0FC024FF0FF0C64E6BF2E36D8B2004F
:1092F00002F0FC0C4FF0FF0E92E6BF2A37D8910027
:1093000001F0FC0C4FF0FF0E3AE6C6F38716002082
:10931000FF2184F8986084F89C6084F8970084F8B2
:10932000960084F89B1084F89A107DE600F14006C0
:109330006FEA8601CAB2FF2076E702F140006FEAC9
:1093400080065FFA86FE4FF0FF0C4EE606F1400104
:109350006FEA810E5FFA8EFCFF222BE606F14000D9
:109360006FEA80015FFA81FE4FF0FF0C58E602F1D0
:1093700040006FEA80065FFA86FE4FF0FF0CFFE5C3
:1093800000224FEA961CFF2384F89BC084F89720A4
:1093900084F8962084F89A3046E600BF2DE9F0471D
:1093A000564D2B6800F19E06591C04463046296034
:1093B00001F0D6FC30462346002210F8011B80291C
:1093C00022D0A9B9D3F8A46036B12F68DFF82C8178
:1093D000BE1BB6F57A7F50DCD3F8B01051B12F68C0
:1093E000DFF818C1791AB1F57A6F2CDC10F8011C7E
:1093F0007F2960D00132032A03F10403DDD1204626
:10940000FFF77CFDBDE8F087D4F88810271D07EB37
:10941000C1094E1C06F00F0E4FF004084FF0000C6F
:1094200007F83180A9F80220C9F804C0C4F888E020
:1094300029682F682E682160C3F8A470C3F8B06053
:1094400010F8011CBDE7D4F8886004F1040E0EEB9F
:10945000C60A771C4FF0040907F00F080EF8369083
:10946000CAF80410AAF80220C4F88880DCF80010BA
:1094700021600026C3F8B060B8E7D4F8887004F122
:10948000040C0CEBC70E07F101094FF0040A09F0B8
:109490000F090CF837A0CEF80460AEF80220C4F82B
:1094A0008890D8F800602660C3F8A41010F8011C5A
:1094B000002991D09CE7D3F8A41000299AD02F68F6
:1094C000D4F8886004F1040E0EEBC60A07F1010C13
:1094D000771CC1EB0C094FF0040807F00F010EF8E0
:1094E0003680CAF80490AAF80220C4F888102E68C2
:1094F00026600027C3F8A4707CE700BFB0FB012002
:10950000D0F89030DFED407A5A8B198AB3F812C048
:1095100007EE102A9A8A01EE901A02EE10CAD98A32
:10952000B3F818C002EE902A9A8B03EE101A03EEDD
:1095300090CAD98BB3F820C004EE102A5A8C04EEDE
:10954000901A05EE10CA998CB3F826C005EE902A41
:109550001A8D06EE101A06EE90CA01EE102AB8EE29
:10956000470AF8EE610AB8EE422AF8EE622AB8EE2F
:10957000433AF8EE633AB8EE444AF8EE644AB8EE7D
:10958000455AF8EE655AB8EE466AF8EE666AB8EEE5
:10959000411A20EE277A196B83ED1E7A60EEA71A26
:1095A00022EE270A62EEA70A23EE272A63EEA72AF5
:1095B00024EE273A64EEA73A25EE274A65EEA74A3D
:1095C00026EE275A66EEA75A61EE277A092381ED27
:1095D000077AC1ED021A81ED030AC1ED040A81ED9B
:1095E000052AC1ED062A81ED083AC1ED093A81ED5F
:1095F0000A4AC1ED0B4A81ED0C5AC1ED0D5AC1ED7D
:109600000E7A80F8BC30704700008037D0F8903078
:10961000DFED1B7A5A8B93ED1E7A06EE902AF1EE5F
:10962000470AB8EE660AB0EE606AA0EE276A10B587
:10963000FEEE001AB4EEE16AF1EE10FA044604DD23
:10964000B5EEC06AF1EE10FA03D4072084F8BC002E
:1096500010BDB3EE082AC2EE062A196BD0F88C00B2
:10966000B2EE083AA0EEA23AC1ED012A81ED003A2D
:10967000FFF71AFB4FF0000C84F8BCC010BD00BF10
:109680000000803770B54B888EB0044623B3012BA1
:109690000BD14A68B2F57A7F09DB90F89E0030B9A9
:1096A0000823C4F8A40084F8BC300EB070BD94F850
:1096B000BC10082900F0948009295AD006295CD0F2
:1096C000052900F09180B2F57A7FACBF0621052113
:1096D00084F8BC100EB070BD4968B1F57A6F1EDA1F
:1096E000B1F57A7F90F8BC2005DB022A1CD0022657
:1096F00080F8BC60D9E7002A6ED0022A18D0042A6C
:1097000000F08780501FC6B2012E0DD894F8C8C053
:109710000CF1010505F0030384F8C830C5E7042007
:1097200084F8BC000EB070BD002284F8BC20BCE7F9
:10973000D0F8C03059681D7A481E464256EB000CDE
:109740000DB14CF0020C0CF1010EDE7A1EF0010F8F
:109750000EF003020CBF022001200EB9814264D03A
:10976000586051080125DD7219722046FFF7ACFBE5
:109770009BE72046FFF74AFF97E72D4AD4F8C00041
:1097800011684FF00A0E0126002584F8BCE001F1B3
:10979000050C0195467213689C45FCD201F0E8FC6B
:1097A00002A9D4F8C00001AA01F01CFD02AAD4F855
:1097B0008C0094F8C810019BFFF7AAF9D4F8C000F8
:1097C0000021417294F8C82084F8BC10561C06F0A1
:1097D000030584F8C85068E7012380F8BC3064E7CB
:1097E0002046FFF78DFE60E794F8C850D4F8C0001B
:1097F00005F20446710402F0A9FE94F8C8C00CF109
:10980000010303F00302002084F8C82084F8BC00A0
:109810004BE7D0F8C04094F800E00EF1010101F0F0
:1098200003022270FFF750FB3FE751084D409AE7D3
:10983000B0FB012030B5D0F88820D0F88430044641
:10984000D01A83B0020718BF6D4607D13DE0D4F8A7
:109850008820D4F88410501A030736D0D4F8843006
:1098600004EBC30101F1040C9CE8030085E803004C
:109870009DF80020581C00F00F03042AC4F884301F
:10988000E5D1019971B9BDF80220022ADFD1D4F8DF
:10989000C01001F5CD5C9CF8080080F001038CF845
:1098A0000830D4E7B1F57A7F0ADBBDF8020038B999
:1098B00094F89F3023B9C4F8A83084F8BC20C6E7D8
:1098C00020466946FFF7DEFEC1E7224D23682A687D
:1098D000C3EB020CBCF57A7F24D994F8BC1007299D
:1098E00031D0012922D9032920D02D681949C3EB91
:1098F000050C40F6B832944512D994F8BC3008688B
:1099000020601D1FE9B2022907D903F1FF3C5FFA6D
:109910008CF2012A01D90B2B02D1002384F8BC3030
:1099200003B030BD94F8BC100129DCD8D4F89020E5
:1099300092F8741009B92368D7E72B6823600120D7
:1099400084F8BC00D1E72B682360002084F8BC00B9
:10995000ECE700BFB0FB01204B1110B501F01F0177
:109960000446042B3AD8DFE803F02020150D03004D
:1099700019B301292ED0FFF749FE2046FFF7A4FABC
:10998000002010BDD0F8C0000B1C18BF012383724B
:10999000002010BD022915D9D0F8904003290CBF32
:1099A00094F82C0094F82D0010BDD0F8902002EB14
:1099B000410CBCF81000000A10BD0822084684F8CB
:1099C000BC2010BD014491F89E10D1F1010038BFB8
:1099D000002010BDFFF794FD002010BD002010BD39
:1099E0002DE9F84FDFF86C81144607460D465748BD
:1099F0005749FEF7DFFC3946234640462A460CF01D
:109A00002BF941F6A813661E18F8031000290CBFA5
:109A1000BA46AA46002C00F097803AF9040BDFF80A
:109A200038E13AF9029CDEF80470DEF80050DEF806
:109A30000830DEF80C200028B8BF4042B9F1000F12
:109A4000B8BFC9F10009411BC7EB090B0029D4BFFE
:109A500010461846BBF1000FD4BF14461C4600FB4D
:109A600001F804FB0BFC07EBEC3405EBE8300AF1E2
:109A7000040106F00107751E002E63D0DFB131F935
:109A800004AC31F9026CBAF1000FB8BFCAF1000A98
:109A9000002EB8BF7642C0EB0A0BC4EB0608BBF140
:109AA000000FD4BF17461F46B8F1000FD4BF1646AB
:109AB0001E46013D3AE031F9046C31F902CC31F92E
:109AC000048B002EB8BF7642BCF1000FB8BFCCF1BA
:109AD000000C371AC4EB0C0C002FD4BF93469B46E6
:109AE000BCF1000FD4BF92469A4631F9026C0BFBD1
:109AF00007F70AFB0CF900EBE730B8F1000FB8BF2D
:109B0000C8F10008002EB8BF764204EBE934C0EB80
:109B1000080BC4EB0608BBF1000FD4BF17461F4665
:109B2000B8F1000FD4BF16461E46023D07FB0BF9E5
:109B300006FB08F76E1C00EBE93001F1040104EBB1
:109B4000E734B8D18EE81100BDE8F88F800200201C
:109B500048F40120C4DA0120D4030020704700BF7C
:109B6000FEE700BFFEE700BFFEE700BFFEE700BF65
:109B7000704700BF704700BF704700BF094810B56D
:109B8000FFF70CFC084B187818B1084C21888B069D
:109B900000D410BDA2880348D1B2FFF7DDFEA0803B
:109BA00010BD00BF08030020E803002000100140A2
:109BB000F0B587B003A8012101F002F902200121CC
:109BC00013F078FA002601252A48049504A98DF897
:109BD00015508DF817508DF814608DF8166012F03E
:109BE00081FF4FF680734FF4E832234900932348F6
:109BF000234B244F244C01F045FA2448FEF708FE7D
:109C000023482449FEF75EFB4FF0660C4FF0040E2C
:109C10001F4A1E49194B00943846C4F808C0C4F8BE
:109C20000CE026606660FFF717F92946114813F02B
:109C3000A5F8811B18BF012117484FF4FA4200F024
:109C4000ADFC10B9072087F8BC001348134A202147
:109C500000F0CEFC10B9072187F8BC100B4A15782C
:109C600015B10F4800F080FE03A801F0B1F807B06D
:109C7000F0BD00BF0004024038040020C4DA012017
:109C80000000001008030020D4030020E803002097
:109C900080020020EC03002038D40120E199000864
:109CA000E403002008B5FFF783FF0348FFF7C2FD78
:109CB000024801F0C7FAF8E708030020C4DA0120DF
:109CC0002DE9F04F01219DB004464FF4800013F0C0
:109CD000F1F90520012113F0EDF94FF48070012115
:109CE000002513F003FA0327FF2301A9634801931A
:109CF0004FF002098DF80B508DF8087012F0F2FE4B
:109D000001A95F48DFF880A18DF80B508DF808702D
:109D1000CDF8049012F0E6FE01A90F2259480192F5
:109D20008DF80B508DF8087012F0DCFE0F94DFF800
:109D30005CE1CDF838E04FF400544FF4806C04F14E
:109D4000804E01264FF400334FF00D084FF480721F
:109D50004FF4006B50460DA9CDF84CC017931692E6
:109D600015940D950EF580341095129518951A9549
:109D70001B95CDF84480CDF850B0199612F084FDB3
:109D80005046314612F0BCFD4FF470624FF4403142
:109D900003A8069204910395059512F04DFC204608
:109DA00007A9CDF82CB007958DF820608DF82150CB
:109DB0000A9509958DF8308012F010FC204649462E
:109DC0003246072312F05AFC204639464A460723FA
:109DD00012F054FC20463A460A21072312F04EFCAA
:109DE000204631460422072312F048FC20460B216E
:109DF0000522072312F042FC2046042106220723F5
:109E000012F03CFC072120460A460B4612F036FCB5
:109E1000204605210822072312F030FC20460621A7
:109E20000C22072312F02AFC20462946424607232B
:109E300012F024FC092120460A46072312F01EFCDA
:109E400020460C210A22072312F018FC0B220723BC
:109E50002046414612F012FC2046314612F072FCB8
:109E60002046314612F000FC2046314612F060FCDC
:109E7000204612F057FC1DB0BDE8F08F00000240F4
:109E80000004024000080240106402404C200140DF
:109E9000014812F047BC00BF002001402DE9F0410D
:109EA0002A4C2B4F82B00620012113F003F9022522
:109EB0004FF440630026204669464FF001080093A6
:109EC0008DF804508DF805508DF806808DF80760E8
:109ED00012F008FE20460A21042212F05BFF204601
:109EE0000B21042212F056FF4FF4704220466946BF
:109EF00000928DF804508DF805508DF806608DF8AD
:109F00000760402512F0EEFD69463846009512F0D4
:109F1000E9FD20460C21052212F03CFF20460D21D0
:109F2000052212F037FF20460F21052212F032FFE2
:109F300020460E21052212F02DFF3846062105226B
:109F400012F028FF404602B0BDE8F0810004024054
:109F500000080240F0B5154C85B001214FF4800097
:109F600013F0B6F8204612F02DFF04A9104B41F86B
:109F7000103D4FF480624FF4804C20466946002724
:109F80004BF6FF763325ADF80A20ADF80CC0ADF8DE
:109F90000470ADF80660ADF8085012F049FF204695
:109FA000012112F0BFFF012005B0F0BD00580040B4
:109FB000A086010070B5002084B014460E4613F050
:109FC00073F8002013F020F84BF680339C420CD03D
:109FD0004AF64440844261D0B4F5FA4F64D0354922
:109FE0008C4255D0002004B070BD4FF48170032125
:109FF00013F000F8012013F007F83B2013F0A0F84D
:10A000004FF4805510BB3B2013F09AF8F0B93B2079
:10A0100013F096F8D0B93B2013F092F8B0B93B207A
:10A0200013F08EF890B93B2013F08AF870B93B20FA
:10A0300013F086F850B93B2013F082F830B93B207A
:10A0400013F07EF810B9083DDDD1CBE74FF4804026
:10A05000012113F03DF8184813F08CF80022029407
:10A06000ADF80220ADF80420ADF80C200EB14FF48D
:10A07000007669461048ADF80060ADF8066013F050
:10A08000E1F869460D4813F073F9012004B070BD82
:10A0900040F28910042112F0ADFFABE740F20F103F
:10A0A000062112F0A7FFA5E74FF4D570042112F0A6
:10A0B000A1FF9FE700770100003800400034004016
:10A0C00070B573480E464FF40031154612F074FF18
:10A0D0004FF4961498B34FF400316D4812F06CFFB2
:10A0E0004FF4003158B36A4812F066FF4FF4003164
:10A0F00028B3674812F060FF4FF40031F8B16448AC
:10A1000012F05AFF4FF40031C8B1614812F054FF09
:10A110004FF4003198B15E4812F04EFF4FF4003119
:10A1200068B15B4812F048FF4FF4003138B158482D
:10A1300012F042FF18B1083CCDD1002070BD544848
:10A14000012112F0FFFE5248524912F027FF4FF44E
:10A15000805450BB4F494E4812F020FF4D4920BB60
:10A160004B4812F01BFF4B49F8B9494812F016FF53
:10A170004849D0B9464812F011FF4649A8B94448A9
:10A1800012F00CFF434980B9414812F007FF4149E2
:10A1900058B93F4812F002FF3E4930B93C4812F02E
:10A1A000FDFE10B9083CD5D1C7E73948342100225B
:10A1B00012F0E8FE3648384912F0F0FE4FF48054B1
:10A1C00050BB3549324812F0E9FE334920BB3048D4
:10A1D00012F0E4FE3049F8B92D4812F0DFFE2E49A6
:10A1E000D0B92B4812F0DAFE2B49A8B9284812F052
:10A1F000D5FE294980B9264812F0D0FE264958B923
:10A20000234812F0CBFE244930B9214812F0C6FE93
:10A2100010B9083CD5D190E7C5F3002141EA4600CA
:10A22000C1B21B4812F0B8FE19481C4912F0B6FE24
:10A230004FF48054002833D11849154812F0AEFE6F
:10A24000164968BB124812F0A9FE144940BB1048D9
:10A2500012F0A4FE114918BB0D4812F09FFE0F49E1
:10A26000F0B90B4812F09AFE0C49C8B9084812F030
:10A2700095FE0A49A0B9064812F090FE074978B940
:10A28000034812F08BFE58B9083CD5D155E700BF02
:10A290000058004001000300820007008000070012
:10A2A000E9B2364812F078FE3448354912F076FEAD
:10A2B0004FF4805650BB3249304812F06FFE30499F
:10A2C00020BB2E4812F06AFE2D49F8B92B4812F037
:10A2D00065FE2B49D0B9294812F060FE2849A8B97B
:10A2E000264812F05BFE264980B9244812F056FE3B
:10A2F000234958B9214812F051FE214930B91F486D
:10A3000012F04CFE10B9083ED5D116E71B481D4986
:10A3100012F052FE4FF4961450BB1A49174812F02F
:10A320004BFE184920BB154812F046FE1549F8B9F6
:10A33000124812F041FE1349D0B9104812F03CFE09
:10A340001049A8B90D4812F037FE0E4980B90B48E4
:10A3500012F032FE0B4958B9084812F02DFE094997
:10A3600030B9064812F028FE10B9083CD5D1E4E611
:10A370000248012112F0F6FD012070BD0058004096
:10A38000800007000400001070B50C4616460F212F
:10A3900000220546FFF794FE00283BD02846002106
:10A3A0001722FFF78DFE002834D0284601211722FE
:10A3B000FFF786FE70B3284602210022FFF780FED9
:10A3C00040B3284603210022FFF77AFE10B3284647
:10A3D00004211222FFF774FEE0B100222846052175
:10A3E000FFF76EFE002C14BF62224222D0B1284635
:10A3F0000621FFF765FE002C0CBF42220222B8B9ED
:10A40000E4B14AF644439E420CBF2022002218BB0E
:10A41000002070BD002C4FF0000014BF62224222C9
:10A420000028E4D1002C0CBF422202220028E7D0F1
:10A4300028460721FFF744FE002CE2D1B6F5FA4F7B
:10A4400019D01ADD4AF64442964212D00E498E4285
:10A4500018D11C220028DBD028460821FFF730FE47
:10A460000028D5D0284609210022BDE87040FFF71A
:10A4700027BE2022CBE71822C9E7B6F5FA5F01D143
:10A480000C22C4E70022C2E7007701002DE9F04F5B
:10A490003B4F3C4E044683B001214FF4001012F0B4
:10A4A00009FE3846002112F02BFA384612F054F912
:10A4B000354BA36100254FF480634FF6FE724FF4D5
:10A4C000006B4FF4005A4FF480794FF4003840216C
:10A4D000E362626221626561E561A562256465648B
:10A4E000A564E564C4F830B0C4F834A0C4F838906A
:10A4F000C4F83C80384604F114010093019212F034
:10A50000C3F92946304612F0FBF9304612F024F91F
:10A510001E4F0199009AA5654FF0C060E565216660
:10A520006566A266C4F86CB0C4F870A0C4F87490F4
:10A53000C4F87880E567C4F88050C4F88450C4F843
:10A5400088502065676504F15001304612F09CF98F
:10A5500030460F4E182101224FF4804412F0DAF9F0
:10A560000C4834600221012212F02CFF01210A461E
:10A57000094812F027FF012003B0BDE8F08F00BFAB
:10A5800070600240586002400C3800400C340040BB
:10A5900000E100E0003800400034004070B5134B8B
:10A5A00004461546002245601860026121700E467F
:10A5B000FFF774FC08B9002070BD2046FFF7CAFC05
:10A5C0000028F8D0204631462A46FFF7F3FC002841
:10A5D000F1D031462A462046FFF7D6FE0028EAD0C1
:10A5E0002046BDE87040FFF751BF00BFACFB012023
:10A5F000F8B50E461746092101220446FFF760FD13
:10A60000054600283DD0202E53D82378002B3AD081
:10A610002F482761818B4A0552D52E48828B5305DE
:10A620004AD5207804F18C0704F56373E761A365CC
:10A6300068B960684BF6803C604545D0264A904238
:10A6400044D0B0F5FA4F0CBF0321012100E00121F5
:10A65000B70001FB07F363622366E1601F48A66051
:10A6600004F1140112F010F904F150011C4812F029
:10A670000BF91A48012112F043F91948012112F08F
:10A680003FF92846F8BD17484FF4805112F076FB89
:10A690000028F8D113484FF4805112F06FFB0028C6
:10A6A000B6D110484FF4805112F068FB0028F1D069
:10A6B000AEE700252846F8BD012112F049FEB0E7BB
:10A6C000012112F045FEA8E70221C1E70421BFE7FE
:10A6D0000038004000340040007701007060024004
:10A6E0005860024000040240D0F810C02DE9F0414B
:10A6F0000646BCF1000F00F00A818268C56805FBC0
:10A7000002F7780001FB00F101F5E27306EB430864
:10A7100006EB410404F18C0708F10400002D6FD012
:10A72000510001296CD96D0008F1020E0EEB820E6A
:10A73000441908F10603C0EB0E01B4F80080A0F83C
:10A74000028002397345C1F342012C4458D069B3E9
:10A75000012924D002291ED0032917D0042911D0A1
:10A7600005290AD0062904D0B4F8008023F8028F06
:10A770002C44218823F8021F2C44B4F8008023F8CD
:10A78000028F2C44218823F8021F2C44B4F8008047
:10A7900023F8028F2C44218823F8021F2C44B4F89C
:10A7A000008023F8028F73452C4429D01946B4F851
:10A7B000008021F8028F34F8058021F8028F04EB25
:10A7C000050834F815404C8038F815101981A84454
:10A7D00008EB050138F815405C8131F81580A3F8C5
:10A7E0000C8029444C1931F81510D98134F81580A2
:10A7F000A3F81080103304EB450473452C44D5D1E5
:10A800003946E047F268002A00F08380B0684500CE
:10A8100007EB80034FEA420E6E1E0EFB067706F131
:10A82000FF3C33F8024D3C806046CEEB07020CF053
:10A83000070100286FD0C9B3012930D0022927D0E1
:10A8400003291ED0042916D005290ED0062906D0CA
:10A8500033F8025D15800CF1FF30CEEB020233F8C5
:10A86000026D16800138CEEB020233F8027D1780AC
:10A870000138CEEB020233F8024D14800138CEEBE2
:10A88000020233F8028DA2F800800138CEEB0202FA
:10A8900033F802CDA2F800C00138CEEB020233F843
:10A8A000021D11800138CEEB020236D01F46CEEBDE
:10A8B000020537F8026D16803C46CEEB050834F8E9
:10A8C000021D298034F802CCA8F800C0CEEB0802A3
:10A8D00033F8087C1780CEEB020533F80A6C2E8023
:10A8E000CEEB050433F80C8CA4F80080CEEB040CFE
:10A8F00033F80E1CACF80010CEEB0C0233F8107CD1
:10A9000017800838CEEB0202A3F11003CED1BDE8C8
:10A91000F081BDE8F081BDE8F081BDE8F08100BFC5
:10A9200008B50F4B1A6812F0C05F0FD10C4B1A68B4
:10A9300012F0A05F00D108BD0A484FF0A051996005
:10A9400000680021BDE80840FFF7CEBE05484FF083
:10A95000C051996000680121FFF7C6FEE6E700BF1D
:10A9600000600240ACFB012070B5102086B00121D0
:10A9700012F0BCFB1C4D1D4E0120014612F09AFB4B
:10A980000024022328464FF4C06269468DF8053042
:10A990008DF8043000928DF806408DF8074012F0D3
:10A9A000A1F828460921072212F0F4F928460A21C5
:10A9B000072212F0EFF94FF416550C22304602A987
:10A9C000ADF81220ADF80C40ADF80E40ADF81040D7
:10A9D000ADF81440029512F001FD3046012112F04D
:10A9E00069FD06B070BD00BF0000024000100140CC
:10A9F00030B5012183B00546022012F05BFB002434
:10AA00000123C0220948009269468DF804408DF860
:10AA100006408DF805308DF8073012F063F8AC7001
:10AA2000EC702C706C7003B030BD00BF00040240AD
:10AA300038B50C4D8278C37802700446437080218B
:10AA4000284612F09BF9D0F1010038BF0020A07019
:10AA50004021284612F092F9D0F1010138BF0021BF
:10AA6000E17038BD000402402DE9F041012182B0BF
:10AA70000546022012F01EFB0420012112F01AFBF1
:10AA8000002401264FF408736946364800938DF878
:10AA900004608DF805608DF806408DF8074012F0CF
:10AAA00021F86946302230488DF804608DF8056041
:10AAB0008DF806408DF80740009212F013F8A81D9B
:10AAC000C14305F10A0705F107083944B845AC70E0
:10AAD00001F00706EC7020462C716C71AC713CD013
:10AAE0002EB3012E1ED0022E19D0032E13D0042E09
:10AAF0000DD0052E08D0062E1CBF88F8004005F1A9
:10AB00000808002308F8013B002408F8014B4FF027
:10AB1000000C08F801CB4FF0000E08F801EB002202
:10AB200008F8012B002008F8010BB84515D0414664
:10AB3000002601F8016B08F1080808F8076C4E7050
:10AB400008F8056C08F8046C08F8036C08F8026C47
:10AB500008F8016CB8453046E9D12870687002B039
:10AB6000BDE8F081000402400008024070B543785F
:10AB70008278064603F12000C5B275701AB1AA4268
:10AB800034BF00220122B17919B18D4298BF42F041
:10AB90000202F3789400E0B21BB19D4298BF40F0EE
:10ABA0000100F2791AB1954298BF40F00200317964
:10ABB00083005FFA83FC19B18D4298BF4CF0010C01
:10ABC000347A1CB1A54298BF4CF0020C70794FEA60
:10ABD0008C02D4B218B1854298BF44F00104717A56
:10ABE00019B18D4298BF44F002041648102100228A
:10ABF00012F0CAF8082513482021002212F0C4F8E8
:10AC000014F0800F4FF000020F4818BF01222021DE
:10AC1000013D12F0B9F8ADB263000A4820210122CB
:10AC2000DCB212F0B1F8002DE5D106481021012266
:10AC300012F0AAF8327804484FF40071BDE8704071
:10AC400012F0A2B800080240000402402DE9F00111
:10AC5000861D00F10A05F443C31D00222C44AB42BB
:10AC6000827004F00707C27011460271427182714E
:10AC70003AD027B3012F1DD0022F17D0032F11D0A8
:10AC8000042F0CD0052F07D0062F1CBF1A7000F11F
:10AC90000803002103F8011B002603F8016B0024C0
:10ACA00003F8014B4FF0000803F8018B4FF0000C44
:10ACB00003F801CB002103F8011BAB4214D01F465F
:10ACC000002207F8012B083303F8072C7A7003F8E9
:10ACD000052C03F8042C03F8032C03F8022C03F8CA
:10ACE000012CAB421146EAD10170BDE8F00170477A
:10ACF00070B5012182B00646022012F0DBF9042073
:10AD0000012112F0D7F9002501244FF48073694620
:10AD1000114800938DF804508DF806508DF80540C9
:10AD20008DF8074011F0DEFE69464FF440620B4893
:10AD30008DF804508DF806508DF805408DF80740C9
:10AD4000009211F0CFFE3046FF2100F8011B00F801
:10AD5000011B017002B070BD0004024000080240F7
:10AD6000F0B5144B0778144D83B004461868019071
:10AD70007A00BDF804102846D7B211F0FFFF40EA70
:10AD8000070366782370BDF80610284611F0F6FF19
:10AD90007500A178EFB238434A0060704FF48071BB
:10ADA0000648D6B211F0EAFF40EA0603A37003B0EA
:10ADB000F0BD00BFE4D501080008024000040240D5
:10ADC00001B970474FF000604FF4004111F0FCBB37
:10ADD000074B0848084A10B4F0245A60002180F854
:10ADE0002340072299605DF8044B1A60704700BF4A
:10ADF00010E000E000ED00E03F90020010B40023FE
:10AE0000012480F8244080E806008360C3615DF877
:10AE1000044B70472DE9F00F90F8243082B0002BDE
:10AE200040F0CA8041690469019400914D11019973
:10AE30004268009ED0F800C05FEA611902EB85030A
:10AE400006F01F0700F0AE8052F8254053F8042F9B
:10AE5000DCF80060C7F1200804FA07F122FA08FACA
:10AE60004AEA010585EA06046FEA040B4FEA5B062D
:10AE700006F05531C1EB0B05AC0804F0333A05F090
:10AE8000333BDA440AEB1A1606F00F3101EB0125C9
:10AE90004FEA8909042105EB054AA9F10404494553
:10AEA0004FEA1A66C4F3800576D03DB302FA07FB79
:10AEB00053F8042FDCF8041022FA08F444EA0B05D6
:10AEC00085EA010A6FEA0A0B4FEA5B0101F055348B
:10AED000C4EB0B054FEA950A05F033310AF0333B1A
:10AEE0008B440BEB1B1404F00F3505EB052A0821EE
:10AEF0000AEB0A4B494506EB1B664DD053F8045F3D
:10AF00005CF8014002FA07FA043125FA08FB53F80D
:10AF1000042F4BEA0A0B8BEA040B05FA07FA5CF8DC
:10AF2000014022FA08F545EA0A056FEA0B0B85EAAB
:10AF3000040A6FEA0A0A4FEA5B054FEA5A0405F071
:10AF40005535C5EB0B0504F05534C4EB0A044FEA44
:10AF5000950B4FEA940A0BF0333B05F033350AF0BA
:10AF6000333A5D4404F03334544405EB151B04EBD1
:10AF7000141A0BF00F350AF00F3405EB052B04EB18
:10AF8000042A0BEB0B4504310AEB0A4406EB156669
:10AF9000494506EB1466B1D18369B34202D2009FE2
:10AFA000C7618661009A019D511C8D42CCBF002271
:10AFB000012280F82420416102B0BDE8F00F704703
:10AFC00010B400248461C461446180F8244082602C
:10AFD000C36001615DF8044B704700BF2DE9F00FBD
:10AFE00000F5845500F5875BDFED237A2349244A79
:10AFF000296100F58654AC462F46DA46002300F559
:10B000008556A1466A61C5ED037AB046CCF81C307E
:10B010005D46BB61B446C4ED077A216262625F4659
:10B02000CBF80C304C46CAF80830CB46CA4600F57F
:10B030008850C6ED057AB161F261C9F80430236029
:10B04000C8ED007AC8F80410C8F80820C8F8103015
:10B05000CCF80C30C5ED047A6961AA610360FB612C
:10B06000C4ED027AE1602261CBF81830CAF81430DE
:10B07000BDE8F00F704700BF22BA003D0AD7233C5D
:10B08000CAAA7F3FF8B5054600F5CE566961069815
:10B09000EA61002102240C36AB6128626C6006F183
:10B0A000B8022972A9725A270023093F136042F897
:10B0B000043C936053601361D360936153611362E6
:10B0C000D361936253621363D362936353631364D4
:10B0D000D36302F14802E7D130462449B42205F592
:10B0E000EA5412F01FFA04F114072C20C6F8840366
:10B0F00007F1B80C5A260024093ECCF800404CF861
:10B10000044CCCF80840CCF80440CCF81040CCF803
:10B110000C40CCF81840CCF81440CCF82040CCF8C7
:10B120001C40CCF82840CCF82440CCF83040CCF877
:10B130002C40CCF83840CCF83440CCF84040CCF827
:10B140003C400CF1480CD6D1B4220849384612F0E4
:10B15000E9F92C21C7F884132846FFF73FFF0422A2
:10B1600001232C616A70EB72F8BD00BF383C020805
:10B17000037A30B423B3426841F2381C41F2181507
:10B1800050F80C104559B2F1010C42F2DC0442F2C5
:10B19000E003DCF1000252EB0C0C0551C1504CF005
:10B1A00002020578B5F1030CDCF1000442F2E5017E
:10B1B00042F2E40354EB0C054554C25430BC7047D2
:10B1C00041F2581141F2781245584168835842F2D1
:10B1D000DC0442F2E00C05514C1E624240F80C3097
:10B1E0006241DEE74368F0B400F5035404F11C0645
:10B1F0000C27114D0D60002B8E604F6001EB070492
:10B2000012DD00EB830C4769DCF818500B4E0D6122
:10B21000012B4F61CE6003DD806908628E61CD61D4
:10B2200003EB430304EB8304611A054F8D1007FB06
:10B2300005F61660F0BC70477374617462756666DB
:10B24000ABAAAAAA2DE9F04F437890F800B02DEDF3
:10B25000028BDA1EB3EB0B050446D0B218BF0125F2
:10B2600001288FB040F24A85BBF1030618BF0126C2
:10B27000E77A7FB9002D40F0C182BBF1030F00F0E7
:10B280006C86BBF1010F00F029830FB0BDEC028B7F
:10B29000BDE8F08F15B1002E00F0B38241F6A8157D
:10B2A000002666556368012B00F04C86236A6569A9
:10B2B000E069A6690D930C93C71A0A952B440B9667
:10B2C000207A9FEDDA7ADFEDDA7A002814BFB0EE4B
:10B2D000678AB0EE478AB7F5005FC0F0068503F5D0
:10B2E000005EA7F50057C4F8EC3FF1460026C3EB1B
:10B2F000090A43F8046BAAF104019945C1F38202DB
:10B300003AD01AB3012A1BD0022A15D0032A10D032
:10B31000042A0BD0052A06D0062A18BF43F8046B6E
:10B32000002043F8040B002543F8045B002643F893
:10B33000046B002143F8041B4FF0000B43F804BBDF
:10B340004FF0000C43F804CB994515D09A464FF0C6
:10B3500000084AF8048B203343F81C8CCAF8048098
:10B3600043F8148C43F8108C43F80C8C43F8088C89
:10B3700043F8048C9945E9D1002304F58059B7F5C9
:10B38000004FC4F8E83F09F11405C0F0A7840EF59A
:10B390000048A7F50047C5F804E04146F3460026FB
:10B3A0002BF8026BCEEB0102901E5945C0F342030D
:10B3B0003CD02BB3012B1ED0022B18D0032B12D064
:10B3C000042B0CD0052B06D0062B18BF2BF8026BD4
:10B3D00000262BF8026B4FF0000C2BF802CB4FF03D
:10B3E000000A2BF802AB4FF000092BF8029B4FF03C
:10B3F000000E2BF802EB00262BF8026B594515D0F6
:10B400005846002220F8022B0BF1100B2BF80E2CC3
:10B4100042802BF80A2C2BF8082C2BF8062C2BF842
:10B42000042C2BF8022C59451646E9D104F581531A
:10B4300041F214009E4604F580522650DFF8FC913C
:10B440007C4959601846CEF80890DFF8F4C1C2F87C
:10B450001C904FF07C5EDFF8ECB1DFF8ECA1DFF878
:10B46000EC91C2F820E0B7F5C36FC0F814B0C0F893
:10B4700018C0C3F810E0C3F80CC0C5F838A0C5F870
:10B48000349004F124052846C0F0178404F5825650
:10B49000414608F50272FFF7B1FC06F1180C08F5F9
:10B4A000005BCCF804804346002023F8020BC8EB75
:10B4B0000B02911E9B45C1F342073AD027B3012FDF
:10B4C0001DD0022F17D0032F11D0042F0BD0052F22
:10B4D00006D0062F18BF23F8020B002023F8020B1A
:10B4E000002623F8026B4FF0000E23F802EB4FF01A
:10B4F000000923F8029B4FF0000823F8028B00207C
:10B5000023F8020B9B4514D01946002221F8022B88
:10B51000103323F80E2C4A8023F80A2C23F8082C29
:10B5200023F8062C23F8042C23F8022C9B45104604
:10B53000EAD194F800B0404E41F258030027BBF125
:10B54000030FE050CCF82870CCF8306000F0E384B2
:10B550006068002840F3CB8604F58A5C04F5AC5A99
:10B560000026207A0CF10C020AF10407B4460DF112
:10B5700028090DF13008002800F04E8159F8061016
:10B5800058F8060042F8481CA0F1080A08440023B5
:10B590004FF0000B814242F838AC42F8441C42F8AC
:10B5A00040BC42F8343C42F82C3C00F0AA830B46E5
:10B5B0004FF07F0B03F801BB6FEA010E8644834214
:10B5C0000EF0070A61D0BAF1000F49D0BAF1010FAD
:10B5D00025D0BAF1020F1ED0BAF1030F18D0BAF17C
:10B5E000040F11D0BAF1050F0AD0BAF1060F04D03A
:10B5F0004FF07F0E013381F801E07F2103F8011B3A
:10B600004FF07F0A03F801AB4FF07F0E03F801EB18
:10B610007F2103F8011B4FF07F0A03F801AB4FF0C5
:10B620007F0E03F801EB83422FD019E00000FA46A9
:10B6300000007A46BDFFFF3F00E0FF44BDFFFF3E34
:10B64000E7FFFF3EE7FFFF3F3333333F0000203F7C
:10B650000000804400000000000080470000003827
:10B660009A467F210AF8011B083303F8071C8AF861
:10B67000011003F8051C03F8041C03F8031C03F86D
:10B68000021C03F8011C8342EAD1207A42F8307C84
:10B6900061680CF1010C614507F5007706F10406BD
:10B6A00002F120023FF767AF01290CBF94F800B008
:10B6B00094F800B0034608BF2822084618BF20228D
:10B6C000002B0CBF1021172101FB02F73E1106EBE6
:10B6D00046084FEAA8024FF07E53E6642265E36510
:10B6E00004F1840E0027F0EE000AF14610EE901AE5
:10B6F00000228EF81020083749F8301B402F89F8B7
:10B700001020CEED0C0A8EF87020CEED180A8EF8BF
:10B71000A020CEED240A8EF8D020CEED300A8EF88F
:10B720000021CEED3C0A8EF83021CEED480A8EF88D
:10B730006021CEED540A0EF5C07ED4D104F6246902
:10B7400004F62C6804F6286C1FED3F1AC4F8E85D77
:10B750000023012104F63467F7EE001A6065C4F88F
:10B76000200EA36584ED181A04F6446AC9F8003067
:10B7700004F64865C8F8003004F56569CCF8003077
:10B7800004F6546884F8001E84F8181E84F8022E0B
:10B7900084F8012E84F81A2E84F8192E04F6586CB9
:10B7A000C7ED001A84F8381E04F65C614FF4006699
:10B7B0004FF07C5E04F66467C4F83C2EC4F8402E5B
:10B7C000C4F81C6ECAF80030C5F800E0C4F84C2E6E
:10B7D000C4F8700EC9F80030C8F80030CCF800305A
:10B7E0000B60C4F8782EC4F87C2E84F86C2EC7ED5C
:10B7F000001A002184F801B0E1723EE5002E40F00D
:10B800005D8341F6A8120021A154002F7FF44AADB8
:10B81000002D7FF447AD30E558F8061059F8063092
:10B820001FED740AD0604FEA510E03EB4E0AAEF1E1
:10B83000080B53455061C2F808B042F8083C42F882
:10B84000043C82ED000A46D01946C3EB0A0B21F8EE
:10B85000020BABF1020E8A45CEF342003BD030B36F
:10B8600001281ED0022819D0032814D004280ED095
:10B87000052809D0062804D04FF0000E0231A3F8A5
:10B8800002E0002321F8023B002021F8020B4FF0D8
:10B89000000E21F802EB002321F8023B002021F8E2
:10B8A000020B4FF0000E21F802EB8A4513D0084638
:10B8B000002320F8023B103121F80E3C438021F890
:10B8C0000A3C21F8083C21F8063C21F8043C21F808
:10B8D000023C8A45EBD117610020D9E6277A002F78
:10B8E00040F0118294F8380E002840F08A81D4F894
:10B8F0001C2E02EE102ABAEEEA2AF7EE002AB4EE67
:10B90000E22AF1EE10FA00F1EE84B0EE003AB4EE65
:10B91000C32AF1EE10FA00F326835FEDB16A62EEFE
:10B92000263A04F6346B9BED004AD4F8201EF7EE5D
:10B93000044AB4EEE44AF1EE10FA48BFB0EE644AAD
:10B9400024EE235A0129FDEEC55A15EE903A00F077
:10B95000BD83D4F8E86DD4F83C9E31680696B9F101
:10B96000000F0791C0F2DC840025002A059540F302
:10B97000988004F58A5AD64604F58B580EF1140BBC
:10B9800008F1040E29462E462F460AF1040ACDF886
:10B9900010E008F114089C46089403E0BA4201F153
:10B9A000010160DDDBF80040DAF800301FEDD56AF8
:10B9B00009EB0700A042ACBFC4EB0004044603EB54
:10B9C000440E33F91440BEF90230B7B208EE907A53
:10B9D00008EE103A049FD8F8003007EE904A9842DB
:10B9E0003C68A8BFC3EB000004EB400334F910002F
:10B9F000B3F90240F8EEE70AB8EEC80A02EE100A00
:10BA000002EE904AFBEEC88AB8EEC23A30EE601AF7
:10BA1000F8EEE26AE8EE810A01F01F0E664476EE67
:10BA2000C33A60EE861AA8EEA33A3714E3EE061A7C
:10BA3000F5EEC01AF1EE10FAD4BF2B4645F0010323
:10BA4000BEF11F0F4FEA4305A8D1DDF814E0079CB3
:10BA500048090EF1200EBA42CDF814E044F8203027
:10BA600001F101019EDC11F01F006346089C16D015
:10BA7000059F079E05E0013111F01F004FEA4505C3
:10BA80000CD01F28F7D14A09013111F01F0046F8E8
:10BA9000225007F120074FEA4505F2D10597D4F867
:10BAA0001C2ED4F8405E069EB5EB020B48BF41F257
:10BAB00054114FEA42000490776848BF6158049ED1
:10BAC00007974CBF59445946002E40F3908004F527
:10BAD0008A5A04F58B580022D146C34610461546B3
:10BAE00016460AF1040A09F1140908F104080BF1D9
:10BAF000140B8C46089404E0049CB44202F1010249
:10BB00005DDDD9F80070DAF80040DFEDB88A0CEBA3
:10BB100006011FFA85FEB94204EE10EAACBFC7EB7E
:10BB2000010E8E4604EB4E0734F91E60B7F9024051
:10BB3000DBF8007005EE104AB942D8F80040A8BF03
:10BB4000C7EB010104EB410704EE906A34F91110D0
:10BB5000B7F90240F8EEE47AF8EEC55A07EE101A8B
:10BB600000EE904ABBEEC84AB8EEC71A35EEE76A57
:10BB7000F8EEE01AE4EE067A02F01F0E1D4431EEF4
:10BB8000C12A27EEA80AA4EE021A2E14A1EE280A52
:10BB9000B5EEC00AF1EE10FAD4BF074640F0010737
:10BBA000BEF11F0F4FEA4700A6D1049CDDF81CE050
:10BBB0005109B4424EF8217002F10102A1DC12F0E9
:10BBC0001F06089C0DD0079D1F2E08BF560902F1C5
:10BBD000010208BF45F8260012F01F064FEA400098
:10BBE000F2D1D4F81C2ED4F8401EC2EB010B0698FB
:10BBF00005990BEB62024FF00109FFF7E1F984F8B8
:10BC0000389E636B4FEAA30818F1100F04F1240467
:10BC10003FF43BAB204608F10F06FFF7FBF818F1A5
:10BC20000F0506F007073FF430AB57B3012F22D0C2
:10BC3000022F1CD0032F16D0042F10D0052F0AD0AE
:10BC4000062F04D02046FFF7E5F808F10E05204640
:10BC5000FFF7E0F8013D2046FFF7DCF8013D204604
:10BC6000FFF7D8F8013D2046FFF7D4F8013D204604
:10BC7000FFF7D0F8013D2046FFF7CCF8013D3FF437
:10BC800004AB2046FFF7C6F82046FFF7C3F820466E
:10BC9000FFF7C0F82046FFF7BDF82046FFF7BAF8D7
:10BCA0002046FFF7B7F82046FFF7B4F82046FFF725
:10BCB000B1F8083DE5D1FFF7E8BA04F58257002155
:10BCC0004FF40272FFF79AF807F1180C4FF4005B7B
:10BCD000CCF804604FF00008FFF7E5BBF0466B605E
:10BCE0009E464FF40041FFF759BB00259E46C4F81D
:10BCF000EC5F2B464FF40059FFF7F8BA0026FFF728
:10BD0000B7BA0120C2E494F8383E002B7FF479AF33
:10BD1000D4F81C2E01EE902AFAEEEA1AB7EE002AA9
:10BD2000F4EEC21AF1EE10FA00F12081F0EE002AD2
:10BD3000F4EEE21AF1EE10FA00F3F8829FED293AE0
:10BD400061EE833A04F6346898ED004AD4F8207E18
:10BD5000F7EE046AB4EEE64AF1EE10FA48BFB0EE30
:10BD6000664A64EE234A012FBDEEE45A15EE103AFE
:10BD700000F0DF82D4F8E85DD4F83CBE286807956F
:10BD8000BBF1000F0890C0F2C683002A4FF00001FB
:10BD900040F3F18004F58857049704F5895ADDF8DB
:10BDA00010900697CDF814A009F108080AF10805CB
:10BDB000DDF81890DDF814A0CDF8108009F1140812
:10BDC0000AF11409CDF814900994DFF81CE0CDF8BD
:10BDD000188008460E460F468C46994692462C46D9
:10BDE0000BE000BF00008047680000200000003822
:10BDF000E24500F1010040F37E82069A049D13683B
:10BE00002A681FED066A0BEB0C059D42ACBFC3EB25
:10BE100005032B4602EB0308D35C98F80120DDF8FC
:10BE200014801FFA87FC08EE90CA3EF913C03EF951
:10BE30001230D8F8002005EE903A95422368A8BF4A
:10BE4000C2EB05055A195D5D52783EF915303EF991
:10BE5000125008EE10CA01EE903AF8EEC87AB8EE29
:10BE6000E57A02EE105AFBEEC88AF8EEE12A77EE88
:10BE7000670AB8EEC23AE8EEA07A00F01F084F4415
:10BE800073EE623A27EE861AE8EEA32A4FEA274CB1
:10BE9000A2EE861AB5EEC01AF1EE10FAD4BF334600
:10BEA00046F00103B8F11F0F4FEA4306A0D14FEA55
:10BEB0005018089A203142F8283099E72046FFF7B9
:10BEC0008DF841F25C01635803F500579846002253
:10BED00028F8022B103323F80E2CA8F8022023F8A0
:10BEE0000A2C23F8082C23F8062C23F8042C23F81A
:10BEF000022C9F42EAD141F2580094F800B0E77A50
:10BF0000225084F801B0002E3FF47BAC002F7FF468
:10BF1000C5A9FFF7B2B9227A63680193002A0CBF62
:10BF2000102608264FF48055B0EE480A0296009578
:10BF300004F568600AA90CAAD14B0EF0F3FB94F843
:10BF400000B056E400236169E2690B930D930A91F6
:10BF50000C92A369276AFFF7B3B904F568600EF085
:10BF6000BBFCFFF792B9DFEDC93ADAE4DFEDC63A80
:10BF7000E8E6D4F81C2ED4F8405E079FAD1A786826
:10BF8000069048BF41F214104FEA420C4ABF2058B5
:10BF900028464019BCF1000F40F38F8004F5895604
:10BFA000059604F5885BDDF814800496D94609F1FE
:10BFB000140A08F10809DDF81080CDF81490002269
:10BFC00008F11409CDF810900994AE4F0891154668
:10BFD000164696460BF1080B98468146644604E0E7
:10BFE000744502F1010240F36981DAF80030DBF8B0
:10BFF00000109FEDA75A09EB0E009842ACBFC3EBAF
:10C000000003034601EB030CCB5C9CF80110DDF848
:10C0100010C01FFA86FE04EE10EA37F913E037F974
:10C020001130DCF8001006EE90EADDF814E08842EA
:10C0300004EE903ADEF80030A8BFC1EB00001918FA
:10C04000185C497837F9103037F91100B8EEE66A14
:10C0500007EE103AB8EEE48A07EE900ABBEEC84A43
:10C06000F8EEC70A78EE465AB8EEE71AA4EE256A4B
:10C0700002F01F0C464471EE601A26EE050AE4EE4B
:10C08000210A4FEA264EA0EE850AB5EEC00AF1EE6F
:10C0900010FAD4BF2B4645F00103BCF11F0F4FEA45
:10C0A00043059DD14FEA521C069941F82C3097E781
:10C0B000D4F81C2ED4F8407EBD1A079805EB620216
:10C0C000FEF77EFF012184F8381E9AE5D4F8E87D5A
:10C0D000D4F83C9E3D680697B9F1000F0495C0F274
:10C0E0001F82002A40F32882002104F58A5C0CF1AB
:10C0F000040B0CF1140A05910D460E460F469C46A2
:10C10000904603E0B84501F1010140DDDAF8002076
:10C11000DBF80030DFED5E2A09EB07009042A8BF94
:10C12000C2EB000003EB400233F91030B2F9020019
:10C1300003EE903A06EE900AB7B203EE107AB8EE2C
:10C14000E34AF8EEE64ABBEEC83A34EEC45A01F0D0
:10C150001F0EA3EE054A6644371464EE228AF5EEFC
:10C16000C08AF1EE10FAD4BF2B4645F00103BEF1B0
:10C170001F0F4FEA4305C5D1DDF814E004984A09C2
:10C180000EF1200ECDF814E040F82230BAE711F09D
:10C190001F02634610D0059805E0013111F01F021F
:10C1A0004FEA450507D01F2AF7D14F09049E2030DA
:10C1B00046F82750F1E70590D4F81C2ED4F8407EBD
:10C1C0000698B7EB020B48BF41F254114FEA4209FF
:10C1D00048BF6158466804964CBF0BEB010ADA462B
:10C1E000B9F1000F7FF703AD002204F58A51104624
:10C1F0001546164601F1040B01F114089C4603E0B4
:10C20000B14502F1010245DDD8F80030DBF80070DD
:10C210009FED1F8A0AEB06019942A8BFC3EB0101FB
:10C2200007EB410337F91170B3F9021007EE907A6A
:10C2300006EE101AAEB205EE906AB8EEE70AB8EE56
:10C24000C67AFBEEC85A77EE400A02F01F0EA5EE42
:10C25000A00A65442E1420EE081AB5EEC01AF1EEBD
:10C2600010FAD4BF034640F00103BEF11F0F4FEA9E
:10C270004300C5D14FEA521E049F47F82E30BFE756
:10C28000E8D5010868000020000080470000004851
:10C290000000003812F01F06634607D1A1E4013206
:10C2A00012F01F064FEA40003FF49BAC1F2EF6D160
:10C2B0005509DDF810A04AF82500F0E712F01F003C
:10C2C00043460899099C07D1F2E6013212F01F009B
:10C2D0004FEA45053FF4ECAE1F28F6D15709069EFC
:10C2E00046F82750F1E75FED183AFFF71ABB237ABB
:10C2F0002022FFF7E5B910F01F024B46099C07D139
:10C3000037E6013010F01F024FEA46063FF431AE27
:10C310001F2AF6D14509089F203147F82560F0E72C
:10C3200041F2541561598944FFF71EBB5FED293A6C
:10C3300008E5D4F8E81DD4F83CCE0F680791BCF1AD
:10C34000000F059703DA41F21416A559AC44002AF0
:10C350004FF0000155DD04F5885BDA4608460D46CE
:10C360000F468E460BF1080B0AF1140A9946049405
:10C3700004E0724500F1010040F3B780DAF80030C4
:10C38000DBF800601FED3E2A0CEB0E049C42A8BFB8
:10C39000C3EB04043319345D5B786A4E36F91440FC
:10C3A00036F9133003EE104A03EE903A1FFA87FE77
:10C3B00002EE90EAB8EEC34AF8EEE36AFBEEC82A52
:10C3C00076EEC44A00F01F08A2EEA44A4F444FEA9A
:10C3D000274E24EE025AB5EEC05AF1EE10FAD4BF41
:10C3E0002E4645F00106B8F11F0F4FEA4605C0D1B1
:10C3F0004409DDF81480203148F82460B9E7D4F806
:10C400001C2ED4F8405E079E570070680690AD1A47
:10C41000059700F18B800495059E002E7FF74DAEA9
:10C42000002204F5885A0AF1080C0AF1140BDFF80F
:10C43000148110461646174699468A4604E0059B25
:10C44000BB4202F101023CDD049DDBF80010DCF888
:10C450000030DFED3D8A3D448D42A8BFC1EB0505AC
:10C4600059195B5D4D7838F9131038F9153006EE1F
:10C47000101A05EE903AB7B208EE107AB8EEC60A76
:10C48000B8EEE57ABBEEC88A77EE407A02F01F0E6E
:10C49000A8EE270A4E44371460EE280AF5EEC00ACB
:10C4A000F1EE10FAD4BF054640F00105BEF11F0FB2
:10C4B0004FEA4500C3D15109DDF818E04EF821508C
:10C4C000BDE712F01F054B46514607D1F0E501329A
:10C4D00012F01F054FEA40003FF4EAAD1F2DF6D1E0
:10C4E0005709069E46F82700F1E710F01F074B4654
:10C4F000049C07D183E7013010F01F074FEA450580
:10C500003FF47DAF1F2FF6D14209DDF814C0203172
:10C510004CF82250EFE741F21416A1598B4434E451
:10C5200041F2541854F808108944DAE541F214161F
:10C53000A0592F1804976FE74FF0000BCDF814B0F7
:10C540003CE600BF68000020000000382DE9F04FF5
:10C550008FB000F503530093009D46687C4A029219
:10C5600005F11C070446009701200C238B46002E82
:10C57000009960720491039340F3D08004EB860825
:10C580007448D8F8182065690692012E0590079521
:10C5900003DDA769089009920A9705AB06EB4609E7
:10C5A000019303EB89060DF1080ACAEB06016A4EF6
:10C5B000881006FB00F8B8F1000F00F08E80029A98
:10C5C000DBF80050AA4240F08380039FDBF8043080
:10C5D0009F427DD15546002628E004EB820E5D493E
:10C5E000DEF8183060690693012A0591079003D0A0
:10C5F000A069089109930A9002EB4208019A02EBA4
:10C60000880CCAEB0C01544B881003FB00F8013670
:10C61000464562D259F82700EF68874258D12F6902
:10C62000DBF804309F4205F10C0551D10BF10809EC
:10C630003A464946A868BF08FBF7AAFD09EB870BF5
:10C64000002EE4D104F5035C21789CF825800CF1E0
:10C65000250ECA1E504250EB020318F1000118BF0C
:10C6600001218B4204D000290CBF0022032222703A
:10C6700004F5035C0CF1240E9EF80010E07A11F032
:10C68000010F0CBF0223012310B962689A4216D031
:10C690004A0863600CBF002101210120E072217271
:10C6A0002046FEF7CFFD6268294B009904910C20CB
:10C6B000002A0293039090DCDDF804C0A1E74A0849
:10C6C00094F808800CBF0021012181EA0800E5E709
:10C6D000002060720FB0BDE8F08F257A0DBB42F2EA
:10C6E000DC0741F25819E25944F8092004F58B5A45
:10C6F00042F2E003CAF8005041F2781B04F58C5C6A
:10C70000E15844F80B10CCF8005041F6A811012074
:10C710000026605466720FB0BDE8F08F05AE01963A
:10C7200041E742F2DC0041F218162558A55104F504
:10C730008958002742F2E003C8F8007041F2381926
:10C7400004F58A5AE25844F80920CAF80070DCE778
:10C750007374617462756666ABAAAAAA2DE9F00FBC
:10C76000D2ED0A7A83460068DBED055A2DED028B87
:10C7700027EEA77A02EE900A90B0B8EEE23A27EEE2
:10C78000270A0E9223EE003A92F8342009938A4643
:10C79000C5EE833A002A42F06981BE4BCBF81830CF
:10C7A00083EE255A002843F36B800BF12C073E7F64
:10C7B000411E002401F007050D94002E02F05A815D
:10C7C0000122824207F1300300F08880002D38D02A
:10C7D00095422DD0022D25D0032D1DD0042D15D02E
:10C7E000052D0DD0062D05D01F7F002F02F0828170
:10C7F00001323033197F002902F073810132303366
:10C800001F7F002F02F06481013230331D7F002D25
:10C8100002F05581013230331E7F002E02F0468136
:10C82000013230331C7F002C02F03781013230336B
:10C830001D7F002D02F028810132824203F1300376
:10C840004CD00D991F7F27B90BEB810C0131CCF82F
:10C850001C2C30331E7F013226B90BEB81050131D0
:10C86000C5F81C2C93F84C40571C24B90BEB8109DC
:10C870000131C9F81C7C93F87C60951C26B90BEB40
:10C88000810C0131CCF81C5C93F8AC40D71C24B966
:10C890000BEB81090131C9F81C7C93F8DC60151D94
:10C8A00026B90BEB810C0131CCF81C5C93F80C41E0
:10C8B000571D24B90BEB81090131C9F81C7C93F891
:10C8C0003C61951D26B90BEB810C0131CCF81C5C49
:10C8D0000732824203F5A873B4D10D910E9F1A9CC2
:10C8E00097F82520002C7FD06B4E06903168DDF83C
:10C8F00068800D9800233C46684F694DDFED690A5A
:10C90000DBED066A07FB01F94D4401EE105AB8EE63
:10C91000416AF7EE001A26EE202A36EEA14AB4EE5E
:10C92000C25AF1EE10FA8BED064A40F3FA81DBEDC4
:10C93000034AB4EEE43AF1EE10FA40F3F281002833
:10C9400040F0FB81013343452946D5D1099E1A9C0D
:10C95000514A0D9006EBC407BE420698116043D0C1
:10C960004FF0000CB91B46F804CB0D1FB742C5F3BE
:10C97000820339D01BB3012B1CD0022B17D0032B01
:10C9800012D0042B0DD0052B07D0062B1CBF002383
:10C9900046F8043B002446F8044B4FF0000946F8E3
:10C9A000049B002246F8042B002146F8041B0025B6
:10C9B00046F8045B002346F8043BB74214D0B44663
:10C9C00000244CF8044B203646F81C4CCCF80440AC
:10C9D00046F8144C46F8104C46F80C4C46F8084CF7
:10C9E00046F8044CB742EAD10BF61C5600280A96CA
:10C9F00040F39C830BF148070BF138090BF13C0C19
:10CA00000022CDF804B0CDF820B00297CDF80C90FC
:10CA1000CDF81CC00692D34603994D7C022D00F040
:10CA2000DE84012D00F08F86089B019C9E6894F89F
:10CA30004870012E00F0F687002F00F05A83E06A5C
:10CA4000002802F0F3851A99002902F01387421E8C
:10CA500012F007040B4609994DD01A9B099D013B22
:10CA6000104605F1080102F1FF327DD0012C42D0C1
:10CA7000022C39D0032C30D0042C27D0052C1ED00A
:10CA8000062C15D0013B104601F1080102F1FF32DE
:10CA90006AD00DE000007AC4680200200D6619001B
:10CAA0005FF36E3C0000802F0000004300008043D5
:10CAB000013B104601F1080102F1FF3254D0013B65
:10CAC000104601F1080102F1FF324DD0013B104642
:10CAD00001F1080102F1FF3246D0013B104601F19D
:10CAE000080102F1FF323FD0013B104601F108017D
:10CAF00002F1FF3238D00831013BD71EA2F1040CFD
:10CB0000A2F10508A2F10609A2F1070A0D461C468A
:10CB10001046002A01F04B82561E083A23B3013B0F
:10CB2000304601F1080106F1FF361DD0A31E304644
:10CB300005F1100118D0E31E384605F1180113D095
:10CB4000231F604605F120010ED0631F404605F10A
:10CB5000280109D0A31F484605F1300104D0E31F86
:10CB600005F138015046C6D1DDF804C04FF0FF365C
:10CB7000CCF82C00DDF8089019ED063AB5EE403AF5
:10CB8000F1EE10FA41F03981DDF81CA0039C9AED1A
:10CB9000002AD4ED007A002B01F0AF8016F00307D5
:10CBA00030460A9A53D0B7EE008AF4EEC87AF1EE16
:10CBB00010FAAABFB0EE006AB0EE676A36EE676A96
:10CBC00077EE827AF0EE004AF4EEE47AF1EE10FAB3
:10CBD00081F291800A9A06F1FF3C012FA2EC016AD2
:10CBE000604634D0022F18D0B7EE003AF4EEC37A84
:10CBF000F1EE10FAB4BFF0EE674A74EEE74A77EE52
:10CC0000827AB0EE006AF4EEC67AF1EE10FA81F2A2
:10CC10007280E2EC014A0CF1FF30F7EE003AF4EEDC
:10CC2000E37AF1EE10FAAABFB0EE006AB0EE676ADE
:10CC300036EE676A77EE827AB0EE005AF4EEC57A85
:10CC4000F1EE10FA81F25780A2EC016A0138F7EE9A
:10CC5000006AF4EEE67AF1EE10FAA6BFB0EE006AD2
:10CC600036EE676AB0EE676A77EE827AB0EE000A57
:10CC7000F4EEC07AF1EE10FA81F23D80043202ED5A
:10CC8000016A9146451E002801F03780B7EE001A70
:10CC9000F4EEC17AF1EE10FAC1F2528370EE670A37
:10CCA00077EE827AB0EE006AF4EEC67AF1EE10FA10
:10CCB00081F22180F7EE005AF4EEE57AF1EE10FAF7
:10CCC000B4BFB0EE676A36EE676A77EE827AB0EE8E
:10CCD000004AF4EEC47A4A46F1EE10FAE2EC010A98
:10CCE00081F20980F7EE005AF4EEE57AF1EE10FADF
:10CCF000B4BFB0EE674A34EE674A09F1080277EE36
:10CD0000827A02ED016AB0EE006AF4EEC67AF1EEC4
:10CD100010FA80F2F08709F10C0202ED014AE81ED8
:10CD200095E7F4EEC43AF1EE10FA7FF608AE00286B
:10CD30003FF408AE002A3FF405AE94ED028A5FEDA1
:10CD4000A68A5FEDA66A94ED010AA24EA24F019752
:10CD500078EE287A38EEC87AFDEEE72ABDEEC74AAB
:10CD6000F8EEE24A20EE262A37EEE48AF8EEC48A8C
:10CD700006FB05FC019E994F99499A4A9FED9A1A24
:10CD800094ED066AD4ED000AD4ED0B1AFDEEC27ADA
:10CD900068EE264A37EE687A6644FDEEE48A00EED5
:10CDA000106A27EE267A019617EE906A4FEA8609F6
:10CDB00018EE906AFDEEC78A013809EB070CB8EE51
:10CDC000400A01EB860918EE907A12EE906A0BEB9E
:10CDD0008005FEEE004AB8EEE78AE0EE014A01EB7C
:10CDE0008701D5F81C5CDCED007A9CED011A99ED09
:10CDF000000A02EB860C14EE107ADBF80460DCED1E
:10CE0000002A02EB870905EB4505B042ACBF0227BB
:10CE10000127DAF81420DBF80860029732EE482A7E
:10CE200031EE671A0BEB0515B6EE004AC8EB020CA3
:10CE30001835F0EE448A012E91ED008ADAF81010D0
:10CE4000E2EE017A05F104029C4422EE807AE6EEDD
:10CE5000248A99ED002A01F07782F4EEC48AF1EE7B
:10CE600010FA41F1B38078EEA86AB7EE000AF7EE47
:10CE7000008AB4EEE87A04EE101AF1EE10FAF8EE39
:10CE8000C44A0EDDB5EE006A22EE088A24EE862A38
:10CE900028EE021AF4EE417AF1EE10FAC8BFF0EE75
:10CEA000417ADFED528A9FED524A1361FDEEE72A87
:10CEB00074EEA84A12EE906AE7EE674A26F0010780
:10CEC000576006EE107AB8EEC68AB0EE002A74EE0D
:10CED000E74A82EE088A002760EEA40A27EE041AC9
:10CEE000E7EE270AB6EE004ABDEEE06ABCEEC17A74
:10CEF00016EE109AC9EB0C060E4496FBF1FCF4EE0C
:10CF0000C41A01FB1C61F1EE10FA6960C2ED078AD8
:10CF100082ED088A82ED037A976081F24D80DFED21
:10CF20003B2AC2ED058A71EEA21AC4EE218AC2ED37
:10CF3000068A77EEE57ADFED2F4A029F82ED090A35
:10CF4000E7EEA45A013301254FF00009434582F86A
:10CF50002D70C2ED0A6A82F82C500199CBED055A6A
:10CF60004FF00002CBF818907FF4C6ACEEE42249F3
:10CF70003960029840ED047A019E019C029B019960
:10CF8000B56AE76953ED028A53ED011A05950497D6
:10CF90004B6A002A00F0A9800A9A089892ED002AAC
:10CFA000FFEE006AB4EE662AF1EE10FA07EB2347B3
:10CFB00000F5526902F00482DBF810A0DBF804608F
:10CFC000CDF82CB00D4808F1080108F10402002545
:10CFD000E34625E00D6619005FF36E3C347D0208E0
:10CFE000A08A02089C8602080000802F0000000032
:10CFF00000008047CDCCCC3D000080BF6800002001
:10D00000000000386666663FCDCC4C3E0AD7233C14
:10D01000B9EC012AB4EE412AF1EE10FA02F0CE8109
:10D020009CB2574506EE104A059C5FED0B0A51ED88
:10D03000022AA8BFCAEB07072344F41916F8078091
:10D0400094F801C0A77830F91CC030F9177030F996
:10D050001880E47805EE107A00EE10CA08EE108A07
:10D06000B8EEC57AF8EEC03AB8EEC84A73EEC77AA1
:10D0700030F91470049C77EE444AF6EE005AB0EE94
:10D08000678A03EE107AA4EEA58A5D4504EB234778
:10D09000F8EEC36A37EE883A36EEE30ABBEEC86AAA
:10D0A000A0EE253A01F1080102F10802BFEE001AD4
:10D0B00038EE035A05F1010596EE035A26EE057A7D
:10D0C000A4EEA57AE6EE073A63EEA00A22EE202A45
:10D0D000E8EE822A41ED042A52ED022AE1EE822A8C
:10D0E00042ED022A94D1DDF82CB0019C089F6362C6
:10D0F0003868DDF81890DDF804C00299039D079E9A
:10D1000009F1010A01F130020CF1300905F1300397
:10D1100006F130045045CDF818A0CDF804900292E5
:10D12000039307943FF778ACDDF820B00D9FDBED5B
:10D13000031A5FED4C5A1FED4C1AC01B06EE100A85
:10D14000F8EEC68AB0EE004A78EEE13AF5EEC03A63
:10D15000F1EE10FAC8BFB0EE651AE1EE231AF4EE54
:10D16000C41AF1EE10FACBED031A41F37B84F7EE0B
:10D17000007A71EEE76AB6EE008A16EE901A4A0857
:10D18000C2F1BE4808F55D1A0AF5CE5C0CF11F0528
:10D1900003EE105A26EE880AB7EE087A23EE005AFC
:10D1A000A3EE457A63EE074A0E9BB7EE006AD3ED15
:10D1B0000B0AB0EE002AF0EE462AE0EE822AF4EEE8
:10D1C000C62AF1EE10FA01F11A87F4EEC22AF1EE46
:10D1D00010FA41F398840E9E1A9DD6ED0A8AF7EE56
:10D1E000001AE8EE861A64EEA15A002D00F0F180D4
:10D1F0009BED041A5FED7B3A099F35EEC14A07F1BA
:10D200000800A4EE231A07F1040A01216C1E8BED1D
:10D21000041AD7ED004A64EE817AA94240ED027A01
:10D22000DAED006A9BED048A26EE880A07F1100207
:10D2300004F003068AED000A07F10C0900F0C9802A
:10D24000002E5AD0012E38D0022E1AD09BED043A6F
:10D25000099D35EEC35A0221A5EE233A08328BED23
:10D26000043A12ED047A67EE030A42ED040A99EDDE
:10D27000002ADBED042A22EE226A89ED006A05F11C
:10D280001409DBED048A5FED9F1A35EEE81A0131CF
:10D29000E1EE218A0832CBED048A52ED043A23EE06
:10D2A000A84A02ED044AD9ED004ADBED047A64EEA7
:10D2B000A76A16EE907A49F8087B9BED048A1FED69
:10D2C000AD0A1A9835EEC83A0131A3EE008A8142C0
:10D2D00002F108028BED048A12ED045A25EE087A59
:10D2E00002ED047AD9ED000A9BED042A60EE822A51
:10D2F00012EE904A49F8084B6BD01A9BDBED048A7A
:10D300005FEDBE1A35EEE86AC846E6EE218A15469C
:10D3100005F1080C0CF10800CBED048A12ED021A9D
:10D3200061EE283A02F1180642ED023ADBED044ABA
:10D3300099ED004A64EE247A043117EE907A48F8A9
:10D34000087BDBED046A35EEE68A9942E8EE216A55
:10D3500002F1200209F12009CBED046A95ED000AE3
:10D3600020EE263A0CED023A19ED065A9BED047AAE
:10D3700065EE070A49ED060A9BED042A75EEC22AFE
:10D38000A2EEA12A8BED042ADCED008A28EE826A47
:10D3900000ED026A98ED021ADBED043A21EE234A11
:10D3A00088ED024ADBED044A75EEE47AE7EEA14A25
:10D3B000CBED044A56ED026A26EEA48A06ED028AF7
:10D3C00019ED020A9BED043A20EE035A09ED025AC8
:10D3D00094D110B0BDEC028BBDE8F00F7047089FF0
:10D3E000BB68012B00F0FE85019991F84840002CA4
:10D3F0003FF47FAECE6A002E02F046821A9F002FC5
:10D4000002F04982721E12F007043B4609993FD090
:10D410001A9BDDF824C0013B10460CF1080102F113
:10D42000FF326ED0012C33D0022C2AD0032C21D015
:10D43000042C18D0052C0FD0062C06D0013B10462A
:10D4400001F1080102F1FF325BD0013B104601F10E
:10D45000080102F1FF3254D0013B104601F10801EE
:10D4600002F1FF324DD0013B104601F1080102F1FB
:10D47000FF3246D0013B104601F1080102F1FF32B4
:10D480003FD0013B104601F1080102F1FF3238D0D4
:10D490000831013BD71EA2F1040CA2F10508A2F14C
:10D4A0000609A2F1070A0D461C461046002A01F0A3
:10D4B0005881561E083A23B3013B304601F108015A
:10D4C00006F1FF361DD0A31E304605F1100118D01D
:10D4D000E31E384605F1180113D0231F604605F1FD
:10D4E00020010ED0631F404605F1280109D0A31F7B
:10D4F000484605F1300104D0E31F05F138015046DC
:10D50000C6D1019F4FF0FF3CF862CDF814C0DDF8A2
:10D51000089059ED065AF5EE405AF1EE10FA41F036
:10D52000458059ED038A59ED056A59ED047A002BBF
:10D5300000F03D8705980A9A10F0030771D0B7EE06
:10D54000008AF4EEC87AF1EE10FAA6BFF0EE005AA7
:10D5500075EEE75AF0EE675A66EEA55AB7EE006A26
:10D5600077EEA87AF4EE465AB0EE003AF1EE10FAF1
:10D57000F4EEC37AA8BFF0EE465AF1EE10FA80F24C
:10D580001487059D0A9A6E1E012FE2EC015A30465F
:10D5900047D0022F20D0F4EEC67AF1EE10FAACBFDD
:10D5A00073EE675AF0EE675A66EEA55AB7EE006A58
:10D5B00077EEA87AF4EE465AF0EE003AF1EE10FA61
:10D5C000F4EEE37AB8BFB0EE656AF1EE10FA80F2DD
:10D5D000EC86A2EC016A701EB7EE006AF4EEC67A21
:10D5E000F1EE10FAA6BFF0EE005A75EEE75AF0EE33
:10D5F000675A66EEA55AB7EE006A77EEA87AF4EE9F
:10D60000465AF0EE004AF1EE10FAF4EEE47AB8BFB2
:10D61000B0EE656AF1EE10FA80F2C786A2EC016AFC
:10D620000138B7EE005AF4EEC57AF1EE10FAA6BF53
:10D63000F0EE005A75EEE75AF0EE675A66EEA55A1C
:10D64000B7EE006A77EEA87AF4EE465AB0EE000A1A
:10D65000F1EE10FAF4EEC07AA8BFF0EE465AF1EE01
:10D6600010FA80F2A286043242ED015A924600F18D
:10D67000FF3C002800F09B86F4EEC67AF1EE10FA2B
:10D68000C1F2B28470EE675A66EEA55AB7EE006A30
:10D6900077EEA87AF4EE465AB0EE001AF1EE10FAE0
:10D6A000F4EEC17AA8BFF0EE465AF1EE10FA80F21D
:10D6B0007C86F4EEC67AF1EE10FA5246E2EC015A9C
:10D6C000ACBF71EE675AF0EE675A66EEA55AB7EE38
:10D6D000006A77EEA87AF4EE465AF0EE002AF1EEF0
:10D6E00010FAF4EEE27AA8BFF0EE465AF1EE10FA24
:10D6F00080F25B86F4EEC67AF1EE10FA0AF10802C7
:10D7000042ED015AACBF72EEE75AF0EE675A66EE90
:10D71000A55AB7EE006A77EEA87AF4EE465AB0EE54
:10D72000002AF1EE10FAF4EEC27AB8BFB0EE656AE4
:10D73000F1EE10FA80F239860AF10C0202ED016A6C
:10D74000ACF103006DE7089B9D68012D01F00F808F
:10D75000019F97F84840002C3FF4CBACF86A0028B2
:10D7600002F0A1801A9A002A02F0B180411E11F045
:10D7700007041346099A3ED01A9B099E013B0846AE
:10D7800006F1080201F1FF316ED0012C33D0022CDA
:10D790002AD0032C21D0042C18D0052C0FD0062C15
:10D7A00006D0013B084602F1080201F1FF315BD0CF
:10D7B000013B084602F1080201F1FF3154D0013B60
:10D7C000084602F1080201F1FF314DD0013B084645
:10D7D00002F1080201F1FF3146D0013B084602F197
:10D7E000080201F1FF313FD0013B084602F1080277
:10D7F00001F1FF3138D00832013BCF1EA1F1040CFA
:10D80000A1F10508A1F10609A1F1070A15461C4678
:10D810000846002901F0D7834E1E083923B3013B87
:10D82000304602F1080206F1FF361DD0A31E304635
:10D8300005F1100218D0E31E384605F1180213D086
:10D84000231F604605F120020ED0631F404605F1FC
:10D85000280209D0A31F484605F1300204D0E31F77
:10D8600005F138025046C6D1DDF804C04FF0FF374D
:10D87000CCF82C00DDF8088018ED061AB5EE401A39
:10D88000F1EE10FA01F0BF83079D039CD5ED000A6D
:10D89000D4ED007A002B01F03C8117F003063846E6
:10D8A0000A9953D0B7EE004AF4EEC47AF1EE10FABA
:10D8B000AABFB0EE006AB0EE676A36EE676A77EE2E
:10D8C000A07AF0EE001AF4EEE17AF1EE10FA81F2AD
:10D8D0001E810A9907F1FF39012EA1EC016A484621
:10D8E00034D0022E18D0B7EE006AF4EEC67AF1EE0C
:10D8F00010FAB4BFF0EE671A71EEE71A77EEA07A6D
:10D90000B0EE006AF4EEC67AF1EE10FA81F2FF8012
:10D91000E1EC011A09F1FF30F7EE008AF4EEE87A43
:10D92000F1EE10FAAABFB0EE006AB0EE676A36EE0A
:10D93000676A77EEA07AB0EE002AF4EEC27AF1EED2
:10D9400010FA81F2E480A1EC016A0138B7EE007AA6
:10D95000F4EEC77AF1EE10FAA6BFB0EE006A36EE2A
:10D96000676AB0EE676A77EEA07AF0EE002AF4EE0E
:10D97000E27AF1EE10FA81F2CA80043101ED016A17
:10D980008A4600F1FF3C002801F0C380B7EE008A10
:10D99000F4EEC87AF1EE10FAC1F2228372EEE74A91
:10D9A00077EEA07AB0EE006AF4EEC67AF1EE10FAE5
:10D9B00081F2AD80F7EE005AF4EEE57AF1EE10FA5E
:10D9C000B4BFB0EE676A36EE676A77EEA07AB0EE63
:10D9D000003AF4EEC37A5146F1EE10FAE1EC014A56
:10D9E00081F29580F7EE005AF4EEE57AF1EE10FA46
:10D9F000B4BFB0EE673A33EE673A0AF1080177EE4A
:10DA0000A07A01ED016AB0EE006AF4EEC67AF1EE9A
:10DA100010FA81F27C800AF10C0101ED013AACF1BF
:10DA2000030093E7002F3FF464ABE56A002D01F09B
:10DA300047871A9A002A01F03C876B1E13F00707EC
:10DA400009993FD01A9DDDF824806A1E184608F116
:10DA5000080103F1FF336ED0012F33D0022F2AD0FB
:10DA6000032F21D0042F18D0052F0FD0062F06D05A
:10DA7000013A184601F1080103F1FF335BD0013A86
:10DA8000184601F1080103F1FF3354D0013A18465A
:10DA900001F1080103F1FF334DD0013A184601F1BD
:10DAA000080103F1FF3346D0013A184601F108019D
:10DAB00003F1FF333FD0013A184601F1080103F1A9
:10DAC000FF3338D00831013ADF1EA3F1040CA3F173
:10DAD0000508A3F10609A3F1070A0D4614461846E6
