:020000040800F2
:1080000000000220512F0208ADA50008B1A500080C
:10801000B5A50008B9A50008BDA50008000000002E
:10802000000000000000000000000000C1A50008E2
:10803000C5A5000800000000C9A50008CDA50008DE
:108040009D2F02089D2F02089D2F02089D2F0208D8
:108050009D2F02089D2F02089D2F02089D2F0208C8
:108060009D2F02089D2F02089D2F02089D2F0208B8
:108070009D2F02089D2F020871B300089D2F020852
:108080009D2F02089D2F02089D2F02089D2F020898
:108090009D2F02089D2F02089D2F02089D2F020888
:1080A0009D2F02089D2F02089D2F02089D2F020878
:1080B0009D2F02089D2F02089D2F02089D2F020868
:1080C0009D2F02089D2F02089D2F02089D2F020858
:1080D0009D2F02089D2F02089D2F02089D2F020848
:1080E0009D2F02089D2F02089D2F02089D2F020838
:1080F0009D2F02089D2F02089D2F02089D2F020828
:108100009D2F02089D2F02089D2F02089D2F020817
:108110009D2F02089D2F02089D2F02089D2F020807
:108120009D2F02089D2F02089D2F02089D2F0208F7
:108130009D2F02089D2F02089D2F02089D2F0208E7
:108140009D2F02089D2F02089D2F02089D2F0208D7
:108150009D2F02089D2F02089D2F02089D2F0208C7
:108160009D2F02089D2F02089D2F02089D2F0208B7
:108170009D2F02089D2F02089D2F02089D2F0208A7
:108180009D2F02089D2F0208000000000000000043
:1081900081F0004102E000BF83F0004330B54FEAB8
:1081A00041044FEA430594EA050F08BF90EA020F25
:1081B0001FBF54EA000C55EA020C7FEA645C7FEAB8
:1081C000655C00F0E2804FEA5454D4EB5555B8BFDB
:1081D0006D420CDD2C4480EA020281EA030382EA4C
:1081E000000083EA010180EA020281EA0303362DDE
:1081F00088BF30BD11F0004F4FEA01314FF4801CB1
:108200004CEA113102D0404261EB410113F0004FC2
:108210004FEA03334CEA133302D0524263EB430379
:1082200094EA050F00F0A780A4F10104D5F1200E17
:108230000DDB02FA0EFC22FA05F2801841F1000172
:1082400003FA0EF2801843FA05F359410EE0A5F146
:1082500020050EF1200E012A03FA0EFC28BF4CF077
:10826000020C43FA05F3C01851EBE37101F000452D
:1082700007D54FF0000EDCF1000C7EEB00006EEB3A
:108280000101B1F5801F1BD3B1F5001F0CD34908C4
:108290005FEA30004FEA3C0C04F101044FEA44521B
:1082A00012F5800F80F09A80BCF1004F08BF5FEAA2
:1082B000500C50F1000041EB045141EA050130BD82
:1082C0005FEA4C0C404141EB010111F4801FA4F125
:1082D0000104E9D191F0000F04BF01460020B1FA7A
:1082E00081F308BF2033A3F10B03B3F120020CDAB2
:1082F0000C3208DD02F1140CC2F10C0201FA0CF090
:1083000021FA02F10CE002F11402D8BFC2F1200CF4
:1083100001FA02F120FA0CFCDCBF41EA0C019040AA
:10832000E41AA2BF01EB0451294330BD6FEA0404F3
:108330001F3C1CDA0C340EDC04F11404C4F12002DE
:1083400020FA04F001FA02F340EA030021FA04F3F0
:1083500045EA030130BDC4F10C04C4F1200220FA47
:1083600002F001FA04F340EA0300294630BD21FA85
:1083700004F0294630BD94F0000F83F4801306BF4B
:1083800081F480110134013D4EE77FEA645C18BF3F
:108390007FEA655C29D094EA050F08BF90EA020FD6
:1083A00005D054EA000C04BF1946104630BD91EACE
:1083B000030F1EBF0021002030BD5FEA545C05D1D1
:1083C0004000494128BF41F0004130BD14F5800410
:1083D0003CBF01F5801130BD01F0004545F0FE4184
:1083E00041F470014FF0000030BD7FEA645C1ABFB9
:1083F000194610467FEA655C1CBF0B46024650EAF0
:10840000013406BF52EA033591EA030F41F400211B
:1084100030BD00BF90F0000F04BF0021704730B5A1
:108420004FF4806404F132044FF000054FF0000176
:1084300050E700BF90F0000F04BF0021704730B537
:108440004FF4806404F1320410F0004548BF40420C
:108450004FF000013EE700BF42004FEAE2014FEA61
:1084600031014FEA02701FBF12F07F4393F07F4F3C
:1084700081F06051704792F0000F14BF93F07F4F6E
:10848000704730B54FF4607401F0004521F00041B1
:1084900020E700BF50EA010208BF704730B54FF037
:1084A00000050AE050EA010208BF704730B511F03C
:1084B000004502D5404261EB41014FF4806404F174
:1084C00032045FEA915C3FF4DCAE4FF003025FEAF6
:1084D000DC0C18BF03325FEADC0C18BF033202EB7E
:1084E000DC02C2F1200300FA03FC20FA02F001FAD8
:1084F00003FE40EA0E0021FA02F11444C1E600BF77
:1085000070B54FF0FF0C4CF4E06C1CEA11541DBF29
:108510001CEA135594EA0C0F95EA0C0F00F0DEF8F4
:108520002C4481EA030621EA4C5123EA4C5350EAD9
:10853000013518BF52EA033541F4801143F480132A
:1085400038D0A0FB02CE4FF00005E1FB02E506F0BB
:108550000042E0FB03E54FF00006E1FB03569CF010
:10856000000F18BF4EF0010EA4F1FF04B6F5007F16
:1085700064F5407404D25FEA4E0E6D4146EB060688
:1085800042EAC62141EA55514FEAC52040EA5E5011
:108590004FEACE2EB4F1FD0C88BFBCF5E06F1ED8BB
:1085A000BEF1004F08BF5FEA500E50F1000041EBF2
:1085B000045170BD06F0004646EA010140EA02009F
:1085C00081EA0301B4EB5C04C2BFD4EB0C0541EAC1
:1085D000045170BD41F480114FF0000E013C00F3D6
:1085E000AB8014F1360FDEBF002001F0004170BDFA
:1085F000C4F10004203C35DA0C341BDC04F1140413
:10860000C4F1200500FA05F320FA04F001FA05F29E
:1086100040EA020001F0004221F0004110EBD3706B
:1086200021FA04F642EB06015EEA430E08BF20EA97
:10863000D37070BDC4F10C04C4F1200500FA04F33A
:1086400020FA05F001FA04F240EA020001F00041CC
:1086500010EBD37041F100015EEA430E08BF20EA3F
:10866000D37070BDC4F1200500FA05F24EEA020E87
:1086700020FA04F301FA05F243EA020321FA04F0B6
:1086800001F0004121FA04F220EA020000EBD3706D
:108690005EEA430E08BF20EAD37070BD94F0000F6D
:1086A0000FD101F00046400041EB010111F4801FA1
:1086B00008BF013CF7D041EA060195F0000F18BF52
:1086C000704703F00046520043EB030313F4801F8E
:1086D00008BF013DF7D043EA0603704794EA0C0F48
:1086E0000CEA135518BF95EA0C0F0CD050EA41065E
:1086F00018BF52EA4306D1D181EA030101F00041DB
:108700004FF0000070BD50EA410606BF1046194602
:1087100052EA430619D094EA0C0F02D150EA01360E
:1087200013D195EA0C0F05D152EA03361CBF10464F
:1087300019460AD181EA030101F0004141F0FE41EE
:1087400041F470014FF0000070BD41F0FE4141F472
:10875000780170BD70B54FF0FF0C4CF4E06C1CEA72
:1087600011541DBF1CEA135594EA0C0F95EA0C0F27
:1087700000F0A7F8A4EB050481EA030E52EA0335E2
:108780004FEA013100F088804FEA03334FF0805503
:1087900045EA131343EA12634FEA022245EA111530
:1087A00045EA10654FEA00260EF000419D4208BFE1
:1087B000964244F1FD0404F5407402D25B084FEA8E
:1087C0003202B61A65EB03055B084FEA32024FF43A
:1087D00080104FF4002CB6EB020E75EB030E22BF97
:1087E000B61A754640EA0C005B084FEA3202B6EB57
:1087F000020E75EB030E22BFB61A754640EA5C0006
:108800005B084FEA3202B6EB020E75EB030E22BF95
:10881000B61A754640EA9C005B084FEA3202B6EB96
:10882000020E75EB030E22BFB61A754640EADC0055
:1088300055EA060E18D04FEA051545EA16754FEAB7
:1088400006164FEAC30343EA52734FEAC2025FEAD5
:108850001C1CC0D111F4801F0BD141EA00014FF064
:1088600000004FF0004CB6E711F4801F04BF014335
:108870000020B4F1FD0C88BFBCF5E06F3FF6AFAE51
:10888000B5EB030C04BFB6EB020C5FEA500C50F1E1
:10889000000041EB045170BD0EF0004E4EEA113164
:1088A00014EB5C04C2BFD4EB0C0541EA045170BD6B
:1088B00041F480114FF0000E013C90E645EA060EAF
:1088C0008DE60CEA135594EA0C0F08BF95EA0C0FDD
:1088D0003FF43BAF94EA0C0F0AD150EA01347FF425
:1088E00034AF95EA0C0F7FF425AF104619462CE7FC
:1088F00095EA0C0F06D152EA03353FF4FDAE10465F
:10890000194622E750EA410618BF52EA43067FF4AF
:10891000C5AE50EA41047FF40DAF52EA43057FF43F
:10892000EBAE12E74FEA4102B2F1E04324BFB3F5E8
:10893000001CDCF1FE5C0DD901F0004C4FEAC002D6
:108940004CEA5070B2F1004F40EB830008BF20F0BA
:108950000100704711F0804F21D113F13872BCBF74
:1089600001F00040704741F480114FEA5252C2F1C9
:108970001802C2F1200C10FA0CF320FA02F018BF12
:1089800040F001004FEAC1234FEAD32303FA0CFC65
:1089900040EA0C0023FA02F34FEA4303CCE77FEAF4
:1089A000625307D150EA01331EBF4FF0FE4040F43E
:1089B0004000704701F0004040F0FE4040F40000ED
:1089C000704700BF844641EA000313F003036DD1F2
:1089D000403A41D351F8043B40F8043B51F8043B82
:1089E00040F8043B51F8043B40F8043B51F8043B89
:1089F00040F8043B51F8043B40F8043B51F8043B79
:108A000040F8043B51F8043B40F8043B51F8043B68
:108A100040F8043B51F8043B40F8043B51F8043B58
:108A200040F8043B51F8043B40F8043B51F8043B48
:108A300040F8043B51F8043B40F8043B51F8043B38
:108A400040F8043B51F8043B40F8043B51F8043B28
:108A500040F8043B403ABDD2303211D351F8043BC8
:108A600040F8043B51F8043B40F8043B51F8043B08
:108A700040F8043B51F8043B40F8043B103AEDD277
:108A80000C3205D351F8043B40F8043B043AF9D2C8
:108A9000043208D0D2071CBF11F8013B00F8013B9B
:108AA00001D30B8803806046704700BF082A13D3A8
:108AB0008B078DD010F003038AD0C3F10403D21AC0
:108AC000DB071CBF11F8013B00F8013B80D331F8F4
:108AD000023B20F8023B7BE7043AD9D3013A11F874
:108AE000013B00F8013BF9D20B7803704B784370DF
:108AF0008B788370604670474FF0FF3C06E000BF04
:108B00004FF0010C02E000BF4FF0010C4DF804CD16
:108B10004FEA410C7FEA6C5C4FEA430C18BF7FEAD6
:108B20006C5C1BD001B050EA410C0CBF52EA430C04
:108B300091EA030F02BF90EA020F0020704710F184
:108B4000000F91EA030F58BF994208BF90422CBF13
:108B5000D8176FEAE37040F0010070474FEA410C0C
:108B60007FEA6C5C02D150EA013C07D14FEA430C2A
:108B70007FEA6C5CD6D152EA033CD3D05DF8040B9B
:108B8000704700BF8446104662468C4619466346CD
:108B900000E000BF01B5FFF7B7FF002848BF10F1A4
:108BA000000F01BD4DF808EDFFF7F4FF0CBF0120E9
:108BB00000205DF808FB00BF4DF808EDFFF7EAFF65
:108BC00034BF012000205DF808FB00BF4DF808ED20
:108BD000FFF7E0FF94BF012000205DF808FB00BF15
:108BE0004DF808EDFFF7CEFF94BF012000205DF89F
:108BF00008FB00BF4DF808EDFFF7C4FF34BF0120AC
:108C000000205DF808FB00BF2DE9F0470446103056
:108C10000E4604F17D0501F07BFD04F12A0002F00F
:108C20000FFC6FEA050A04F1820004F17E030022C2
:108C300000218244834226636263A263E26322646A
:108C40006264A264E26422656265A265E2652266EE
:108C50006266A2660AF0070784F8781084F8791033
:108C600084F87A1084F87B1084F87C1084F87D10E6
:108C70003FD02FB3012F1DD0022F17D0032F11D0BB
:108C8000042F0CD0052F07D0062F1CBF197004F13C
:108C90007F03002403F8014B002603F8016B002535
:108CA00003F8015B4FF0000803F8018B4FF0000957
:108CB00003F8019B4FF0000C03F801CB834216D060
:108CC0009E4600220EF8012B083303F8072C8EF87D
:108CD000012003F8052C03F8042C03F8032C03F8F7
:108CE000022C03F8012C8342EAD1BDE8F087BDE8ED
:108CF000F087BDE8F08700BF2DE9F04F0546044638
:108D0000D44B35F8100FD4F830E01A7807EE900AFB
:108D100083B00E46FBEEC87A0EF1080704F1340862
:108D20001AB1B7EE007A77EE677A597819B197EDF4
:108D3000000A77EEC07AD8ED000AD3ED016AC64A80
:108D400037EEE01A07F1040BE6EE810A0221A44691
:108D5000E8EC010A6C5A137802EE904AFBEEC82A3E
:108D60001BB1F7EE001A71EEE22A54781CB19BEDAC
:108D7000002A72EEC22A98ED003AD2ED013A147A36
:108D800032EEC34AC246A3EE843A01F102090BF166
:108D9000040B0832AAEC013A35F8098005EE908AF6
:108DA000FBEEC85A1CB1F7EE004A74EEE55A507853
:108DB00018B19BED005A75EEC55A9AED006A92ED16
:108DC000017A177A35EEC60A09F10201A7EE006AA8
:108DD00002F108038AED006A6C5A07EE904AFBEE36
:108DE000C87A1FB1F7EE000A70EEE77A587818B12A
:108DF000DBED016A77EEE67A9AED011AD3ED011AFE
:108E000037EEC12A09F10401A1EE821A1A2902F1F2
:108E100010020BF1080B0AF108088AED011A99D12A
:108E20009CED184ADCED192ADCF834703760B0EE9E
:108E3000003AA2EEC34A6446B5EEC04AF1EE10FA1B
:108E400000F17E81F7EE003AB4EE634AF1EE10FADB
:108E5000C8BFB0EE634A94ED0E5A86ED044AB5EEF3
:108E6000C05AF1EE10FA00F16881F7EE004AB4EE54
:108E7000645AF1EE10FAC8BFB0EE645AD4ED0F5A3E
:108E800094ED106A86ED035A35EEC60A4FF0000CD9
:108E9000B5EEC00AF1EE10FA00F14C81B7EE007A9F
:108EA000B4EEC70AF1EE10FAC8BFB0EE470A86ED7D
:108EB000010AD4ED1B0AD4ED137ADFED681AFFEE38
:108EC000006AF4EE660AF1EE10FA08BFF0EE670AE7
:108ED00037EEE01A08BFC4ED1B7AB0EEC12AB4EE3B
:108EE000E12AF1EE10FAD4BF0023012384F8703098
:108EF0000BB1C4ED1B7AD4ED142A9FED5E3A77EEE8
:108F0000E23AF4EEC33AF1EE10FA00F10E81B7EE58
:108F1000004AF4EEC43AF1EE10FAD2BFC6ED053ABB
:108F2000F0EE443A86ED054A94ED155AC4ED003A48
:108F3000B5EEC05AF1EE10FA00F1F480F7EE004AF7
:108F4000B4EE645AF1EE10FAC8BFB0EE645AD4ED34
:108F5000175A86ED065AF5EEC05AF1EE10FA84ED76
:108F6000035A00F1DC80B7EE006AF4EE465AF1EEE7
:108F700010FAD8BFB0EE656AD4ED160A86ED086A1D
:108F8000F5EEC00AF1EE10FA84ED016A00F1C4803A
:108F9000B7EE000AF4EE400AF1EE10FAC8BFF0EEA8
:108FA000400AD4ED117ADEED001ADEED012A9FEDC4
:108FB0002C7A94ED122A94ED1A3A2A48C6ED070A43
:108FC000E2EE221A67EE876A31EEC35ABDEEE61A68
:108FD000C4ED020A11EE10EAB0EEC50A4FEA8E099E
:108FE000F6EE000A09EB000AB4EEE00AF1EE10FA20
:108FF0009AED004ADAED014AD8BFDFED1B1ADFED2A
:109000001B7AF8EEC13A34EEC46A76EEE35AD8BF62
:10901000A5EE213AA5EE864AD8BFF0EE431A34EE0B
:10902000217A86ED024AB4EEE77AF1EE10FAC4ED49
:109030001A1A65D5C6ED027A04F12A0002F020FA68
:1090400094F82C7094F82A20002F50D1002A7AD15D
:1090500012E000BF00000020080000200AD7A33C57
:1090600000008044C8950208CDCC4C3E000040C2B0
:10907000000040420000000094F87C2094F87F70CB
:1090800094F878E094F87DA094F82D30009294F84C
:10909000799094F87E8094F87AC094F87B0094F8E4
:1090A000801094F881B086F825E086F826A084F830
:1090B0007E70009F94F82B6084F8789084F87D800F
:1090C00084F879C084F87A0084F87F1084F87B7083
:1090D00084F880B093B186F0010E284684F87CE0D5
:1090E00084F8813003B0BDE8F04F01F0F9BB002AED
:1090F000C2D14FF0010B86F824B0BDE79E46ECE7E5
:109100005FED256AB4EEE67AF1EE10FAC8BFB0EE74
:10911000667A86ED027A8FE75FED2A0A41E71FED56
:109120002B6A29E71FED2D5A11E786ED053AF0EE7F
:10913000433AF9E6C6F804C0BBE61FED325A9DE695
:109140001FED344A87E686F8247095E72DE9F04F45
:10915000064683B0002306F8043BB24C019000F1B0
:109160004C05D627214648223046FFF72BFC3346D4
:10917000F14313F8012B2944AB4201F007004ED014
:1091800048B3012821D002281BD0032815D0042879
:109190000FD0052809D0062803D013F8018B4244CC
:1091A00092B213F8019B4A4492B213F801AB5244B5
:1091B00092B213F801BB5A4492B213F801CB624445
:1091C00092B213F801EB724492B213F8011B0A44F5
:1091D000AB4292B223D0184693F8029010F801AB3C
:1091E00093F8038090F800B093F804C093F805E07A
:1091F000987952441BFA82F119FA81F218FA82F135
:1092000008331CFA81F91EFA89FA13F8018C10FA56
:109210008AF018FA80FBAB421FFA8BF2DBD16FEABF
:10922000020CB4F84830B4F84AE01FFA8CF29342CA
:1092300000F0E1807C494C3C8C4207F1FF3791D132
:1092400001987A4B7A497B4A81604FF000090124EA
:10925000C360036143618361C361036243628362EC
:10926000C362036343638363C3634260A0F84C90AB
:1092700080F8409080F84190047019F0ABF8F3202A
:1092800019F0B8F8019F6C4BB7F84C106B484FF0D1
:109290004C0A0AFB01FB5B44834200F2B6800029C2
:1092A00000F0B680DFF89C81DFF89CA10BF1006C28
:1092B000D844DA440CF580473C4607F1480BF71BCD
:1092C00004F104093959204619F00AF957F8091030
:1092D000484619F005F904F10800395819F000F969
:1092E00004F10C00395819F0FBF804F1100039585A
:1092F00019F0F6F804F11400395819F0F1F804F1F6
:109300001800395819F0ECF804F11C00395819F01C
:10931000E7F804F120002434395819F0E1F85C45ED
:10932000CED13346F64313F8012B2E44AB4206F060
:1093300007014BD049B3012921D002291BD00329B1
:1093400015D004290FD0052909D0062903D013F818
:1093500001EB724492B213F8010B024492B213F87B
:1093600001CB624492B213F801BB5A4492B213F893
:10937000017B3A4492B213F8019B4A4492B213F82B
:10938000014B2244AB4292B220D0194693F802B06E
:1093900011F801CBDE780F7893F804E058799C79C6
:1093A000624417FA82F91BFA89F216FA82F108333D
:1093B0001EFA81F610FA86F713F8010C14FA87F4F6
:1093C00010FA84FBAB421FFA8BF2DED1D543A9B26F
:1093D000504619F0A5F8019B4046B3F84C1019F01F
:1093E0009FF8019AB2F84C8008F10101A2F84C10E4
:1093F00003B0BDE8F08FBE457FF41CAF7E1C019F1B
:10940000A7F84C6003B0BDE8F08F019AA2F84C9029
:109410000820022119F028F8DFF82CA0DFF82480BA
:10942000074F49E7887F0008B43F0008AE47013F77
:109430001F85A8C20A5785424C400008FF7F0008DC
:10944000004000084A400008484000082DE9F04F5D
:1094500083B00C4601F204460193174618F0BAFF98
:10946000F32018F0C7FF04F10800C000022118F033
:10947000FBFF019B7604002B00F0B08008374FF013
:10948000000A304657F8081C19F02AF8301D57F822
:10949000041C19F025F857F8048C3C68B8F1030F48
:1094A00006F1080640F29280A8F1040954F8041B62
:1094B00030464D4619F014F8032DC9F3820206F127
:1094C000040B7CD9002A46D0012A3AD0022A30D097
:1094D000032A26D0042A1CD0052A12D0062A08D036
:1094E000584654F8041B18F0FBFFA9F104050BF1D2
:1094F000040B584654F8041B18F0F2FF043D0BF11E
:10950000040B584654F8041B18F0EAFF043D0BF115
:10951000040B584654F8041B18F0E2FF043D0BF10D
:10952000040B584654F8041B18F0DAFF043D0BF105
:10953000040B584654F8041B18F0D2FF043D0BF1FD
:10954000040B5846043D54F8041B18F0C9FF032DC2
:109550000BF1040B33D92346584653F8041B0093F0
:1095600018F0BEFF00990BF104090968484618F08D
:10957000B7FFA1680BF1080018F0B2FFE1680BF12A
:109580000C0018F0ADFF21690BF1100018F0A8FFD6
:1095900061690BF1140018F0A3FF203454F8081C83
:1095A0000BF1180018F09CFF203D0BF11C0054F843
:1095B000041C18F095FF032D0BF1200BCBD8A8F15C
:1095C000040020F0030C0CF1040E7644019C0AF117
:1095D000010AA24507F10C077FF453AF03B0BDE8C1
:1095E000F08F00BF2DE9F84F064618F0F3FEF32088
:1095F00018F000FFB6F84C10614B62484C2202FB99
:1096000001F42344834206F1040A40F2AC800027AF
:10961000A6F84C700221082018F026FFDFF87091A0
:10962000594F5A490C4601F1480BC1EB0A0504F1A8
:1096300004082959204618F053FF55F808104046F1
:1096400018F04EFF04F10800295818F049FF04F102
:109650000C00295818F044FF04F11000295818F0A4
:109660003FFF04F11400295818F03AFF04F11800E4
:10967000295818F035FF04F11C00295818F030FF64
:1096800004F120002434295818F02AFF5C45CED17B
:10969000534606F14C0B13F8012B6FEA0A0CDC441D
:1096A0005B450CF007004CD048B3012821D00228BC
:1096B0001BD0032815D004280FD0052809D0062870
:1096C00003D013F801EB724492B213F801AB524489
:1096D00092B213F8011B0A4492B213F8015B2A44B8
:1096E00092B213F8018B424492B213F8014B224418
:1096F00092B213F801CB62445B4592B221D0184676
:109700009C7810F801AB93F803E090F800801D7985
:10971000597993F806C0524418FA82F214FA82F08A
:109720001EFA80F4083315FA84F511FA85FA13F855
:1097300001EC1CFA8AF11EFA81F85B451FFA88F2E7
:10974000DDD1D34399B2484618F0EAFE3846B6F860
:109750004C1018F0E5FEB6F84CB00BF10107A6F876
:109760004C70BDE8F88F00293FF454AF064FDFF886
:10977000209004F100652744A14405F5804151E79C
:109780004C400008FF7F00084A40000800400008E5
:109790004840000870B504469430C4F88C10C4F8F2
:1097A00090201D46049E01F087FE04F19E0001F00A
:1097B000C7FF0B210022D4F88C3084F8BC10C4F809
:1097C000C460C4F8C050A4F8CA2093F84060E87A96
:1097D00016F0010F06F0030C0CBF0221012110B995
:1097E0006A688A4218D069604FEA5C000121E97218
:1097F000287293F841E00B480EF003032B704FF4EE
:10980000806118F0F9FF30B90825012284F8BC50B6
:10981000A4F8CA2070BD70BD2E7A4FEA5C0080EAC1
:109820000601E4E700080240D0F8C010D0F88C2010
:109830004B68097AB3F1010CDCF1000353EB0C0C1B
:1098400009B14CF0020C82F840C0D0F8C0100B787F
:1098500082F84130D0F88C00FFF7C4BEF8B500F1B3
:1098600094050446284601F019FFC74B196818688B
:109870001A6801F07F074FEA520C402F5FFA8CF113
:1098800094BF002601264A005FEA0C6794F8BCC02A
:10989000D1B248BF81F0FF01BCF10B0F77D8DFE8F0
:1098A0001CF00D010C00FE00C300D400EA00F4001F
:1098B0002F014201560169017B01D4F89030DFEDA0
:1098C000B30AD3ED006A9FEDB27A36EEE01A61EE8C
:1098D000071ABCEEE12A12EE102AD7B23E0600F1BA
:1098E000DF817E005FFA86FE002284F8962084F8ED
:1098F0009AE0D3ED032A9FEDA53ADFEDA53A32EECB
:10990000C34A64EE234ABCEEE45A15EE101ACAB2FA
:10991000110600F1AF8152005FFA82FC4FF0000E99
:1099200084F897E084F89BC0D3ED025A9FED976AC4
:109930009FED970A75EEC67A67EE800AFCEEE06A44
:1099400016EE907AFEB2370600F18C8176005FFA4F
:1099500086FE002284F8982084F89CE093ED011A9A
:10996000DFED8A1A9FED8A7A31EE612A62EE072ACC
:10997000BCEEE23A13EE103AD9B20E0600F1828143
:109980004A00D6B2002384F8993084F89D60D4F858
:10999000C06041F2D57E41F2C47216F80E10B35C7D
:1099A00051BB84F89430B77A17B3D4F8C460794ABD
:1099B000716833689942A8BF0B46D81132F910700C
:1099C000002F12DB7E00B6F5404F80F20181B6F524
:1099D000004F18DAB6F5804F80F21081B1114FF0C8
:1099E000000C84F89D1084F899C0012284F894201A
:1099F000284601F0E3FDF8BDC0F308000F2898BF2A
:109A000083F00103CDE7C6F387100027FF2684F813
:109A1000970084F89B0084F8987084F8997084F813
:109A20009C6084F89D60E0E7D4F89070D7ED007AF0
:109A3000BCEEE70A002610EE10CA54FA8CF3FF21A0
:109A400083F8966083F89A10A1E7002E40F0E38037
:109A5000D4F8C0301F7811FB01FE032F4FEA5E21BE
:109A600000F226812744A1F18006C94387F8966059
:109A700087F89A108BE794F8C8C0A4447742002274
:109A80008CF89A708CF8962081E794F8C8E0A64488
:109A9000714200238EF896108EF89A3077E7D4F84A
:109AA000C0205768167AB7F1010EDEF1000C5CEBAE
:109AB0000E0C002E60D04CF0020C5DE0D4F8C470A7
:109AC000344E79683B689942A8BF0B46DA1136F9E3
:109AD0001270002FFFF65BAF7E00B6F5404F80F2AC
:109AE000AC80B6F5004F80F20281B6F5804F80F26F
:109AF0003881B111002384F89D1084F8993046E72D
:109B0000FF22002684F8962084F8972084F8982075
:109B100084F8992084F89A6084F89B6084F89C60AB
:109B200084F89D6033E706B1FF26002784F896602D
:109B300084F89A6084F8976084F89B6084F8987041
:109B400084F89C7084F8997084F89D701FE706B1C2
:109B5000FF2684F8966084F89A6084F8976084F809
:109B60009B6084F8986084F89C6084F8996084F81D
:109B70009D600CE794F8C8C0A444FF2300218CF832
:109B800096308CF89A1002E7CCF901209A99193E88
:109B900000009643CCA502081E681B689F08FAB215
:109BA0005100C6F3012ECEB2390648BF86F0FF063B
:109BB000CEF1030337065FFA83FC6AD47300DEB28A
:109BC0004FF0000EA4448CF896E08CF89A60DEE624
:109BD0004FF0FF0E00214FEA961C84F896C084F8DF
:109BE0009A1084F8981084F8991084F897E084F813
:109BF0009BE084F89CE084F89DE0F6E600224FEAC2
:109C0000961EFF2384F89CE084F8982084F899201D
:109C100084F89D30E9E6002284F8962084F89A20A2
:109C200084F8972084F89B2084F8982084F89C205E
:109C300084F8992084F89D20A9E64FF0FF0C0027B6
:109C4000B30984F8963084F89A7084F8987084F890
:109C5000997084F897C084F89BC084F89CC084F8FD
:109C60009DC094E6BF2E54D8B70007F0FC024FF019
:109C7000FF0E6FE6BF2A54D8910001F0FC0E4FF0A2
:109C8000FF0C4DE6BF295DD8890001F0FC03FF26DB
:109C900079E6BF2E4ED8B10001F0FC0EFF2691E709
:109CA000BF2F56D8BF0007F0FC024FF0FF0E1CE696
:109CB000A1F180025FFA82FC81F0FF0784F896C070
:109CC00084F897C084F898C084F899C084F89A7092
:109CD00084F89B7084F89C7084F89D701B7803F066
:109CE000030EA6448EF896608EF89A604FE6C6F38F
:109CF00087164FF0000EFF2184F8976084F89B6070
:109D000084F898E084F899E084F89C1084F89D1019
:109D10003DE606F140016FEA810C5FFA8CFEFF22FE
:109D200018E602F140076FEA87065FFA86FC4FF0FB
:109D3000FF0EF5E506F140076FEA8702D6B24FF055
:109D4000FF0E3FE701F140026FEA8207FEB2FF23F8
:109D500019E607F140066FEA86015FFA81FEFF22ED
:109D6000C3E54FF0000CB709FF2284F89C7084F81B
:109D700098C084F899C084F89D2008E62DE9F04742
:109D8000564D2B6800F19E06591C0446304629604A
:109D900001F00EFD30462346002210F8011B8029F9
:109DA00022D0A9B9D3F8A46036B12F68DFF82C818E
:109DB000BE1BB6F57A7F50DCD3F8B01051B12F68D6
:109DC000DFF818C1791AB1F57A6F2CDC10F8011C94
:109DD0007F2960D00132032A03F10403DDD120463C
:109DE000FFF73CFDBDE8F087D4F88810271D07EB8E
:109DF000C1094E1C06F00F0E4FF004084FF0000C86
:109E000007F83180A9F80220C9F804C0C4F888E036
:109E100029682F682E682160C3F8A470C3F8B06069
:109E200010F8011CBDE7D4F8886004F1040E0EEBB5
:109E3000C60A771C4FF0040907F00F080EF8369099
:109E4000CAF80410AAF80220C4F88880DCF80010D0
:109E500021600026C3F8B060B8E7D4F8887004F138
:109E6000040C0CEBC70E07F101094FF0040A09F0CE
:109E70000F090CF837A0CEF80460AEF80220C4F841
:109E80008890D8F800602660C3F8A41010F8011C70
:109E9000002991D09CE7D3F8A41000299AD02F680C
:109EA000D4F8886004F1040E0EEBC60A07F1010C29
:109EB000771CC1EB0C094FF0040807F00F010EF8F6
:109EC0003680CAF80490AAF80220C4F888102E68D8
:109ED00026600027C3F8A4707CE700BFCCF90120FE
:109EE00038B54B880C46054613B1012B10D038BD50
:109EF0000B484FF4806118F07FFC30B90422022037
:109F000085F8BC20A5F8CA0038BD6388012BEED1C6
:109F100003484FF4006118F06FFC0028E7D1EDE72B
:109F200000080240D0F89030DFED407A5A8B198A51
:109F3000B3F812C007EE102A9A8A01EE901A02EEC8
:109F400010CAD98AB3F818C002EE902A9A8B03EE91
:109F5000101A03EE90CAD98BB3F820C004EE102A71
:109F60005A8C04EE901A05EE10CA998CB3F826C0EC
:109F700005EE902A1A8D06EE101A06EE90CA01EE32
:109F8000102AB8EE470AF8EE610AB8EE422AF8EE57
:109F9000622AB8EE433AF8EE633AB8EE444AF8EE75
:109FA000644AB8EE455AF8EE655AB8EE466AF8EEDD
:109FB000666AB8EE411A20EE277A196B83ED1D7A96
:109FC00060EEA71A22EE270A62EEA70A23EE272ADE
:109FD00063EEA72A24EE273A64EEA73A25EE274A35
:109FE00065EEA74A26EE275A66EEA75A61EE277A53
:109FF000092381ED077AC1ED021A81ED030AC1ED53
:10A00000040A81ED052AC1ED062A81ED083AC1ED69
:10A01000093A81ED0A4AC1ED0B4A81ED0C5AC1EDB6
:10A020000D5AC1ED0E7A80F8BC30704700008037C1
:10A03000D0F89030DFED1B7A5A8B93ED1D7A06EE47
:10A04000902AF1EE470AB8EE660AB0EE606AA0EE1A
:10A05000276A10B5FEEE001AB4EEE16AF1EE10FACE
:10A06000044604DDB5EEC06AF1EE10FA03D4072011
:10A0700084F8BC0010BDB3EE082AC2EE062A196BA4
:10A08000D0F88C00B2EE083AA0EEA23AC1ED012A57
:10A0900081ED003AFFF7A6FA4FF0000C84F8BCC03F
:10A0A00010BD00BF0000803770B5B0F8CA508EB048
:10A0B0000446C5B94B88012B1AD02FD3022B10D1DF
:10A0C0004868B0F57A6F0CDAB0F57A7FD4F8C02022
:10A0D000ACBF41F2D57041F2C470115C81F0010651
:10A0E00016540EB070BD6B1EA0F8CA300EB070BD15
:10A0F00090F8BC60082E64D0092E65D0062E30D0B2
:10A10000052E64D0042E00F097804968B1F57A7F5F
:10A11000ACBF0621052180F8BC10E2E74D68B5F51B
:10A120007A6F14DAB5F57A7F90F8BC3013DA002B29
:10A1300043D0022B5ED0042B00F08F80581FC2B298
:10A14000012A40F29780002684F8BC60C9E7042207
:10A1500080F8BC20C5E7022BF5D0022084F8BC00B3
:10A16000BFE74C4ED0F8C000316801954FF00A0CA3
:10A1700084F8BCC04D1D437233689D42FCD205F08B
:10A1800059F902A9D4F8C00001AA05F087F902AA7A
:10A19000D4F88C0094F8C810019BFFF757F9D4F855
:10A1A000C0000026467294F8C82084F8BC60511C98
:10A1B00001F0030584F8C85093E7012380F8BC3010
:10A1C0008FE7FFF7AFFE8CE7FFF732FF89E790F8E4
:10A1D000C810D0F8C00001F20443590406F078FE1C
:10A1E00094F8C80084F8BC50451C05F0030284F8BC
:10A1F000C82076E7D0F8C03059681D7A4E1E7242EA
:10A2000052EB060C0DB14CF0020C0CF10100DE7AA1
:10A2100010F0010F00F0030E0CBF022201220EB954
:10A22000914232D05A604FEA5E010125DD72197207
:10A230002046FFF7F9FA54E7D0F8C050164C95F8CD
:10A2400000C00CF1010384FB034E0EEB4E02A3EBA6
:10A2500042062E70FFF7E8FA43E7D0F8C0502B789B
:10A260008BB103F1FF3E5FFA8EF028702046FFF7B6
:10A27000DBFA36E794F8C8C00CF1010101F00306DF
:10A2800084F8C8602DE70520EFE74FEA5E014D40F6
:10A29000CCE700BFCCF90120ABAAAA2A30B5D0F890
:10A2A0008820D0F884300446D01A83B0020718BF43
:10A2B0006D4607D12FE0D4F88820D4F88410501AC6
:10A2C000030728D0D4F8843004EBC30101F1040C57
:10A2D0009CE8030085E803009DF80020581C00F06E
:10A2E0000F03042AC4F88430E5D1019900293FD036
:10A2F000B1F57A7F0ADBBDF8020038B994F89F30D7
:10A3000023B9C4F8A83084F8BC20D4E720466946B5
:10A31000FFF7CAFECFE7244D23682A68C3EB020C7F
:10A32000BCF57A7F29D994F8BC10072936D00129C9
:10A3300027D9032925D02D681B49C3EB050C40F60E
:10A34000B832944512D994F8BC30086820601D1FBB
:10A35000E9B2022907D903F1FF3C5FFA8CF2012A26
:10A3600001D90B2B02D1002384F8BC3003B030BDDF
:10A3700020466946FFF7B4FD9DE794F8BC1001291B
:10A38000D7D8D4F8902092F8701009B92368D2E792
:10A390002B682360012084F8BC00CCE72B68236085
:10A3A000002084F8BC00ECE7CCF901204B1110B57B
:10A3B00001F01F010446042B3AD8DFE803F0202007
:10A3C000150D030019B301292ED0FFF731FE2046E9
:10A3D000FFF72AFA002010BDD0F8C0000B1C18BFF0
:10A3E00001238372002010BD022915D9D0F89040B6
:10A3F00003290CBF94F82C0094F82D0010BDD0F860
:10A40000902002EB410CBCF81000000A10BD08229D
:10A41000084684F8BC2010BD014491F89E10D1F18B
:10A42000010038BF002010BDFFF77CFD002010BDEB
:10A43000002010BD2DE9F84F594D144680460F46B7
:10A44000584805F5BD51FEF757FC414623462846BE
:10A450003A4610F0F9FE41F2C473661EE95C002929
:10A460000CBFC246BA46002C00F097803AF9040BA4
:10A47000DFF834E13AF9029CDEF80470DEF80050AF
:10A48000DEF80830DEF80C200028B8BF4042B9F1F1
:10A49000000FB8BFC9F10009411BC7EB090B002928
:10A4A000D4BF10461846BBF1000FD4BF14461C465B
:10A4B00000FB01F804FB0BFC07EBEC3405EBE83088
:10A4C0000AF1040106F00107751E002E63D0DFB10A
:10A4D00031F904AC31F9026CBAF1000FB8BFCAF11E
:10A4E000000A002EB8BF7642C0EB0A0BC4EB060888
:10A4F000BBF1000FD4BF17461F46B8F1000FD4BF01
:10A5000016461E46013D3AE031F9046C31F902CCA1
:10A5100031F9048B002EB8BF7642BCF1000FB8BFF2
:10A52000CCF1000C371AC4EB0C0C002FD4BF9346AF
:10A530009B46BCF1000FD4BF92469A4631F9026C9B
:10A540000BFB07F70AFB0CF900EBE730B8F1000F43
:10A55000B8BFC8F10008002EB8BF764204EBE9345A
:10A56000C0EB080BC4EB0608BBF1000FD4BF1746C5
:10A570001F46B8F1000FD4BF16461E46023D07FB2A
:10A580000BF906FB08F76E1C00EBE93001F1040142
:10A5900004EBE734B8D18EE81100BDE8F88F00BFB6
:10A5A000C0DA012080020020D0030020704700BFE5
:10A5B000FEE700BFFEE700BFFEE700BFFEE700BF0B
:10A5C000704700BF704700BF704700BF094810B513
:10A5D000FFF7D4FB084B187818B1084C21888B067C
:10A5E00000D410BDA2880348D1B2FFF7DFFEA080DF
:10A5F00010BD00BF04030020E40300200010014050
:10A60000F0B587B003A8012101F002F90220012171
:10A6100018F08EFA002601252A48049504A98DF821
:10A6200015508DF817508DF814608DF8166017F0DE
:10A6300097FF4FF680734FF4E83223490093234885
:10A64000234B244F244C04F08FFE2448FEF77EFD5C
:10A6500023482449FEF7D8FA4FF0660C4FF0040E59
:10A660001F4A1E49194B00943846C4F808C0C4F864
:10A670000CE026606660FFF78DF82946114818F057
:10A68000BBF8811B18BF012117484FF4FA4200F0B4
:10A69000ADFC10B9072087F8BC001348134A2021ED
:10A6A00000F0CEFC10B9072187F8BC100B4A1578D2
:10A6B00015B10F4800F080FE03A801F0B1F807B013
:10A6C000F0BD00BF0004024034040020C0DA0120C5
:10A6D0000000001004030020D0030020E403002049
:10A6E00080020020E803002034D4012035A40008B3
:10A6F000E003002008B5FFF783FF0348FFF7CEFD16
:10A70000024804F0FBFEF8E704030020C0DA012051
:10A710002DE9F04F01219DB004464FF4800018F060
:10A7200007FA0520012118F003FA4FF48070012187
:10A73000002518F019FA0327FF2301A963480193A4
:10A740004FF002098DF80B508DF8087017F008FFD4
:10A7500001A95F48DFF880A18DF80B508DF80870D3
:10A76000CDF8049017F0FCFE01A90F225948019280
:10A770008DF80B508DF8087017F0F2FE0F94DFF88B
:10A780005CE1CDF838E04FF400544FF4806C04F1F4
:10A79000804E01264FF400334FF00D084FF48072C5
:10A7A0004FF4006B50460DA9CDF84CC0179316928C
:10A7B00015940D950EF580341095129518951A95EF
:10A7C0001B95CDF84480CDF850B0199617F09AFD3E
:10A7D0005046314617F0D2FD4FF470624FF44031CD
:10A7E00003A8069204910395059517F063FC204693
:10A7F00007A9CDF82CB007958DF820608DF8215071
:10A800000A9509958DF8308017F026FC20464946B8
:10A810003246072317F070FC204639464A46072384
:10A8200017F06AFC20463A460A21072317F064FC19
:10A83000204631460422072317F05EFC20460B21F8
:10A840000522072317F058FC20460421062207237F
:10A8500017F052FC072120460A460B4617F04CFC25
:10A86000204605210822072317F046FC2046062132
:10A870000C22072317F040FC2046294642460723B6
:10A8800017F03AFC092120460A46072317F034FC4A
:10A8900020460C210A22072317F02EFC0B22072347
:10A8A0002046414617F028FC2046314617F088FC28
:10A8B0002046314617F016FC2046314617F076FC4C
:10A8C000204617F06DFC1DB0BDE8F08F000002407F
:10A8D0000004024000080240106402404C20014085
:10A8E000014817F05DBC00BF002001402DE9F04198
:10A8F0002A4C2B4F82B00620012118F019F90225AD
:10A900004FF440630026204669464FF0010800934B
:10A910008DF804508DF805508DF806808DF807608D
:10A9200017F01EFE20460A21042217F071FF204670
:10A930000B21042217F06CFF4FF470422046694649
:10A9400000928DF804508DF805508DF806608DF852
:10A950000760402517F004FE69463846009517F059
:10A96000FFFD20460C21052217F052FF20460D2145
:10A97000052217F04DFF20460F21052217F048FF52
:10A9800020460E21052217F043FF384606210522F6
:10A9900017F03EFF404602B0BDE8F08100040240DF
:10A9A00000080240F0B5154C85B001214FF480003D
:10A9B00018F0CCF8204617F043FF04A9104B41F8DB
:10A9C000103D4FF480624FF4804C204669460027CA
:10A9D0004BF6FF763325ADF80A20ADF80CC0ADF884
:10A9E0000470ADF80660ADF8085017F05FFF204620
:10A9F000012117F0D5FF012005B0F0BD005800403F
:10AA0000A086010070B5002084B014460E4618F0F0
:10AA100089F8002018F036F84BF680339C420CD0B1
:10AA20004AF64440844261D0B4F5FA4F64D03549C7
:10AA30008C4255D0002004B070BD4FF481700321CA
:10AA400018F016F8012018F01DF83B2018F0B6F8A1
:10AA50004FF4805510BB3B2018F0B0F8F0B93B2004
:10AA600018F0ACF8D0B93B2018F0A8F8B0B93B20EA
:10AA700018F0A4F890B93B2018F0A0F870B93B206A
:10AA800018F09CF850B93B2018F098F830B93B20EA
:10AA900018F094F810B9083DDDD1CBE74FF48040B1
:10AAA000012118F053F8184818F0A2F80022029477
:10AAB000ADF80220ADF80420ADF80C200EB14FF433
:10AAC000007669461048ADF80060ADF8066018F0F1
:10AAD000F7F869460D4818F089F9012004B070BDF7
:10AAE00040F28910042117F0C3FFABE740F20F10CA
:10AAF000062117F0BDFFA5E74FF4D570042117F02C
:10AB0000B7FF9FE7007701000038004000340040A5
:10AB100070B573480E464FF40031154617F08AFFA2
:10AB20004FF4961498B34FF400316D4817F082FF3C
:10AB30004FF4003158B36A4817F07CFF4FF40031EE
:10AB400028B3674817F076FF4FF40031F8B1644836
:10AB500017F070FF4FF40031C8B1614817F06AFF79
:10AB60004FF4003198B15E4817F064FF4FF40031A4
:10AB700068B15B4817F05EFF4FF4003138B15848B8
:10AB800017F058FF18B1083CCDD1002070BD5448D3
:10AB9000012117F015FF5248524917F03DFF4FF4BD
:10ABA000805450BB4F494E4817F036FF4D4920BBEB
:10ABB0004B4817F031FF4B49F8B9494817F02CFFC3
:10ABC0004849D0B9464817F027FF4649A8B9444834
:10ABD00017F022FF434980B9414817F01DFF414952
:10ABE00058B93F4817F018FF3E4930B93C4817F0B4
:10ABF00013FF10B9083CD5D1C7E7394834210022EA
:10AC000017F0FEFE3648384917F006FF4FF480541F
:10AC100050BB3549324817F0FFFE334920BB30485E
:10AC200017F0FAFE3049F8B92D4817F0F5FE2E4915
:10AC3000D0B92B4817F0F0FE2B49A8B9284817F0D7
:10AC4000EBFE294980B9264817F0E6FE264958B997
:10AC5000234817F0E1FE244930B9214817F0DCFE03
:10AC600010B9083CD5D190E7C5F3002141EA460070
:10AC7000C1B21B4817F0CEFE19481C4917F0CCFE94
:10AC80004FF48054002833D11849154817F0C4FEFA
:10AC9000164968BB124817F0BFFE144940BB104864
:10ACA00017F0BAFE114918BB0D4817F0B5FE0F4951
:10ACB000F0B90B4817F0B0FE0C49C8B9084817F0B6
:10ACC000ABFE0A49A0B9064817F0A6FE074978B9B5
:10ACD000034817F0A1FE58B9083CD5D155E700BF8D
:10ACE00000580040010003008200070080000700B8
:10ACF000E9B2364817F08EFE3448354917F08CFE1D
:10AD00004FF4805650BB3249304817F085FE304929
:10AD100020BB2E4817F080FE2D49F8B92B4817F0BC
:10AD20007BFE2B49D0B9294817F076FE2849A8B9EF
:10AD3000264817F071FE264980B9244817F06CFEAA
:10AD4000234958B9214817F067FE214930B91F48F7
:10AD500017F062FE10B9083ED5D116E71B481D4911
:10AD600017F068FE4FF4961450BB1A49174817F0B5
:10AD700061FE184920BB154817F05CFE1549F8B96B
:10AD8000124817F057FE1349D0B9104817F052FE79
:10AD90001049A8B90D4817F04DFE0E4980B90B486F
:10ADA00017F048FE0B4958B9084817F043FE094907
:10ADB00030B9064817F03EFE10B9083CD5D1E4E69C
:10ADC0000248012117F00CFE012070BD0058004020
:10ADD000800007000400001070B50C4616460F21D5
:10ADE00000220546FFF794FE00283BD028460021AC
:10ADF0001722FFF78DFE002834D0284601211722A4
:10AE0000FFF786FE70B3284602210022FFF780FE7E
:10AE100040B3284603210022FFF77AFE10B32846EC
:10AE200004211222FFF774FEE0B10022284605211A
:10AE3000FFF76EFE002C14BF62224222D0B12846DA
:10AE40000621FFF765FE002C0CBF42220222B8B992
:10AE5000E4B14AF644439E420CBF2022002218BBB4
:10AE6000002070BD002C4FF0000014BF622242226F
:10AE70000028E4D1002C0CBF422202220028E7D097
:10AE800028460721FFF744FE002CE2D1B6F5FA4F21
:10AE900019D01ADD4AF64442964212D00E498E422B
:10AEA00018D11C220028DBD028460821FFF730FEED
:10AEB0000028D5D0284609210022BDE87040FFF7C0
:10AEC00027BE2022CBE71822C9E7B6F5FA5F01D1E9
:10AED0000C22C4E70022C2E7007701002DE9F04F01
:10AEE0003B4F3C4E044683B001214FF4001017F055
:10AEF0001FFE3846002117F041FA384617F06AF96C
:10AF0000354BA36100254FF480634FF6FE724FF47A
:10AF1000006B4FF4005A4FF480794FF40038402111
:10AF2000E362626221626561E561A5622564656430
:10AF3000A564E564C4F830B0C4F834A0C4F838900F
:10AF4000C4F83C80384604F114010093019217F0D4
:10AF5000D9F92946304617F011FA304617F03AF978
:10AF60001E4F0199009AA5654FF0C060E565216606
:10AF70006566A266C4F86CB0C4F870A0C4F874909A
:10AF8000C4F87880E567C4F88050C4F88450C4F8E9
:10AF900088502065676504F15001304617F0B2F91A
:10AFA00030460F4E182101224FF4804417F0F0F97B
:10AFB0000C4834600221012217F042FF01210A46A9
:10AFC000094817F03DFF012003B0BDE8F08F00BF36
:10AFD00070600240586002400C3800400C34004061
:10AFE00000E100E0003800400034004070B5134B31
:10AFF00004461546002245601860026121700E4625
:10B00000FFF774FC08B9002070BD2046FFF7CAFCAA
:10B010000028F8D0204631462A46FFF7F3FC0028E6
:10B02000F1D031462A462046FFF7D6FE0028EAD066
:10B030002046BDE87040FFF751BF00BFC8F90120AE
:10B04000F8B50E461746092101220446FFF760FDB8
:10B05000054600283DD0202E53D82378002B3AD027
:10B060002F482761818B4A0552D52E48828B530584
:10B070004AD5207804F18C0704F56373E761A36572
:10B0800068B960684BF6803C604545D0264A9042DE
:10B0900044D0B0F5FA4F0CBF0321012100E001219B
:10B0A000B70001FB07F363622366E1601F48A660F7
:10B0B00004F1140117F026F904F150011C4817F0AF
:10B0C00021F91A48012117F059F91948012117F0FF
:10B0D00055F92846F8BD17484FF4805117F08CFBFE
:10B0E0000028F8D113484FF4805117F085FB002851
:10B0F000B6D110484FF4805117F07EFB0028F1D0F4
:10B10000AEE700252846F8BD012117F05FFEB0E745
:10B11000012117F05BFEA8E70221C1E70421BFE788
:10B1200000380040003400400077010070600240A9
:10B130005860024000040240D0F810C02DE9F041F0
:10B140000646BCF1000F00F00A818268C56805FB65
:10B1500002F7780001FB00F101F5E27306EB43080A
:10B1600006EB410404F18C0708F10400002D6FD0B8
:10B17000510001296CD96D0008F1020E0EEB820E10
:10B18000441908F10603C0EB0E01B4F80080A0F8E2
:10B19000028002397345C1F342012C4458D069B38F
:10B1A000012924D002291ED0032917D0042911D047
:10B1B00005290AD0062904D0B4F8008023F8028FAC
:10B1C0002C44218823F8021F2C44B4F8008023F873
:10B1D000028F2C44218823F8021F2C44B4F80080ED
:10B1E00023F8028F2C44218823F8021F2C44B4F842
:10B1F000008023F8028F73452C4429D01946B4F8F7
:10B20000008021F8028F34F8058021F8028F04EBCA
:10B21000050834F815404C8038F815101981A844F9
:10B2200008EB050138F815405C8131F81580A3F86A
:10B230000C8029444C1931F81510D98134F8158047
:10B24000A3F81080103304EB450473452C44D5D18A
:10B250003946E047F268002A00F08380B068450074
:10B2600007EB80034FEA420E6E1E0EFB067706F1D7
:10B27000FF3C33F8024D3C806046CEEB07020CF0F9
:10B28000070100286FD0C9B3012930D0022927D087
:10B2900003291ED0042916D005290ED0062906D070
:10B2A00033F8025D15800CF1FF30CEEB020233F86B
:10B2B000026D16800138CEEB020233F8027D178052
:10B2C0000138CEEB020233F8024D14800138CEEB88
:10B2D000020233F8028DA2F800800138CEEB0202A0
:10B2E00033F802CDA2F800C00138CEEB020233F8E9
:10B2F000021D11800138CEEB020236D01F46CEEB84
:10B30000020537F8026D16803C46CEEB050834F88E
:10B31000021D298034F802CCA8F800C0CEEB080248
:10B3200033F8087C1780CEEB020533F80A6C2E80C8
:10B33000CEEB050433F80C8CA4F80080CEEB040CA3
:10B3400033F80E1CACF80010CEEB0C0233F8107C76
:10B3500017800838CEEB0202A3F11003CED1BDE86E
:10B36000F081BDE8F081BDE8F081BDE8F08100BF6B
:10B3700008B50F4B1A6812F0C05F0FD10C4B1A685A
:10B3800012F0A05F00D108BD0A484FF0A0519960AB
:10B3900000680021BDE80840FFF7CEBE05484FF029
:10B3A000C051996000680121FFF7C6FEE6E700BFC3
:10B3B00000600240C8F9012070B5102086B001215C
:10B3C00017F0D2FB1C4D1D4E0120014617F0B0FBBB
:10B3D0000024022328464FF4C06269468DF80530E8
:10B3E0008DF8043000928DF806408DF8074017F074
:10B3F000B7F828460921072217F00AFA28460A2139
:10B40000072217F005FA4FF416550C22304602A910
:10B41000ADF81220ADF80C40ADF80E40ADF810407C
:10B42000ADF81440029517F017FD3046012117F0D2
:10B430007FFD06B070BD00BF00000240001001405B
:10B4400030B5012183B00546022017F071FB0024BE
:10B450000123C0220948009269468DF804408DF806
:10B4600006408DF805308DF8073017F079F8AC708C
:10B47000EC702C706C7003B030BD00BF0004024053
:10B4800038B50C4D8278C378027004464370802131
:10B49000284617F0B1F9D0F1010038BF0020A070A4
:10B4A0004021284617F0A8F9D0F1010138BF00214A
:10B4B000E17038BD000402402DE9F041012182B065
:10B4C0000546022017F034FB0420012117F030FB61
:10B4D000002401264FF408736946364800938DF81E
:10B4E00004608DF805608DF806408DF8074017F070
:10B4F00037F86946302230488DF804608DF80560D1
:10B500008DF806408DF80740009217F029F8A81D25
:10B51000C14305F10A0705F107083944B845AC7085
:10B5200001F00706EC7020462C716C71AC713CD0B8
:10B530002EB3012E1ED0022E19D0032E13D0042EAE
:10B540000DD0052E08D0062E1CBF88F8004005F14E
:10B550000808002308F8013B002408F8014B4FF0CD
:10B56000000C08F801CB4FF0000E08F801EB0022A8
:10B5700008F8012B002008F8010BB84515D041460A
:10B58000002601F8016B08F1080808F8076C4E70F6
:10B5900008F8056C08F8046C08F8036C08F8026CED
:10B5A00008F8016CB8453046E9D12870687002B0DF
:10B5B000BDE8F081000402400008024070B5437805
:10B5C0008278064603F12000C5B275701AB1AA420E
:10B5D00034BF00220122B17919B18D4298BF42F0E7
:10B5E0000202F3789400E0B21BB19D4298BF40F094
:10B5F0000100F2791AB1954298BF40F0020031790A
:10B6000083005FFA83FC19B18D4298BF4CF0010CA6
:10B61000347A1CB1A54298BF4CF0020C70794FEA05
:10B620008C02D4B218B1854298BF44F00104717AFB
:10B6300019B18D4298BF44F002041648102100222F
:10B6400017F0E0F8082513482021002217F0DAF857
:10B6500014F0800F4FF000020F4818BF0122202184
:10B66000013D17F0CFF8ADB263000A482021012256
:10B67000DCB217F0C7F8002DE5D1064810210122F1
:10B6800017F0C0F8327804484FF40071BDE87040FC
:10B6900017F0B8B800080240000402402DE9F0019C
:10B6A000861D00F10A05F443C31D00222C44AB4261
:10B6B000827004F00707C2701146027142718271F4
:10B6C0003AD027B3012F1DD0022F17D0032F11D04E
:10B6D000042F0CD0052F07D0062F1CBF1A7000F1C5
:10B6E0000803002103F8011B002603F8016B002466
:10B6F00003F8014B4FF0000803F8018B4FF0000CEA
:10B7000003F801CB002103F8011BAB4214D01F4604
:10B71000002207F8012B083303F8072C7A7003F88E
:10B72000052C03F8042C03F8032C03F8022C03F86F
:10B73000012CAB421146EAD10170BDE8F00170471F
:10B7400070B5012182B00646022017F0F1F90420FD
:10B75000012117F0EDF9002501244FF480736946AB
:10B76000114800938DF804508DF806508DF805406F
:10B770008DF8074016F0F4FE69464FF440620B481E
:10B780008DF804508DF806508DF805408DF807406F
:10B79000009216F0E5FE3046FF2100F8011B00F88C
:10B7A000011B017002B070BD00040240000802409D
:10B7B000F0B5144B0778144D83B004461868019017
:10B7C0007A00BDF804102846D7B217F015F840EA01
:10B7D000070366782370BDF80610284617F00CF8AA
:10B7E0007500A178EFB238434A0060704FF4807161
:10B7F0000648D6B217F000F840EA0603A37003B07B
:10B80000F0BD00BF783D020800080240000402407D
:10B8100001B970474FF000604FF4004116F012BCC0
:10B82000074B0848084A10B4F0245A60002180F8F9
:10B830002340072299605DF8044B1A60704700BFEF
:10B8400010E000E000ED00E03F90020010B40023A3
:10B85000012480F8244080E806008360C3615DF81D
:10B86000044B70472DE9F00F90F8243082B0002B84
:10B8700040F0CA8041690469019400914D11019919
:10B880004268009ED0F800C05FEA611902EB8503B0
:10B8900006F01F0700F0AE8052F8254053F8042F41
:10B8A000DCF80060C7F1200804FA07F122FA08FA70
:10B8B0004AEA010585EA06046FEA040B4FEA5B06D3
:10B8C00006F05531C1EB0B05AC0804F0333A05F036
:10B8D000333BDA440AEB1A1606F00F3101EB01256F
:10B8E0004FEA8909042105EB054AA9F104044945F9
:10B8F0004FEA1A66C4F3800576D03DB302FA07FB1F
:10B9000053F8042FDCF8041022FA08F444EA0B057B
:10B9100085EA010A6FEA0A0B4FEA5B0101F0553430
:10B92000C4EB0B054FEA950A05F033310AF0333BBF
:10B930008B440BEB1B1404F00F3505EB052A082193
:10B940000AEB0A4B494506EB1B664DD053F8045FE2
:10B950005CF8014002FA07FA043125FA08FB53F8B3
:10B96000042F4BEA0A0B8BEA040B05FA07FA5CF882
:10B97000014022FA08F545EA0A056FEA0B0B85EA51
:10B98000040A6FEA0A0A4FEA5B054FEA5A0405F017
:10B990005535C5EB0B0504F05534C4EB0A044FEAEA
:10B9A000950B4FEA940A0BF0333B05F033350AF060
:10B9B000333A5D4404F03334544405EB151B04EB77
:10B9C000141A0BF00F350AF00F3405EB052B04EBBE
:10B9D000042A0BEB0B4504310AEB0A4406EB15660F
:10B9E000494506EB1466B1D18369B34202D2009F88
:10B9F000C7618661009A019D511C8D42CCBF002217
:10BA0000012280F82420416102B0BDE8F00F7047A8
:10BA100010B400248461C461446180F824408260D1
:10BA2000C36001615DF8044B704700BF2DE9F04F22
:10BA30002DED108BB0F97C308BB084460C46164649
:10BA4000002B00F0C381B0F97E00002840F0BE81D9
:10BA5000BCF88020DCF86432002A40F0BE81D3F1CB
:10BA6000010338BF0023CCF864329A000CEB0201CA
:10BA700091ED0C7ADFEDE27ADFEDE25AE24FDFF88A
:10BA8000ACE39FEDE26A9FEDE25A37EE270AFDEE46
:10BA9000C06AF8EEE60A16EE905A30EE601A0EEB27
:10BAA000850821EE252AD8ED001AFDEEC22A12EEF5
:10BAB000900A07EB800999ED003A61EE833A86EE31
:10BAC000234AB4EEC54AF1EE10FA01F12486DFED07
:10BAD000D14AB4EEE44AF1EE10FAD2BF81ED244A25
:10BAE000C1ED244AB0EE644A91ED0E8ACA48F3EEE5
:10BAF000008A28EE289AF6EE009ABDEEC9AAF8EE62
:10BB0000CAAA1AEE105A39EE6ABAAD0005F1040855
:10BB1000B4EEE9BA00EB080A00EB050BF1EE10FAFF
:10BB2000DAED00BA9BED00CA41F1E1857BEECCCAAB
:10BB3000B0EE00DA6CEE8BDAADEE8DCA4FF0000A93
:10BB40009FEDAFEADFEDAFEA3CEE0EFAFDEECFFA85
:10BB5000B8EEEF7A1FEE909A7FEE477A0EEB890BE4
:10BB600027EEAE6ADBED005ABDEEC65A15EE109A0E
:10BB700007EB890B9BED000A65EE806AC4EE260A8E
:10BB8000F5EEC00AF1EE10FA01F1CB859FEDA11A96
:10BB9000F4EEC10AF1EE10FAC8BFF0EE410AC1EDB1
:10BBA000260AF6EE001AB4EEE1BA00EB050A00EB45
:10BBB0000809F1EE10FA9AED123A99ED122AD1ED38
:10BBC000242A41F19C8572EE433AB0EE004A63EEBE
:10BBD0008B4AA4EE843A4FF0000A9FED898ADFED8C
:10BBE000898A33EE089AFDEEC99AB8EEE9AA19EEF1
:10BBF00090BA79EE4AAA0EEB8B092AEEA8CAD9EDC3
:10BC000000BAFDEECCCA1CEE90BA07EB8B0999ED99
:10BC100000DA6BEE8DDA82EEADEAB5EEC0EAF1EE57
:10BC200010FA01F17485DFED7BEAB4EEEEEAF1EE95
:10BC300010FAC8BFB0EE6EEA81ED28EAB6EE00FA5F
:10BC4000B4EECFBA0544F1EE10FA4044D5ED24FA33
:10BC500090ED247A41F14F8577EE6F7AF0EE005A3D
:10BC600027EE8BBAEBEE25FA00209FED655A9FED8B
:10BC7000656A3FEE850AFDEEC06AF8EEE60A16EE4A
:10BC8000905A30EE601A0EEB850E21EE062ADEED9C
:10BC9000001ABDEEC23A13EE105A07EB8507D7ED36
:10BCA000003A21EEA34AC2EE842AF5EEC02AF1EE54
:10BCB00010FA01F12885DFED574AF4EEE42AF1EE9F
:10BCC00010FAC8BFF0EE642AC1ED2A2ADCF86472CB
:10BCD0000025E24603EB45000AEB800898ED248A34
:10BCE0009FED569ADFED538ADFED539A9FED4B1A85
:10BCF000DFED4B1AB7EE00AACAEE08AA0AEB020B58
:10BD00000AEB87014FEA850C0CEB05074FEAC70EDB
:10BD1000D0180EEB800909F5C8775744DBED10BA4F
:10BD200091ED12CACAEE2BCA2AEEAADAB0EE49EA9F
:10BD3000ADEE28EAF0EE69FAEDEE0EFAB0EE4A5AF0
:10BD40002AEEAFBAF0EE00DAABEE2C5AF0EE4AEA89
:10BD5000B0EE456AABEE0B6AEAEEADEA8AEE060A91
:10BD60006EEE8C7AC7ED01CAF5EEC07AF1EE10FAEC
:10BD700087ED00BA87ED020A3DD4F4EECA7AF1EEFF
:10BD800010FA41F35784AC444FEACC0C13440CEB4B
:10BD9000830303F1F0015144224AC1ED001A81ED01
:10BDA000021A4A6098ED242A9FED1F3A9BED0A0A79
:10BDB000C2EE030A17F0C8F90135042D88ED2C0AEC
:10BDC0003ED0DAF864321F469A0083E7BCF8802040
:10BDD000DCF86432002A3FF448AEBCF98210002936
:10BDE0007FF443AED3F1010338BF0023CCF86432B3
:10BDF000ACF8822039E6B0EE4A1ADFED051AC2E748
:10BE0000000000430000804370F70208BE9FF44228
:10BE10000000000000007A44D0EC02086C4654395F
:10BE2000F5128A42000020400000FA466CF3020836
:10BE3000CDCCCC3E49265F42DB0F49408FBA214131
:10BE4000BAF87C30D64623B1BAF97E00002801F05A
:10BE50000584DEF86472069706995FED0B7A1FED94
:10BE60000BBA1FED0A5A1FED0C7A0EEB8102D2EDD0
:10BE700016FA09922FEEA76AB7EE000A66EE065A86
:10BE800006F1FF3AA5EE8B5ACDF820A08EED920A6E
:10BE9000A5EE857A66EE076A76EE800ACEED916AA7
:10BEA000E6EEA60A80EE201A8EED931A002E01F01F
:10BEB000BC83DFF82080DDED061AD8F80000DEF83C
:10BEC0000070DEF804A0B8EEE18A04F108087646B6
:10BED00007E000BF680200200000484300000000A7
:10BEE0000598013F48BF07F58047FC06376017D12A
:10BEF00096ED032A96ED074A96ED023AD6ED062A0C
:10BF0000D6ED043AD6ED088A86ED022A92EE233A5F
:10BF1000D4EE282A86ED033A86ED064AC6ED072AB6
:10BF2000D6ED1B9A96ED1DAA5FED15AA5FED15BA29
:10BF3000F94CFA4D9FEDFA9ADFEDFA4A9FEDFACAF5
:10BF4000DFEDFA5ADFEDFA0AF7EE00DA79EEEDFAF4
:10BF50006AEE2A7AF4EEEBFAF1EE10FAF4EEED7AEC
:10BF6000D4BFB0EE6BBAB0EE6DBAF1EE10FA8CBF82
:10BF7000FDEEE7DADFEDEFDAC6ED1BFA1DEE903AE3
:10BF80003B4404FB00FE03F6A47B03F6A57975444D
:10BF900003F6A37CCBF30D00C9F30D010CEE905A10
:10BFA000CCF30D020AEB800405950AEB810594EDB4
:10BFB000006A95ED005A0AEB820E9EED000A76EEBD
:10BFC000456A35EE401AF6EE001A03F6A673B0EE97
:10BFD000662AA1EE212AC3F30D000AEB800B9BED2C
:10BFE000003A069873EE463A36EE824AB0EE6B7A25
:10BFF000A3EEA14A07F6A471C1F30D0288BFF8EEC3
:10C00000EDBA72EE042A88BF77EEEBBAB8EE6CDABE
:10C01000D4EE2B2A0AEB820907F5835C2DEE09EAA0
:10C0200062EEAB8AF0EE00EABFEE00FAAEEE2EFA58
:10C030000CF10D0BCBF30D04E1EE218A0AEB840E1B
:10C0400007F50055AAEE64CA05F10E03C3F30D010E
:10C05000A8EEAB6A0AEB8102099CABEE0F7A0028CE
:10C0600008F10808B7EE009AACEE067A0CBFB0EE05
:10C0700049EAB0EE60EA89ED007AD6ED8F9A96ED46
:10C080008DAAD6ED8CAAD6ED90BAD6ED8E4A18EDD3
:10C0900004CAAAEE697AA9EEEA7A77EE6BCA2CEEA8
:10C0A000A4DAEAEE8D9AEAEEA9BAF0EE69DAF0EED9
:10C0B0006BFAEAEE8DDAEAEEA9FA7CEE2B7AC6ED9F
:10C0C00090FAC6ED8FDACEED007A18ED037A9FED87
:10C0D00097DA37EE2B6AB6EE007A82ED006A94EDBD
:10C0E000160A96ED945AD6ED926A96ED912AD6EDFF
:10C0F000958AD6ED931A96ED964AD6ED989A96EDD6
:10C1000097AA96ED181A39EE403A66EEC52A63EE04
:10C11000255AF0EE45BA65EEA53AB7EE000AEFEE05
:10C12000232A61EE200AE5EE422ABDEEE09A32EEC5
:10C13000E8FA19EE109A6FEE21AA19F10100E2EE69
:10C140002ABA0ABF07F50059D94409F10C09E2EEF1
:10C150002B8AC9F30D050AEB850CF0EE6B4AE4EE71
:10C16000289AF0EE68CAE2EE2A4AE9EECA8AE2EEBE
:10C170002BCA78EE807AC6ED95CAC6ED944AD6ED04
:10C1800024EA96ED14BA96ED2C9AD6ED3F3A96ED48
:10C190003C6AD6ED400AD6ED654AD6ED646A96ED66
:10C1A000681AD6ED341ADFED67CA27EEAE2A64EEC0
:10C1B00028DABDEEC2FAE9EE8ADA62EE0BAA1FEEC9
:10C1C00010EAFDEEEABABE440EF101000EF1FF31B5
:10C1D000C6ED98DAC0F30D02C1F30D05CEF30D00E4
:10C1E0001BEE901ADCED00FADFED518ADFED54DA38
:10C1F00096ED674A0AEB82040AEB800C94ED005A34
:10C20000DCED002A39440AEB8509D9ED009A4A1C75
:10C210004C1E72EEC5EAC2F30D05C4F30D0235EEF5
:10C2200069AA0EF102090AEB820CC1F30D020AEBB6
:10C23000850EC9F30D00B0EE6ECA0AEB820999EDC6
:10C24000003ADEED005A9CED005A069DAAEE07CAA0
:10C250000AEB8004023194ED00BA75EEC59A73EED4
:10C26000655A3EEE8C5A7BEE62EAB0EE65BAA9EEF4
:10C2700087BAC1F30D000AEB800EAEEE875A002D8F
:10C28000C7F30D04DEED00EAB8EECFFA7EEEC3EAA6
:10C2900075EE8B5A32EE4F2AEEEE875A0AEB840582
:10C2A00007953CEE05CAF8EEEBBA92EE05CA7AEEB7
:10C2B000EBAA3BEE255A22EE0CFA9AEEA55AAAEE0C
:10C2C00007FA2AEE85AAB0EE68BAE2EE0F2AA9EEC6
:10C2D00087AAAEEE2FBA29EE2DEAAAEE8A3AAEEE82
:10C2E00022BA69EE0DFA96ED3DDAD6ED3E2A9FEDC3
:10C2F00014EAAFEE83BA18BFB0EE680AADEE63BAC7
:10C30000F0EE61EAA3EEC6BAB3EE0B9A7BEE608A5A
:10C31000F2EE02DA18E000BF0D6619005FF36E3C22
:10C320000000802FCDCCCC3E9A99193F9A99993E26
:10C330000000000001000000000000009A99993EF2
:10C340003333333F0AD7A33928EEA23AE6EE033A55
:10C35000E6EE230AF0EE639AF0EE605AE4EEC45A79
:10C36000E6EE230AE4EE665AE6EE039A75EEC13A6B
:10C3700096ED666AC6ED400A63EE860AC6ED3F9A00
:10C38000A6EEA04AD4EE84EAA6EE841AEEEEAC1A2B
:10C39000A6EE841AF0EE61CAD4EE84CAA6EEA04AD4
:10C3A0006CEE874AF0EE496A86ED681AE4EEA46AFC
:10C3B00024EEAD1A24EEA67AA4EE819A86ED674AA1
:10C3C00087EE094AC6ED341A74EE041AB6EE007A06
:10C3D000C5ED001A96ED212A96ED18CA96ED26FABB
:10C3E000D6ED14AA96ED466AD6ED6E6AD6ED6F4A82
:10C3F000D6ED2E9AD6ED493A96ED714A96ED47DA8A
:10C40000D6ED4A0A96ED721AD6ED361A1FED369A17
:10C410005FED36DA5FED35CA62EE0CBA27EE8F2A91
:10C42000BDEEEB5AFDEEC2EA15EE10CA1CF1010595
:10C4300008BF07F5005C62EE2AAA1EEE900A14BF40
:10C44000DC440CF10C0C3844CCF30D02FDEEEABADE
:10C450000AEB820900F57A72C2F30D0C1BEE902AEA
:10C4600000F2E93100F2EA3E3A44C1F30D05CEF3A1
:10C470000D04D9ED00FA0AEB840E0AEB850902F2ED
:10C48000E935D9ED002A9EED00AA0AEB8C01C5F32F
:10C490000D0491ED00BA0AEB840902F2EA3102F5CB
:10C4A0007A7432EECA5AC1F30D0CC4F30D017AEE60
:10C4B0004B8A0AEB8C0E00F2EB300AEB810C99ED03
:10C4C000003ADEED005A9CED00FAC0F30D05B0EE27
:10C4D00045CAA8EE87CA0AEB850002F2EB3235EEB8
:10C4E000CFAA90ED00BA73EE655A3BEE62FA07F2FE
:10C4F000E934B0EE65BAAAEE07BAC2F30D05C4F38B
:10C500000D0135EE0C5A0AEB81000AEB8509049007
:10C51000AFEE075A069A99ED00FAF8EEEEEA3FEE12
:10C5200043FA75EE8B5A32EE6E2AEFEE075A002A66
:10C530003CEE05CAF8EEEBBA92EE05CA7AEEEBAA2B
:10C540003BEE255A62EE0CEA9AEEA55AE8EE87EA2F
:10C550006AEE858AB0EE49BAE2EE2E2AEAEE078A42
:10C56000A0EE2FBA29EE8E0AAAEEA83AA0EE22BAC1
:10C5700069EEADFAD6ED482A1FED910AAFEE83BA07
:10C58000B0EE61FAADEE63BAF3EE0B9AA3EEC6BA63
:10C59000B2EE02EA3BEE60DAF7EE00DA2DEE223A76
:10C5A00008BFB0EE6D9AE6EE033A5FED9CDAE6EE78
:10C5B000230AB0EE63AAF0EE605AE4EEC45AE6EE47
:10C5C000230AE4EE665AA6EE03AA75EEC13A96ED8A
:10C5D000706AC6ED4A0A63EE860A86ED49AAA6EE9F
:10C5E000A04A94EE84FAA6EE841AEFEE2C1AA6EE78
:10C5F000841AF0EE61CAD4EE84CAA6EEA04A6CEEAC
:10C60000874AF0EE696A86ED721AE4EEA46A24EEB7
:10C610008E1A24EEA67AE4EE819A86ED714A87EEB0
:10C62000294AC6ED361A74EE041AB6EE007AC0ED49
:10C63000001A96ED222A96ED18CAD6ED28EAD6ED14
:10C6400014AAD6ED308A1FEDC2EAD6ED533A96ED24
:10C6500051DA96ED506AD6ED540AD6ED794A96ED48
:10C660007B4AD6ED786A96ED7C1AD6ED381A5FEDE6
:10C67000CBCA62EE0CBA27EEAE2ABDEEEB5AFDEE47
:10C68000C2EA15EE10EA1EEE909A62EE2AAA1EF198
:10C690000104B94408BF07F5005E09F2D374FDEE4A
:10C6A000EABA14BFDE440EF10C0EC4F30D02CEF351
:10C6B0000D0509F2D2710AEB82041BEE902A0AEBF7
:10C6C000850CC1F30D0009F2D175DCED00FA94ED93
:10C6D00000BA3A44C5F30D0E0AEB800CDCED002ADB
:10C6E0000AEB8E0102F2D270D1ED009AC0F30D0474
:10C6F00032EECBFA02F2D3750AEB840E02F2D17459
:10C700003BEE69AAC5F30D01C4F30D050AEB810CDC
:10C7100009F2D4790AEB8501B0EE4FCA9EED003ADA
:10C72000DCED005A91ED005AAAEE07CAC9F30D00DC
:10C730000AEB800975EEC59A99ED00BA73EE655A59
:10C740003FEE0C5A02F2D4723BEE62FAB0EE65BADA
:10C75000A9EE87BAC2F30D000AEB800EAFEE075ABE
:10C7600007F2D274C4F30D059EED00FA069A3FEE6F
:10C7700043FAF8EEEEEA75EE8B5A32EE6E2AEFEEE1
:10C78000075A0AEB850102913CEE05CAF8EEEBBAB6
:10C7900092EE05CA002A7AEEEBAA3BEE255A62EE2B
:10C7A0000CEA9AEEA55AEAEE07EA2AEE85AAB0EE5E
:10C7B00040BAE2EE2E2AA9EE87AAA9EE2FBA28EEF9
:10C7C0008E9AAAEE8A3AA9EE22BA68EEADFAD6EDB2
:10C7D000522AAFEE83BAB0EE61FAADEE63BAF3EE71
:10C7E0000B8AA3EEC6BAB2EE02EA3BEE60DAF7EECF
:10C7F00000DA2DEE223A08BFB0EE6D0AE6EE033AFB
:10C80000DFEDFDDAE6EE230AF0EE639AF0EE605A11
:10C81000E4EEC45AE6EE230AE4EE665AC6ED540A84
:10C82000E6EE039A75EEC13A96ED7A6AC6ED539A32
:10C8300063EE860AA6EEA04A94EE84FAA6EE841A67
:10C84000EFEE2C1AA6EE841AF0EE61CAD4EE84CA7A
:10C85000A6EEA04A6CEE874AF0EE686A86ED7C1A76
:10C86000E4EEA46A24EE8E1A24EEA67AE4EE818A1F
:10C8700086ED7B4A87EE284AC6ED381A74EE041A14
:10C88000B6EE007AC1ED001A96ED232A96ED18CA8D
:10C89000D6ED2AEAD6ED14AADFEDD91A96ED329A32
:10C8A0009FEDD8EAD6ED5D3A96ED5BDA96ED5A6AE1
:10C8B000D6ED5E8AD6ED834A96ED854AD6ED826A3C
:10C8C000D6ED860A96ED3A1ADFEDCCCA62EE0CBAC6
:10C8D00027EEAE2ABDEEEB5AFDEEC2EA15EE10CA07
:10C8E00062EE2AAA1EEE909A1CF10100B944FDEEF8
:10C8F000EABA08BF07F5005B09F6BB3E14BFE34484
:10C900000BF10C0B09F6BC35CEF30D041BEE90EACF
:10C91000C5F30D0109F6BA32CBF30D00BE440AEBA4
:10C92000800BC2F30D050AEB840C0AEB8100DBEDF2
:10C9300000FADCED002A90ED00BA0AEB850B0EF64A
:10C94000BB349BED00AAC4F30D0232EECBFA0EF617
:10C95000BC310AEB82050EF6BA323BEE4AAAC1F3AD
:10C960000D00C2F30D010AEB800C0AEB810B09F6F6
:10C97000BD39B0EE4FCA95ED003ADCED005ADBED63
:10C98000009AAAEE07CAC9F30D040AEB840090EDE1
:10C9900000BA75EEE99A73EE655A0EF6BD353FEEB4
:10C9A0000C5A3BEE62FAB0EE65BAA9EE87BAC5F34F
:10C9B0000D040AEB840EAFEE075A07F6BB32C2F342
:10C9C0000D099EED00FAF8EEEEEA3FEE43FA75EE41
:10C9D0008B5A32EE6E2AEFEE075A0AEB890101916B
:10C9E0003CEE05CAF8EEEBBA92EE05CA7AEEEBAA77
:10C9F0003BEE255A62EE0CEA9AEEA55AEAEE07EAF9
:10CA00002AEE85AAB0EE61BAE2EE2E2AA9EE87AA36
:10CA1000A0EE2FBA29EE0E0AAAEE8A3AA0EE22BAAA
:10CA200069EE2DFAF0EE415AAFEE83BAB3EE0BEA9F
:10CA3000ADEE63BA96ED5CDA9FED70CAA3EEC6BAAE
:10CA4000B2EE029A7BEE68DA6DEE8D2ADFED6ADADD
:10CA5000E6EE223AE6EE238AB0EE633AF0EE689A0A
:10CA6000E4EEC49AE6EE238AE4EE669AA6EE223A53
:10CA700079EEE03A96ED846AC6ED5E8A63EE868AC8
:10CA800086ED5D3AA6EEA84AD4EE845AE6EE840A14
:10CA9000A5EEAC1AE6EE840AF0EE41CAD4EE84CAE2
:10CAA000A6EEA84A6CEE874AF0EE4E6AC6ED860AFC
:10CAB000E4EEA46A64EE890A24EEA67AA4EEA0EA63
:10CAC00086ED854A87EE0E4A86ED3A1A34EE041A50
:10CAD000F6EE006A81ED001A96ED18FAD6ED25BA49
:10CAE00096ED155A9FED467AD6ED2D8A9FED45EAD3
:10CAF00096ED443A96ED42DAD6ED415A96ED450A66
:10CB0000D6ED43CA96ED6A4AD6ED6C3A96ED696A5F
:10CB1000D6ED6D0A96ED351A6FEE211ABDEEE12ABB
:10CB200067EEAB1A12EE10CAFDEEE1EA21EE85AA1D
:10CB30001EEE90EA1CF1010508BF07F53E5CBE44FD
:10CB4000BDEECABA18BF9C440EF53E5508BF0CF1A5
:10CB50002D0C0EF53E59CCF30D0005F12F0405F117
:10CB6000300109F12E051BEE109A0AEB800BC4F37D
:10CB70000D0CC1F30D00DBED00FAB944C5F30D0B4C
:10CB80000AEB8C040AEB800194ED002AD1ED00AA97
:10CB90000AEB8B0209F53E5509F53E5C09F53E515D
:10CBA00092ED009A05F12F000CF1300B01F12E05EA
:10CBB00072EE6A4AC0F30D02CBF30D04C5F30D000B
:10CBC0000EF53E5E7AEEC99A0EF1310C0AEB820B3D
:10CBD0000AEB840E0AEB8004DBED002A9EED005A7E
:10CBE000D4ED00AAF0EE64BAE9EEA6BACCF30D02D9
:10CBF0000AEB82010AE000BF9A99993E0AD7A3394D
:10CC0000000000003333333F9A99993E35EE6A9A1B
:10CC100032EEC55A91ED00FA09F53E5909F1310598
:10CC2000F0EE45AAE9EE26AAC5F30D000AEB800C4A
:10CC30003FEE42FA74EEAB4AF8EEEEEAEFEE264A29
:10CC400007F53E5B0BF12F049CED00FA35EE2A5AF6
:10CC50003FEE62FA71EEEE1AAFEE265AC4F30D0201
:10CC60000AEB82017BEEA4BAB8EECBBAD1EEA4BA3D
:10CC700003913AEE4BAA7AEE854A61EEABEADAEE20
:10CC8000054AE9EEA6EA6AEE249AA1EEAE2AE9EE9A
:10CC9000269AAFEE887A68EE8EFAEAEE292AAFEE8F
:10CCA000827A68EEAD8AB3EE0BEAA8EEA27AF0EED5
:10CCB000412AADEE437AF2EE02DAA3EE657A37EE60
:10CCC000407A27EE2CDA1FED327AA5EE8D3AA5EEEA
:10CCD000830AF0EE43CAB0EE402AA4EE632AA5EE22
:10CCE000830AA3EEC62AE5EE8DCA32EE603AD6ED8F
:10CCF0006B5A86ED450A23EE250AC6ED44CAE6EED8
:10CD0000003AD4EE232AE6EE230AA2EE8C1AE6EECF
:10CD1000230AB0EE41CA94EE23CAC6ED6D0A2CEE8A
:10CD2000264AF0EE4E0AE6EE003AE4EE040A24EE5D
:10CD30002D6A64EE206AA4EE06EAC6ED6C3AC6EEF1
:10CD40008E3A86ED351A33EEA31AF6EE006A81EDBF
:10CD5000001A96ED219AD6ED18AAD6ED271AD6ED2F
:10CD600015BAD6ED2F8A1FED59EA5FED59DA96ED27
:10CD70004E3A96ED4CDAD6ED4B5A96ED4F0AD6ED7B
:10CD80004DCA96ED744AD6ED763A96ED736AD6EDB5
:10CD9000770A96ED371A1FED67CA29EE2A5A67EE11
:10CDA000A11ABDEEC5FAFDEEE1EA1FEE10EA21EE92
:10CDB000ABAA1EF101041EEE90CA0ABF07F53E5E43
:10CDC0009E440EF12D0EBC44BDEECABA0CF54E5B6E
:10CDD000CEF30D050CF54E520AEB85090BF1180444
:10CDE0000BF1190102F117051BEE102AD9ED00FA1B
:10CDF000C4F30D0EC1F30D093A44C5F30D010AEB5E
:10CE00008E0B0AEB89009BED002AD0ED002A0AEB7D
:10CE1000810402F54E5502F54E5ED4ED009A05F1FF
:10CE200018000EF1190902F54E5172EE624AC0F374
:10CE30000D0BC9F30D0401F117050CF54E5C72EEF4
:10CE4000E99AC5F30D000CF11A0E0AEB8B090AEBF7
:10CE5000840CD9ED002ADCED00AA0AEB800BF0EE81
:10CE600064BA9BED009AE9EEA6BACEF30D040AEB84
:10CE7000840132EEEA5A91ED00FA3AEEC99A02F5CF
:10CE80004E5202F11A05F0EE45AAE9EE26AAC5F3C4
:10CE90000D000AEB800E3FEE42FA74EEAB4AF8EE5C
:10CEA000EEEAEFEE264A07F54E5909F118049EED19
:10CEB00000FA35EE2A5A3FEE62FA71EEEE1AAFEE44
:10CEC000265AC4F30D010AEB810B7BEEA4BAB8EE2F
:10CED000CBBAD1EEA4BA3AEE4BAA7AEE854A61EE0D
:10CEE000ABEADAEE054AE9EEA6EA6AEE249AA1EE8A
:10CEF000AE2AE9EE269AAFEE887A68EE8EFAEAEE6E
:10CF0000292AAFEE827A68EEAD8AB3EE0BEAA8EE7C
:10CF1000A27AF0EE412AADEE437AF2EE02DAA3EE07
:10CF2000657A37EE407A27EE2CDA1FEDCB7AA5EE44
:10CF30008D3AA5EE830AF0EE43CAB0EE402AA4EE85
:10CF4000632AA5EE830AA3EEC62AE5EE8DCA32EE69
:10CF5000603AD6ED755A86ED4F0A23EE250AC6EDE6
:10CF60004ECAE6EE003AD4EE232AE6EE230AA2EEFB
:10CF70008C1AE6EE230AB0EE41CA94EE23CAC6ED3F
:10CF8000770A2CEE264AF0EE4E0AE6EE003AE4EE80
:10CF9000040A24EE2D6A64EE206AA4EE06EAC6EDC9
:10CFA000763AC6EE8E3A86ED371A33EEA31AF6EECF
:10CFB000006A8BED001A96ED229AD6ED18AAD6EDEE
:10CFC000291AD6ED15BAD6ED318A1FEDF2EA5FEDDA
:10CFD000F2DA96ED583A96ED56DAD6ED555A96EDC8
:10CFE000590AD6ED57CA96ED7E4AD6ED803A96EDAF
:10CFF0007D6AD6ED810A96ED391A9FEDFBCA29EEBE
:10D000002A5A67EEA11ABDEEC5FAFDEEE1EA1FEE5F
:10D0100010CA1EEE90EA1CF1010021EEABAABE443C
:10D0200008BF07F53E5C0EF55E5014BF9C440CF142
:10D030002D0C811CBDEECABACCF30D02C1F30D0C50
:10D040000AEB8205441C0AEB8C011BEE10CAD5EDDD
:10D0500000FAD1ED002AC4F30D050EF55E52BC4472
:10D06000C2F30D090AEB850090ED002A0AEB890452
:10D070000CF55E550CF55E59D4ED009A09F10200ED
:10D080006A1C72EE624AC0F30D04C2F30D050CF582
:10D090005E5072EEE99A0AEB85020AEB84090EF5FE
:10D0A0005E5EC0F30D04D2ED002AD9ED00AA0EF1A8
:10D0B0000301F0EE64BA0AEB840EE9EEA6BAC1F3FE
:10D0C0000D050AEB85019EED009A91ED00FA32EE16
:10D0D000EA5A3AEEC99A0CF55E5C0CF10302F0EEE6
:10D0E00045AAE9EE26AAC2F30D050AEB85003FEE3C
:10D0F00042FA74EEAB4AF8EEEEEAEFEE264A07F596
:10D100005E5909F1010490ED00FA35EE2A5A3FEE1E
:10D1100062FA71EEEE1AAFEE265AC4F30D010AEB75
:10D1200081097BEEA4BAB8EECBBAD1EEA4BA3AEE3E
:10D130004BAA7AEE854A61EEABEADAEE054AE9EEF1
:10D14000A6EA6AEE249AA1EEAE2AE9EE269AAFEE9E
:10D15000887A68EE8EFAEAEE292AAFEE827A68EED5
:10D16000AD8AB3EE0BEAA8EEA27AF0EE412AADEE5C
:10D17000437AF2EE02DAA3EE657AF6EE008A37EE33
:10D18000407A9FED9AAA27EE2CDAA5EE8D3AA5EE0D
:10D19000830AF0EE43CAB0EE402AA4EE632AA5EE5D
:10D1A000830AA3EEC62A86ED590AE5EE8DCA96EDEE
:10D1B0007F3AC6ED58CA72EE605ADFED8DCA25EE91
:10D1C000830AE6EE003AD4EE232AE6EE230AA2EE24
:10D1D0008C1AE6EE230AB0EE41CA94EE23CAC6EDDD
:10D1E000810A2CEE264AF0EE4E0AE6EE003AE4EE14
:10D1F000040A24EE2D6A64EE206AA4EE06EAC6ED67
:10D20000803AC6EE8E3A86ED391A33EEA31ADFED78
:10D21000760A89ED001A96ED239AD6ED18AAD6ED76
:10D220002BEAD6ED159A96ED624A96ED60CA96ED18
:10D230005F6A96ED63BAD6ED61BAD6ED884A96ED8F
:10D240008A7AD6ED876A96ED8B1A96ED890AD6ED25
:10D250003B1A29EE2A5A67EEAE7ABDEEC5FAFDEE0C
:10D26000E7FA1FEE10EA1FEE902A1EF1010108BF37
:10D2700007F53E5327EEA9EA14BF73442D333A4411
:10D2800002F56D55FDEECEEAC3F30D030AEB830CF8
:10D2900005F129039CED00DA96ED339ADFED55AAEE
:10D2A00005F12B01C3F30D0C05F12A001EEE903A97
:10D2B000C0F30D05C1F30D040AEB850E0AEB8400E3
:10D2C0003B449EED003A90ED002A03F56D550AEBC4
:10D2D0008C01D1ED00DA05F12B0005F1290105F1F2
:10D2E0002A0433EE425AC4F30D05C0F30D0CC1F30A
:10D2F0000D0E02F56D5272EE6DDA0AEB85040AEB43
:10D300008C000AEB8E012C32D4ED003AD0ED005A9D
:10D3100091ED00FAC2F30D05F0EE452AEDEEA82AD4
:10D320000AEB850C03F56D5375EECF9A9CED002A40
:10D3300073EEE55A32EE43FA03F12C02B0EE652AA1
:10D34000A9EEA82AC2F30D040AEB840E35EE225A88
:10D35000F8EEEFFAAFEE285A089B9EED00FA75EE54
:10D36000825A3FEE63FA77EEEF7AEFEE285A5A1EB2
:10D37000089272EE852AF8EEEEEAD7EE852A07F5D6
:10D380006D5000F12A013EEE6EEA32EE252A27EEBC
:10D39000A25A9EEE252AC1F30D050AEB850CADEECF
:10D3A000A85A6EEE02DAF0EE4AFAA7EE853AE9EEF6
:10D3B000A8DAEDEE08FA29EE2CDAEEEE2D3AEDEED3
:10D3C00003FA29EE2A9AB0EE443AE9EE23FAF0EE97
:10D3D000617AECEE44FAF3EE0BCAE4EE46FAB0EEF4
:10D3E0004B4A3FEECBCA07E00AD7A3390000000042
:10D3F0003333333F9A99993EF2EE02AA6CEE2BBA80
:10D40000F7EE009AA6EE2B3AB0EE699AA6EE034A22
:10D41000B0EE43BAF0EE443AE4EEC73AA6EE034A61
:10D42000E7EE663AA6EE2BBA33EEC16A86ED634AA2
:10D4300026EE000A86ED62BAA6EE807AB0EE69BAF0
:10D44000D4EE877AA6EE871AE7EEA01AA6EE871A20
:10D45000F0EE610AD4EE870AA6EE807A60EEA84A62
:10D46000F0EE6C6A64EEAA5AE4EEA46AE4EEA5CA91
:10D4700064EEA62A86ED8A7A82EEAC7A86ED8B1A65
:10D4800077EE07FAC6ED3B1ACCED00FA96ED112ABD
:10D4900096ED1A5A96ED19DAD6ED10EACDF800C0DD
:10D4A000A2EE28BA79EEC5BA1BEE100AFAF7D4FF3D
:10D4B00004461DEE100A0D46FAF7CEFF00229B4BE4
:10D4C000FBF71EF8AEEEA89A0022984BFAF766FE1C
:10D4D000B5EE00FA79EECDCA02460B4629EE0FCA28
:10D4E00020462946FBF70CF8FBF71CFA6CEE2C7A69
:10D4F0000799049B91ED003A93ED004A029A019C32
:10D50000D2ED003A94ED000A039D9BED001A95EDD3
:10D51000006AD9ED000A0499029B019A039CF0EE7F
:10D520004FAAEDEE0FAA67EEAB4A29EE2AEA24EEE7
:10D5300083DA6BEE8EEAAFEE8ADA6CEE8F1AAEEE1D
:10D5400084DA69EE216A6AEE8B2A6BEEA65A6BEEDC
:10D550000FDAA5EEA3DA2CEEADEAAEEE80DA07EE36
:10D56000100AA2EE86DA0798B0EE693AAEEE01DA5A
:10D57000B0EE4F4AA7EE20DAAEEE2FDA08ED04DA6D
:10D5800096ED195AD6ED10FA90ED009AD1ED00AA59
:10D5900096ED11BAD3ED00BA92ED002AD6ED1ACA73
:10D5A000D4ED00DADBED00EA99ED00EADDF800B039
:10D5B000AFEEA83AA5EE0F4A79EEC53A23EE040A7B
:10D5C00023EE0F6A20EE091A66EE230AADEE0A1A60
:10D5D000B0EE69AAA0EEAA1AABEE28AAA0EE2B1A0A
:10D5E0006AEE0F8A79EEEC9A23EEA8FAA0EE821A80
:10D5F0006FEE291A64EE0A7AA1EEAD1A69EEA74A17
:10D600009BED00CAA4EEAE1AA1EE8E1AA4EE8C1AFF
:10D6100008ED031ADDF82090B9F1FF3F7EF460AC0D
:10D62000DFF81CA1059ECAF800600BB0BDEC108BA2
:10D63000BDE8F08F67EEA75AF0EE046AA5EEA89A4F
:10D64000F0EE4A0AE5EE899A67EEA91AE1EEA60A1B
:10D65000E1EEA10A8AEE201AFEF795BBDFF8E0A002
:10D66000334FAEF87E30DAF800303249DEF86452DB
:10D67000069507FB03FB88460A46594407FB01F958
:10D68000C84407FB08FC624402EE902A04EE908A2C
:10D6900009EE901A0698DFED283A9EED1E4A9FED9E
:10D6A000278ACAF80020F8EE628AB8EE649AB8EECB
:10D6B00069AA0EEB8007D7ED24BA68EEA3AA34EE70
:10D6C00004CA69EE23CA2AEE23DA6AEE88DA2BEE60
:10D6D0008CEA6CEE88EA2DEE08FACEED23DA8EEDB8
:10D6E0001BEACEED22EA8EED21FAFEF7B5BBB0EED5
:10D6F0006BCAFEF723BAF0EE47FAFEF7B5BAB0EE02
:10D70000423AFEF768BAC1F8A800FEF7DFBAC1F8DE
:10D71000A0A0FEF793BAB0EE454A81ED245AFEF779
:10D72000E3B9C1F898A0FEF73CBA00BF0000D03FB3
:10D730000D6619005FF36E3C0000802F00F0794504
:10D7400068020020D0ED127A9FEDB97A27EEA70A81
:10D750002DE9F04F60EE006A2DED108B66EE800A29
:10D7600083B080EE871A044690460D4690ED0C8AF1
:10D7700090ED149AD0ED158A90ED16AAD0ED179A77
:10D7800011EE100AFAF768FED4ED1E1A94ED1D2A68
:10D7900071EEC22A0646B0EEE23A13EE100A0F46C8
:10D7A000FAF75AFE02460B460020A249FAF7D2FFCA
:10D7B00032463B46FAF7A4FEFBF7B4F894ED224A52
:10D7C000D4ED23CA03EE900AB7EE00DA7CEEC44A29
:10D7D000F4EECD3AF1EE10FAC8BFF0EE4D3AB0EEED
:10D7E000E45AC4ED1C3A15EE100AFAF735FE02466B
:10D7F0000B4600208F49FAF7ADFF32463B46FAF759
:10D800007FFEFBF78FF894ED276AD4ED28BA05EE7A
:10D81000900A7BEEC6AAF4EECD5AF1EE10FAC8BF1C
:10D82000F0EE4D5AB0EEEABAC4ED215A1BEE100AE2
:10D83000FAF712FE02460B4600207E49FAF78AFFED
:10D8400032463B46FAF75CFEFBF76CF8D4ED2CDA77
:10D85000D4ED2DAA0CEE100A3AEEEDEAB4EECDCAE4
:10D86000F1EE10FAC8BFB0EE4DCAF0EECEEA84ED8C
:10D8700026CA1EEE900AFAF7EFFD02460B4600207C
:10D880006C49FAF767FF32463B46FAF739FEFBF779
:10D8900049F8D4ED31FA94ED32BA0FEE100A7BEE6E
:10D8A0006F7AB4EECDFAB0EEE77AF1EE10FA17EE39
:10D8B000100AC8BFB0EE4DFA84ED2BFAFAF7CCFD92
:10D8C00002460B4600205B49FAF744FF32463B46CE
:10D8D000FAF716FEFBF726F8D4ED366A94ED37CA50
:10D8E00000EE100A7CEE660AB4EECD0AF1EE10FAF4
:10D8F000C8BFB0EE4D0AB0EEE01A84ED300A11EE6A
:10D90000100AFAF7A9FD02460B4600204949FAF72A
:10D9100021FF32463B46FAF7F3FDFBF703F894ED9F
:10D920003B2AD4ED3CFA01EE900A7FEEC22AF4EED7
:10D93000CD1AF1EE10FAC8BFF0EE4D1AB0EEE23A91
:10D94000C4ED351A13EE100AFAF786FD02460B46AF
:10D9500000203849FAF7FEFE32463B46FAF7D0FD82
:10D96000FAF7E0FF94ED414AD4ED404A03EE900A05
:10D9700034EE645AF4EECD3AF1EE10FAC8BFF0EE90
:10D980004D3AF0EEC55AC4ED3A3A15EE900AFAF760
:10D9900063FD02460B4600202649FAF7DBFE3246BD
:10D9A0003B46FAF7ADFDFAF7BDFFD4ED46DA94ED4C
:10D9B00045EA06EE100A7DEECEEAB4EECD6AF1EE4F
:10D9C00010FAC8BFB0EE4D6AB0EEEEFA84ED3F6AD1
:10D9D0001FEE100AFAF740FD02460B4600201549DB
:10D9E000FAF7B8FE3B463246FAF78AFDFAF79AFF95
:10D9F00007EE900AF4EECD7AF1EE10FAD8BFB0EE51
:10DA000067DA08F1FF3384ED44DA0193B8F1000FCF
:10DA100001F00984084F094894E80C00006805F1FA
:10DA2000080107F10409B1EE486A01F0F2B900BF3C
:10DA3000000048430000F03F7C3D020868020020DF
:10DA4000000080430000E042000000380000004772
:10DA50000000214371EEEC6AF0EE6C1AE5EEA61AB6
:10DA6000F0EE610A2846B0EE601AC4ED230A1FEDFD
:10DA70000CFAD4ED115A67EE8FDA31EE6CEABDEE96
:10DA8000ED3AF7EE000A13EE105A4FEA850B07EB5A
:10DA90000B0CCB449CED00DA9BED002AF8EEC37A28
:10DAA00072EE4D4A7DEEE72AA2EEA4DAEDEE0ECA42
:10DAB000E5EEACEAF4EEE0EAF1EE10FA01F15083A3
:10DAC0005FED20CAF4EEECEAF1EE10FA01F31A83EE
:10DAD000FDEEEE6AF8EEE61A16EE90AA7EEEE1EAA8
