:020000040800F2
:1000000000000220ED310008C1050008C505000808
:10001000C9050008CD050008D10500080000000052
:10002000000000000000000000000000D5050008EE
:10003000D905000800000000DD050008D106000811
:1000400039320008393200083932000839320008E4
:1000500039320008393200083932000839320008D4
:1000600039320008393200083932000839320008C4
:1000700039320008393200083D17000839320008CB
:1000800039320008393200083932000839320008A4
:100090003932000839320008393200083932000894
:1000A0003932000839320008393200083932000884
:1000B0003932000839320008393200083932000874
:1000C0003932000839320008393200083932000864
:1000D0003932000839320008393200083932000854
:1000E0003932000839320008393200083932000844
:1000F0003932000839320008393200083932000834
:100100003932000839320008393200083932000823
:100110003932000839320008393200083932000813
:100120003932000839320008393200083932000803
:1001300039320008393200083932000839320008F3
:1001400039320008393200083932000839320008E3
:1001500039320008393200083932000839320008D3
:1001600039320008393200083932000839320008C3
:1001700039320008393200083932000839320008B3
:100180003932000839320008000000000000000089
:10019000844641EA000313F003036DD1403A41D392
:1001A00051F8043B40F8043B51F8043B40F8043B51
:1001B00051F8043B40F8043B51F8043B40F8043B41
:1001C00051F8043B40F8043B51F8043B40F8043B31
:1001D00051F8043B40F8043B51F8043B40F8043B21
:1001E00051F8043B40F8043B51F8043B40F8043B11
:1001F00051F8043B40F8043B51F8043B40F8043B01
:1002000051F8043B40F8043B51F8043B40F8043BF0
:1002100051F8043B40F8043B51F8043B40F8043BE0
:10022000403ABDD2303211D351F8043B40F8043B80
:1002300051F8043B40F8043B51F8043B40F8043BC0
:1002400051F8043B40F8043B103AEDD20C3205D390
:1002500051F8043B40F8043B043AF9D2043208D088
:10026000D2071CBF11F8013B00F8013B01D30B88FA
:1002700003806046704700BF082A13D38B078DD0D8
:1002800010F003038AD0C3F10403D21ADB071CBFAA
:1002900011F8013B00F8013B80D331F8023B20F814
:1002A000023B7BE7043AD9D3013A11F8013B00F84D
:1002B000013BF9D20B7803704B7843708B788370D5
:1002C000604670472DE9F00F82B002F1FF380191CE
:1002D000002A00F02A8130F9044BDFF8E09230F96F
:1002E000025CD9F80460D9F80010D9F80830D9F8C0
:1002F0000C20002CB8BF6442002DB8BF6D42C6EB85
:10030000050AC1EB040BBBF1000FD4BF17461F4613
:10031000BAF1000FD4BF14461C4604FB0AFC07FBCD
:100320000BFA06EBEC3501EBEA3408F00107011D8E
:1003300008F1FF36B8F1000F66D0F7B131F904BC0F
:1003400031F902ACBBF1000FB8BFCBF1000BBAF131
:10035000000FB8BFCAF1000AC4EB0B0CC5EB0A07CB
:10036000BCF1000FD4BF93469B46013E0BFB0CFC37
:10037000002FD4BF92469A463CE031F9047C31F913
:1003800002AC31F904CB002FB8BF7F42C4EB070B9E
:10039000BAF1000FB8BFCAF1000AC5EB0A0ABBF1F7
:1003A000000FD4BF17461F4607FB0BFBBAF1000F27
:1003B000D4BF17461F4607FB0AFA31F9027C04EB4B
:1003C000EB34BCF1000FB8BFCCF1000C05EBEA3503
:1003D000C4EB0C0C002FB8BF7F427F1BBCF1000F99
:1003E000D4BF93469B46002FD4BF92469A46023E06
:1003F0000BFB0CFC0AFB07F705EBE735771C04EB5E
:10040000EC3401F10401B8D16A4E019B3268C9F89D
:100410000040C9F8045008F0010103F1040930F864
:1004200004BC002A00F08580571E376050F8042C69
:1004300049F8042C09F10403043008F1FF34B8F141
:10044000000F72D0002967D0376830F8048C594902
:10045000002F00F08F807D1E0D6050F8042C43F8B3
:10046000042C013C621C00F1040003F1040353D18D
:100470005BE0514AD2F8885CD2F88C7C05F1FF3AF7
:100480004CF30B1BC7EB0A080BF50069C8F3090115
:100490001FFA89FC09B904251570D2F88C1C4F1C71
:1004A00002EB410AC7F30905C2F88C5CAAF888C4BC
:1004B00050F804BC326843F804BC611E043330F8C1
:1004C000044B3C4F002A52D13B4AD2F8885CD2F808
:1004D0008C7C05F1FF3844F30B19C7EB080409F5D0
:1004E000006CC4F309071FFA8CFA0FB904251570C4
:1004F000D2F88C4C04F1010B02EB4408CBF3090752
:10050000C2F88C7CA8F888A450F8042C43F8042C7A
:10051000043004334C1E41B1376830F804CC254D0B
:10052000002FA6D0791E2960C2E702B0BDE8F00F07
:100530007047214AD2F8884CD2F88C3C671E4BF3A6
:100540000B1CFC1A0CF5006AC4F309031FFA8AF5A8
:100550000BB904271770D2F88C4C631C02EB440BC8
:10056000C3F30907C2F88C7CABF888545EE7551ECC
:100570003D60C9E7104AD2F8881CD2F88C7C01395A
:1005800048F30B19C7EB010C09F5006ACCF3090716
:100590001FFA8AFB0FB904251570D2F88C1C01F1E3
:1005A000010802EB4109C8F30907C2F88C7CA9F8DD
:1005B00088B452E700000020240200203C0F0020F5
:1005C000704700BFFEE700BFFEE700BFFEE700BFC9
:1005D000FEE700BF704700BF704700BF704700BF15
:1005E00038B5364C204601F0BFF9354B187801225A
:1005F000227003280DD8DFE800F03918100200211E
:10060000FF25A170E17021716171A571E5712572FD
:1006100065722A4801F038F938BD2A4B186840F352
:10062000002C5FFA8CF10025EBE7274A2549234B84
:10063000096892E821008542A8BF2846C511234ACF
:1006400032F91520C1F34010002A2070E1DB54007C
:10065000B4F5404F13DAB4F5004F24DAB4F5804F07
:1006600019DAA51100219D719970D2E7154B134835
:100670001A68C2F3C011217001F006F938BDFF25D8
:100680000020A4095C715872D87098701D711D7299
:10069000DD719D71BDE7A209FF200024DA71DC70D5
:1006A0009C709871B5E7C4F387150022FF211D7176
:1006B0001D72DA709A70D9719971AAE7540F0020EF
:1006C00020020020105700203C0F0020D4320008E8
:1006D000094B10B51A68094C511C2046196001F0ED
:1006E000CDF9A0787F2802D1054B01241C70BDE80C
:1006F0001040FFF775BF00BF105700204C0F0020BF
:10070000041700202DE9F0419E4C0646884602F071
:1007100059F8F32002F066F82368B3F1006F00F097
:10072000D280994A2068904200F0D6809749256887
:100730008D4200F0DA80964F2368BB4200F0DE80E5
:10074000944A2068904200F0E280934925688D42E7
:1007500000F0E680914F2368BB4200F0EA80904AA7
:100760002068904200F0EE808E4925688D4200F0AE
:10077000F2808D4F2368BB4200F0F6808B4A2068E0
:10078000904200F0FA808A4925688D4200F09680F8
:10079000B8F1000F00F0908008F1FF3CCCF3820725
:1007A00020680025002F7DD0316802F091F8206884
:1007B00004252844A84520607ED9012F72D0022F3D
:1007C0002AD0032F21D0AF4218D0052F0FD0062FEB
:1007D00006D0715902F07CF8206828442060082572
:1007E000715902F075F82368181D0435206071599D
:1007F00002F06EF82268101D04352060715902F075
:1008000067F82068043004352060715902F060F800
:100810002168081D04352060715902F059F82768D5
:10082000381D043520603DE0B15802F051F805F163
:10083000080C206856F80C100430206002F048F8CC
:10084000276805F10C023B1D1846B158236002F0E1
:100850003FF8216805F110070A1D1046F159226082
:1008600002F036F8206805F11401031D184671588E
:10087000236002F02DF8276805F1180C3A1D56F890
:100880000C102260104602F023F8206805F11C01CC
:10089000031D18467158236002F01AF82768381DA6
:1008A00020352060715902F013F823682A1D191DA4
:1008B000904508462160B7D8BDE8F0810221582054
:1008C00001F0CAFF64E70020022101F0C5FF2E4AB3
:1008D000206890427FF42AAF0221082001F0BCFF7B
:1008E0002A4925688D427FF426AF1020022101F0AD
:1008F000B3FF274F2368BB427FF422AF18200221A9
:1009000001F0AAFF234A206890427FF41EAF022123
:10091000202001F0A1FF204925688D427FF41AAF05
:100920002820022101F098FF1C4F2368BB427FF46E
:1009300016AF3020022101F08FFF194A2068904243
:100940007FF412AF0221382001F086FF1549256897
:100950008D427FF40EAF4020022101F07DFF124F47
:100960002368BB427FF40AAF4820022101F074FFE4
:100970000E4A206890427FF406AF0221502001F019
:100980006BFF00E7500F00200040000800800008C7
:1009900000C0000800000108000002080000040870
:1009A000000006080000080800000A0800000C0803
:1009B00000000E08F0B585B0002101A801F08EF806
:1009C0001B481C4F1C4E00F0DDFE1C4B1C484422F3
:1009D000002502249A60DC601D605D6001F016F85D
:1009E0002046012102F07CFA0124384602A98DF844
:1009F0000C508DF80E5002948DF80D408DF80F407C
:100A000001F086FF2146384602F0CEF8411B18BFA0
:100A1000012130464BF6803200F0BEFC2021094A0D
:100A2000304600F0E3FC01A801F060F805B0F0BD2D
:100A3000540F002000040240600F00203C0F0020F3
:100A40004C0F0020C5020008F8B5164D164C174E85
:100A5000284644F62061002201F062FB082213467A
:100A600020464FF0005101F07DF8D4F8883CC4F8DE
:100A70008C3C0F480F4AD4F8107D0F49C4F8147D00
:100A80004FF0100C002385F80CC1A4F88434A36047
:100A90002370A36123612B70A5F80E31338003709E
:100AA0001160F8BDEC15002024020020085700203A
:100AB00020020020500F0020008000082DE9F04F98
:100AC00083B0FFF7C1FFFFF775FF69484FF48071EE
:100AD00002F06AF8D0B9674C674F2278DFF8B4812A
:100AE000664D644B042A2CD14FF0010A0026D4F83D
:100AF000140DD4F8103DDFF87CE1C21A53060ED075
:100B0000BAF1000F0ED15E48002E38D05D4800F0DB
:100B1000E9FC01F08DFC5C4801F0C2FCFEE7BAF193
:100B2000000F08D002210020397028702B78002B8C
:100B3000FCD0FFF789FF002EE8D122784D4B042A24
:100B4000D2D0D3F88C0CD3F8881C461AC6F309020D
:100B50001F2A40F28A80D4F88C1CD4F8886C454B4C
:100B6000C6EB0109C9F309021846002A7DD019789D
:100B7000002972D0012974D001F01EF9EBE7DEF8EC
:100B8000101D4A1C0EEB010B02F07F039BF8901C1A
:100B9000CEF8103D01F02CFBA0F1020CBCF1030FCC
:100BA000A5D8DFE80CF00435350201269FE7B8F838
:100BB0000090DFF8CCB0354809F03F0E0BF1010191
:100BC00001234FF4807200EB0E203B70FFF7E0FA38
:100BD00009F101018AB2A8F8002012F03F021AD0F0
:100BE00000232B49D4F810CD8BF8003010220320BD
:100BF000ABF80E31C4F87C34A4F884348BF80C21A3
:100C0000C4F814CD2070C4F87814C4F874146EE7D6
:100C10004FF0010A6BE7184B1C48032119704FF481
:100C200080410192FFF76EFDD4F8882CC4F88C2C1B
:100C3000D4F8103D019A8BF800204FF010090220E3
:100C4000ABF80E21A4F88424A260A2612261C4F84A
:100C5000143D8BF80C91207049E7184601F04AF8D2
:100C600079E7184601F074F875E74FF0000A3DE7A0
:100C7000000402402402002020020020041700206B
:100C8000EC150020600F00200080000808170020ED
:100C900000FCFFFF085700202DE9F0412A4C2B4FA4
:100CA00082B00620012102F01BF902254FF44063B7
:100CB0000026204669464FF0010800938DF8045045
:100CC0008DF805508DF806808DF8076001F020FE44
:100CD00020460A21042201F073FF20460B21042242
:100CE00001F06EFF4FF470422046694600928DF885
:100CF00004508DF805508DF806608DF8076040258A
:100D000001F006FE69463846009501F001FE2046D6
:100D10000C21052201F054FF20460D21052201F08F
:100D20004FFF20460F21052201F04AFF20460E21E9
:100D3000052201F045FF38460621052201F040FF5B
:100D4000404602B0BDE8F0810004024000080240C5
:100D5000F0B5154C85B001214FF4800002F0CEF8BB
:100D6000204601F045FF04A9104B41F8103D4FF417
:100D700080624FF4804C2046694600274BF6FF7690
:100D80003325ADF80A20ADF80CC0ADF80470ADF80D
:100D90000660ADF8085001F061FF2046012101F026
:100DA000D7FF012005B0F0BD00580040A08601002B
:100DB00070B5002084B014460E4602F08BF8002077
:100DC00002F038F84BF680339C420CD04AF644408F
:100DD000844261D0B4F5FA4F64D035498C4255D085
:100DE000002004B070BD4FF48170032102F018F8A8
:100DF000012002F01FF83B2002F0AAF84FF48055C2
:100E000010BB3B2002F0A4F8F0B93B2002F0A0F8A0
:100E1000D0B93B2002F09CF8B0B93B2002F098F822
:100E200090B93B2002F094F870B93B2002F090F8A2
:100E300050B93B2002F08CF830B93B2002F088F822
:100E400010B9083DDDD1CBE74FF48040012102F01D
:100E500055F8184802F096F800220294ADF80220E6
:100E6000ADF80420ADF80C200EB14FF400766946C1
:100E70001048ADF80060ADF8066002F0EBF8694686
:100E80000D4802F07DF9012004B070BD40F28910D8
:100E9000042101F0C5FFABE740F20F10062101F07D
:100EA000BFFFA5E74FF4D570042101F0B9FF9FE71C
:100EB00000770100003800400034004070B57348EE
:100EC0000E464FF40031154601F08CFF4FF4961496
:100ED00098B34FF400316D4801F084FF4FF40031B6
:100EE00058B36A4801F07EFF4FF4003128B36748D9
:100EF00001F078FF4FF40031F8B1644801F072FF5F
:100F00004FF40031C8B1614801F06CFF4FF400317B
:100F100098B15E4801F066FF4FF4003168B15B485C
:100F200001F060FF4FF4003138B1584801F05AFF2A
:100F300018B1083CCDD1002070BD5448012101F00A
:100F400017FF5248524901F03FFF4FF4805450BB05
:100F50004F494E4801F038FF4D4920BB4B4801F046
:100F600033FF4B49F8B9494801F02EFF4849D0B941
:100F7000464801F029FF4649A8B9444801F024FF3A
:100F8000434980B9414801F01FFF414958B93F48E2
:100F900001F01AFF3E4930B93C4801F015FF10B985
:100FA000083CD5D1C7E739483421002201F000FFC1
:100FB0003648384901F008FF4FF4805450BB35499A
:100FC000324801F001FF334920BB304801F0FCFEFC
:100FD0003049F8B92D4801F0F7FE2E49D0B92B4819
:100FE00001F0F2FE2B49A8B9284801F0EDFE29498D
:100FF00080B9264801F0E8FE264958B9234801F097
:10100000E3FE244930B9214801F0DEFE10B9083C66
:10101000D5D190E7C5F3002141EA4600C1B21B4893
:1010200001F0D0FE19481C4901F0CEFE4FF4805467
:10103000002833D11849154801F0C6FE164968BB8F
:10104000124801F0C1FE144940BB104801F0BCFE3B
:10105000114918BB0D4801F0B7FE0F49F0B90B4814
:1010600001F0B2FE0C49C8B9084801F0ADFE0A49CA
:10107000A0B9064801F0A8FE074978B9034801F075
:10108000A3FE58B9083CD5D155E700BF0058004031
:10109000010003008200070080000700E9B2364823
:1010A00001F090FE3448354901F08EFE4FF4805631
:1010B00050BB3249304801F087FE304920BB2E48F2
:1010C00001F082FE2D49F8B92B4801F07DFE2B4935
:1010D000D0B9294801F078FE2849A8B9264801F07E
:1010E00073FE264980B9244801F06EFE234958B9A1
:1010F000214801F069FE214930B91F4801F064FE22
:1011000010B9083ED5D116E71B481D4901F06AFE0B
:101110004FF4961450BB1A49174801F063FE184962
:1011200020BB154801F05EFE1549F8B9124801F0E0
:1011300059FE1349D0B9104801F054FE1049A8B91E
:101140000D4801F04FFE0E4980B90B4801F04AFEF0
:101150000B4958B9084801F045FE094930B906481D
:1011600001F040FE10B9083CD5D1E4E60248012167
:1011700001F00EFE012070BD005800408000070005
:101180000400001070B50C4616460F2100220546DB
:10119000FFF794FE00283BD0284600211722FFF7D6
:1011A0008DFE002834D0284601211722FFF786FE45
:1011B00070B3284602210022FFF780FE40B3284684
:1011C00003210022FFF77AFE10B3284604211222E1
:1011D000FFF774FEE0B1002228460521FFF76EFEFE
:1011E000002C14BF62224222D0B128460621FFF70C
:1011F00065FE002C0CBF42220222B8B9E4B14AF6C7
:1012000044439E420CBF2022002218BB002070BD28
:10121000002C4FF0000014BF622242220028E4D1CB
:10122000002C0CBF422202220028E7D028460721CA
:10123000FFF744FE002CE2D1B6F5FA4F19D01ADDC3
:101240004AF64442964212D00E498E4218D11C22D0
:101250000028DBD028460821FFF730FE0028D5D033
:10126000284609210022BDE87040FFF727BE202252
:10127000CBE71822C9E7B6F5FA5F01D10C22C4E723
:101280000022C2E7007701002DE9F04F3B4F3C4EB2
:10129000044683B001214FF4001001F021FE3846CE
:1012A000002101F063FA384601F08CF9354BA36157
:1012B00000254FF480634FF6FE724FF4006B4FF43D
:1012C000005A4FF480794FF400384021E3626262A3
:1012D00021626561E561A56225646564A564E564D4
:1012E000C4F830B0C4F834A0C4F83890C4F83C80D6
:1012F000384604F114010093019201F0FBF92946EC
:10130000304601F033FA304601F05CF91E4F019986
:10131000009AA5654FF0C060E56521666566A26626
:10132000C4F86CB0C4F870A0C4F87490C4F87880A5
:10133000E567C4F88050C4F88450C4F8885020652C
:10134000676504F15001304601F0D4F930460F4E84
:10135000182101224FF4804401F012FA0C48346045
:101360000221012201F036FF01210A46094801F05D
:1013700031FF012003B0BDE8F08F00BF7060024074
:10138000586002400C3800400C34004000E100E09E
:10139000003800400034004070B5134B0446154639
:1013A000002245601860026121700E46FFF774FC50
:1013B00008B9002070BD2046FFF7CAFC0028F8D00D
:1013C000204631462A46FFF7F3FC0028F1D031468B
:1013D0002A462046FFF7D6FE0028EAD02046BDE880
:1013E0007040FFF751BF00BF0C570020F8B50E4604
:1013F0001746092101220446FFF760FD0546002833
:101400003DD0202E53D82378002B3AD02F48276187
:10141000818B4A0552D52E48828B53054AD52078B8
:1014200004F18C0704F56373E761A36568B960682C
:101430004BF6803C604545D0264A904244D0B0F5FA
:10144000FA4F0CBF0321012100E00121B70001FB8D
:1014500007F363622366E1601F48A66004F114018C
:1014600001F048F904F150011C4801F043F91A4811
:10147000012101F07BF91948012101F077F9284693
:10148000F8BD17484FF4805101F08EFB0028F8D1C9
:1014900013484FF4805101F087FB0028B6D1104863
:1014A0004FF4805101F080FB0028F1D0AEE7002519
:1014B0002846F8BD012101F053FEB0E7012101F0FB
:1014C0004FFEA8E70221C1E70421BFE70038004032
:1014D0000034004000770100706002405860024014
:1014E0000004024008B50548002101F03FF9044816
:1014F0000021BDE8084001F039B900BF706002402A
:1015000058600240D0F810C02DE9F0410646BCF109
:10151000000F00F00A818268C56805FB02F77800B9
:1015200001FB00F101F5E27306EB430806EB410411
:1015300004F18C0708F10400002D6FD0510001293F
:101540006CD96D0008F1020E0EEB820E441908F101
:101550000603C0EB0E01B4F80080A0F80280023947
:101560007345C1F342012C4458D069B3012924D0FA
:1015700002291ED0032917D0042911D005290AD029
:10158000062904D0B4F8008023F8028F2C44218867
:1015900023F8021F2C44B4F8008023F8028F2C4457
:1015A000218823F8021F2C44B4F8008023F8028F0E
:1015B0002C44218823F8021F2C44B4F8008023F81F
:1015C000028F73452C4429D01946B4F8008021F8C5
:1015D000028F34F8058021F8028F04EB050834F8F7
:1015E00015404C8038F815101981A84408EB050106
:1015F00038F815405C8131F81580A3F80C80294437
:101600004C1931F81510D98134F81580A3F81080E1
:10161000103304EB450473452C44D5D13946E047DB
:10162000F268002A00F08380B068450007EB800371
:101630004FEA420E6E1E0EFB067706F1FF3C33F8B2
:10164000024D3C806046CEEB07020CF007010028FB
:101650006FD0C9B3012930D0022927D003291ED069
:10166000042916D005290ED0062906D033F8025DCC
:1016700015800CF1FF30CEEB020233F8026D1680BC
:101680000138CEEB020233F8027D17800138CEEB31
:10169000020233F8024D14800138CEEB020233F817
:1016A000028DA2F800800138CEEB020233F802CDA1
:1016B000A2F800C00138CEEB020233F8021D1180FF
:1016C0000138CEEB020236D01F46CEEB020537F8CA
:1016D000026D16803C46CEEB050834F8021D2980C9
:1016E00034F802CCA8F800C0CEEB080233F8087C2E
:1016F0001780CEEB020533F80A6C2E80CEEB050482
:1017000033F80C8CA4F80080CEEB040C33F80E1CDC
:10171000ACF80010CEEB0C0233F8107C17800838C0
:10172000CEEB0202A3F11003CED1BDE8F081BDE8FB
:10173000F081BDE8F081BDE8F08100BF08B50F4B36
:101740001A6812F0C05F0FD10C4B1A6812F0A05F3C
:1017500000D108BD0A484FF0A051996000680021EF
:10176000BDE80840FFF7CEBE05484FF0C051996074
:1017700000680121FFF7C6FEE6E700BF00600240F7
:101780000C5700202DE9F041012182B005460220CE
:1017900001F0A6FB0420012101F0A2FB0024012698
:1017A0004FF408736946364800938DF804608DF84D
:1017B00005608DF806408DF8074001F0A9F86946EC
:1017C000302230488DF804608DF805608DF80640B1
:1017D0008DF80740009201F09BF8A81DC14305F168
:1017E0000A0705F107083944B845AC7001F007064F
:1017F000EC7020462C716C71AC713CD02EB3012E74
:101800001ED0022E19D0032E13D0042E0DD0052E7B
:1018100008D0062E1CBF88F8004005F108080023F8
:1018200008F8013B002408F8014B4FF0000C08F8C1
:1018300001CB4FF0000E08F801EB002208F8012B55
:10184000002008F8010BB84515D04146002601F8E4
:10185000016B08F1080808F8076C4E7008F8056C71
:1018600008F8046C08F8036C08F8026C08F8016CBE
:10187000B8453046E9D12870687002B0BDE8F08103
:10188000000402400008024070B5437882780646A2
:1018900003F12000C5B275701AB1AA4234BF00220C
:1018A0000122B17919B18D4298BF42F00202F3785A
:1018B0009400E0B21BB19D4298BF40F00100F27964
:1018C0001AB1954298BF40F00200317983005FFA67
:1018D00083FC19B18D4298BF4CF0010C347A1CB1D5
:1018E000A54298BF4CF0020C70794FEA8C02D4B23A
:1018F00018B1854298BF44F00104717A19B18D4244
:1019000098BF44F0020416481021002201F052F959
:10191000082513482021002201F04CF914F0800F13
:101920004FF000020F4818BF01222021013D01F0B5
:1019300041F9ADB263000A4820210122DCB201F076
:1019400039F9002DE5D106481021012201F032F9C4
:10195000327804484FF40071BDE8704001F02AB9B4
:1019600000080240000402402DE9F001861D00F14C
:101970000A05F443C31D00222C44AB42827004F0DC
:101980000707C27011460271427182713AD027B3C3
:10199000012F1DD0022F17D0032F11D0042F0CD0F0
:1019A000052F07D0062F1CBF1A7000F10803002175
:1019B00003F8011B002603F8016B002403F8014B18
:1019C0004FF0000803F8018B4FF0000C03F801CB37
:1019D000002103F8011BAB4214D01F46002207F878
:1019E000012B083303F8072C7A7003F8052C03F851
:1019F000042C03F8032C03F8022C03F8012CAB424F
:101A00001146EAD10170BDE8F001704770B50121BF
:101A100082B00646022001F063FA0420012101F0A1
:101A20005FFA002501244FF4807369461148009342
:101A30008DF804508DF806508DF805408DF807405C
:101A400000F066FF69464FF440620B488DF8045081
:101A50008DF806508DF805408DF80740009200F093
:101A600057FF3046FF2100F8011B00F8011B0170F1
:101A700002B070BD0004024000080240F0B5144BF3
:101A80000778144D83B00446186801907A00BDF8B9
:101A900004102846D7B201F087F840EA07036678B9
:101AA0002370BDF80610284601F07EF87500A17875
:101AB000EFB238434A0060704FF480710648D6B2E6
:101AC00001F072F840EA0603A37003B0F0BD00BF56
:101AD000D0320008000802400004024001B97047FB
:101AE0004FF000604FF4004100F062BD074B084822
:101AF000084A10B4F0245A60002180F823400722DD
:101B000099605DF8044B1A60704700BF10E000E078
:101B100000ED00E03F90020070B51C2604463246FE
:101B20000021383001F08AFB4FF400753246002165
:101B300004F1540001F082FB2A46002104F17000F8
:101B400001F07CFB2A4604F51C70002101F076FBB5
:101B50000020B4F88034A4F882342061A061A4F895
:101B6000700470BD2DE9F007174C54F82260B6F9E7
:101B70000050B6F902A0B6F90490B6F90680B6F99D
:101B80000A70B6F908C0B6F90C60C56100244FF4BC
:101B90000025C0F88C4CC0F820A0C0F8884CC0F8D4
:101BA0002490C0F8144DC0F8288007634663456050
:101BB000C0F8104DC0F82CC0A0F880344161BDE8D9
:101BC000F007FFF7A9BF00BF183500082DE9F0079F
:101BD000B0F88094B0F8708409F1FF3708F580728E
:101BE0000024012F1FFA82FC254610DD0123C3EBE0
:101BF0000C065FFA86FA00EB4A020133B2F9706014
:101C0000B2F970A29BB2BB4235445444EFDB0029C9
:101C100049D0C9EB0C011FFA81F909F1020700EB69
:101C200048065FFA87FC0CF13802B6F97070B6F915
:101C300070A230F912C009F1010684EAE471A1EB47
:101C4000E47185EAE579A9EBE5792F44A24408F12E
:101C5000FF08CCEB07074944CCEB0A0AF2B25FFA63
:101C600088F38AEAEA7CACEBEA7C87EAE778A8EBBF
:101C7000E77801EB810900EB420600EB43034FEAF2
:101C80009901C4448C45B6F87090B6F87022B3F848
:101C90007060B3F8703210D9B0F88264721C544688
:101CA0003D46A0F88224002DACBF02200020002C6D
:101CB000A8BF0130BDE8F007704705FA89F704FABC
:101CC00082FA36B21AB2C6EB0708C2EB0A0C88EAEF
:101CD000E879A9EBE8798CEAEC73A3EBEC734B445D
:101CE0008B42E0D9B0F88244611E45466446A0F8B4
:101CF0008214D8E710B417E0D0F8881C42688368D3
:101D000000EB410C0133BCF8884483600FFA84FC7B
:101D10000131ACEB2224C1F309012244B3F5805F09
:101D2000C0F8881C42600BD2D0F88C2CD0F8883CCC
:101D3000D11AC1F30904002CDED15DF8044B7047C1
:101D4000002401228460C46002705DF8044B704777
:101D500070B41CE0D0F8885C061D00EB450C96E8DA
:101D60001600BCF888341EB2A6EB212C01320135D6
:101D70000CFB0CF3C5F30905614404EB2314B2F525
:101D8000805FC0F8885C4160C46082600AD2D0F88D
:101D90008C2CD0F8883CD11AC1F30904002CD9D17D
:101DA00070BC70470021B4F5F03F8160C160EED394
:101DB00002260670F4E700BF2DE9F04F804683B09D
:101DC0000BE0BCF1050F00F05F81BCF1020F00F0E9
:101DD0004A81BCF1030F00F0FD80D8F88C2CD8F8B4
:101DE000883CD01AC0F30901002900F05F81D8F8BF
:101DF0001440D8F81010D8F8886C019421444FEAA8
:101E0000116B0BF1400208EB4604C44BD8F83C7050
:101E10000097D0B2B4F8887433F9102033F91BB0AE
:101E2000D8F80430D8F820A0D8F85850D8F81C902A
:101E3000D8F824C038B2A0EB23270BFB07F054429C
:101E4000031207FB04F20098C8F83830121205FBA1
:101E50000AF409FB024B00FB0AF4D8F85C00C8F84E
:101E6000542009FB034A00FB0CB9D8F82840D8F8E5
:101E7000600000FB049BD8F84040D8F82C00D8F84C
:101E8000689004FB0CACD8F8644004FB00BBD8F8A5
:101E90002800D8F8444004FB00CAD8F80400D8F859
:101EA00030C00136C6F309040744D8F82C60D8F8CE
:101EB0004800C8F8047000FB06AAD8F83470D8F8B7
:101EC0006C60C8F8884C0CFB09BBD8F86440C8F8B3
:101ED000684006FB07B6D8F84CB0C8F86C90D8F844
:101EE0005090C8F84C000BFB0CA409FB074A002ECD
:101EF00098F800C0D8F84400C8F85820ACBF0122B8
:101F00004FF0FF32BAF1000FC8F850B0C8F84800DF
:101F1000ACBF4FF0010B4FF0FF3BD8F81800C8F8EA
:101F20003C30BCF1020FD8F86030D8F85C70B8F8DB
:101F30007094C8F8643014BF02FB0AF2CAEB0602C0
:101F400000EB400318BF0BFB1622D8F84040C8F83E
:101F50006070C8F85C501A44009D019FC8F8444066
:101F6000C8F8405008EB4904951001EBC5014FEA51
:101F70002A23361207EBE202C8F81010C8F81850EE
:101F8000C8F81420A4F87030A4F87062B8F882A4DD
:101F900009F101000AF1FF35C4B2A9B2A8F87044F2
:101FA000A8F8821400297FF414AFB8F880B4A8F818
:101FB00082B4BCF1030F7FF404AFD8F8144D08EBE2
:101FC000040A04F1010B0BF07F0304268AF8906CDD
:101FD000C8F8143DB8F87074B8F8805407F58071EB
:101FE0001FFA81F94FEA450C002D00F09480002083
:101FF00003460646C0EB0902D0B208EB400A9D42F8
:10200000BAF97040BAF9707203F1010B94BF012163
:102010004FF0FF311FFA8BF394BF4FF0FF320122D4
:1020200004FB0166634502FB07661846E2DBD8F84D
:102030007C44D8F87474B442B8BFC8F87C64002EED
:10204000BCBF0024C8F87C44B74207DDD8F8781438
:102050008F4203DDD8F87C349F423DD0C8F87874B5
:10206000C8F87464B9E64046FFF7B0FD48B9B8F85F
:1020700084E40EF1010C1FFA8CF3202BA8F88434B1
:1020800017D098F800C0A4E601214046FFF79EFD56
:10209000D8F8141D08EB01024D1C82F8900C05F0D5
:1020A0007F0098F800C0C8F8140D92E603B0BDE8B0
:1020B000F08FA3F58467D8F8106DC8F87C044FF052
:1020C0000309A8F88404C8F8146D88F80090C8F8CB
:1020D0007874C8F874747DE7A9EB55095FFA89FC38
:1020E00008EB4C0ABAF97020002AB7DABAF9700284
:1020F0000028B3DDB8F884B40BF10104A1B20429BF
:10210000A8F8841405F1FF3504BF052188F80010F4
:10211000A8F88254A2E7664689E700BF04000020C1
:10212000002310B4102480F80C41A0F8101180F89E
:1021300012210370A0F80E31A0F80A31C0F8143152
:102140005DF8044B704700BF90F80C3143FA01F280
:10215000D30706D504290AD8DFE801F02940063460
:102160001400032303707047022380F80C3190F8A9
:102170000D3133B90122A0F806314370A0F80831BF
:1021800002707047B0F80E11B0F810C14B1C9AB233
:102190009445A0F80E2102D8B0F80A1121BB4FF0E7
:1021A000160C102380F80CC180F80D31704790F8A0
:1021B0000DC10CF1FF32D3B2082180F80D3180F847
:1021C0000C11D6E790F80D1101F1FF3C5FFA8CF38A
:1021D000012280F80D3180F80C21CAE70C2180F82B
:1021E0000C1190F80D31C4E705220270704700BF52
:1021F0002DE9F84F037804460A46A3B1012B0FD10D
:10220000B0F80651B0F808016119471C4E78B8B211
:10221000324304284A70A4F808010AD094004C7094
:102220001846BDE8F88FFFF78FFF23781846BDE802
:10223000F88F05F101081FFA88F90025B9F5827FAA
:10224000A4F80691A4F8085102D04C446570E7E761
:10225000744A631C04F201154FF0FF309A4693F85C
:1022600002901AF8011B93F803809AF800A093F8E3
:1022700004C05F799E7980EA010B5FFA8BF1083325
:1022800052F821B013F8011C8BEA102080EA0A0AE8
:102290005FFA8AFBAB4252F82BA08AEA102080EA50
:1022A00009095FFA89FB52F82BA08AEA102080EA1C
:1022B00008085FFA88F952F829B08BEA102A8AEAEE
:1022C0000C00C0B252F820C08CEA1A2888EA07072E
:1022D000F8B252F8207087EA182989EA0606F0B2A7
:1022E00052F8207087EA192686EA0101C8B252F82E
:1022F000207087EA1620B1D194F8026194F8015158
:1023000094F8043194F803214FEA064B4BEA056A2E
:102310004AEA0301C74341EA0220B84207D0042336
:102320002370B4F80A114F1CA4F80A7178E794F8E6
:10233000126102252570002E71D0D4F814110023EB
:1023400004EB030903F1010A99F801B0364A374852
:102350008BEA116B89F801B004EB0A0902FB01FB5F
:1023600099F80110804684460646054603F1020AA4
:10237000584481EA106BA24489F801B09AF801B080
:1023800002FB00F94746C84403F103098BEA186BC6
:10239000A1448AF801B099F801A002FB08F8C444EE
:1023A00003F1040B8AEA1C68A34489F801809BF8B6
:1023B000019002FB0CFC3846394603F1050A6744DC
:1023C00089EA1768A2448BF801809AF801B002FBF1
:1023D00007F73E4403F106098BEA1667A1448AF821
:1023E000017002FB06F699F80170354403F1070A03
:1023F00087EA1566A24489F8016002FB05F59AF8A0
:1024000001C02844083302FB00F2B3F5807F8CEA58
:10241000106011448AF8010092D1C4F8141102230B
:102420007FE700BF7C3500080D6619005FF36E3C46
:10243000F0B41549154E164B164A174C174D4FF070
:10244000FF300427C1F88000C1F88400C1F8800182
:10245000C1F884013760196841F001061E601068F8
:10246000044014601F6827F0847C2CF480311960CC
:102470001E6826F4802018601468002324F4FE07E8
:1024800017602B60F0BC704700E100E010E000E056
:1024900000380240603A02400000FFF8C03C0240B1
:1024A00008B54368026882F30888984708BD00BFF2
:1024B000394A3A4BD2F88810394841F47001C2F8D1
:1024C00088101968002241F0010119609A601968AA
:1024D00021F0847C2CF4803119605860186882B037
:1024E00020F480211960DA60009201921A6842F4A7
:1024F0008030186003E0009AB2F5A04F0AD0274B55
:10250000196801F4003201920098431C009301996C
:102510000029F0D02148036813F4003118BF0121CD
:102520000191019A012A05D01B4B4FF000629A607D
:1025300002B07047194B1B4A186C1B4940F0805081
:102540001864106840F4404010609A689A60986877
:1025500040F400429A60986840F4A0529A60596032
:10256000196841F0807018600C4B1A689201FBD515
:102570000E4840F2056101609A6822F003009860FD
:10258000996841F002029A60044B986800F00C01CF
:102590000829F9D1C8E700BF00ED00E0003802408B
:1025A000103000240070004008544007003C0240F6
:1025B00021F0604121F07F02014B10439860704789
:1025C00000ED00E010B4374A0468002324F0010451
:1025D000212190420460036043608360C360036113
:1025E00041614DD0304CA04235D03049884239D07D
:1025F0002F4B98423DD02F4CA04247D02E498842C5
:1026000048D02E4B98421DD02D4CA0421ED02D4BB1
:10261000984243D02C4CA0421DD02C49884221D056
:102620002B4B984225D02B4CA0422FD02A498842D0
:1026300030D02A4B984205D0294CA04206D05DF8F4
:10264000044B7047274943F8941CF8E74FF03D527C
:1026500044F8AC2CF3E74FF4746144F8201C5DF8A7
:10266000044B70474FF4741241F8382C5DF8044B5A
:1026700070474FF0746443F8504C5DF8044B70475A
:10268000194B5DF8044B3D2098607047174844F89B
:10269000640CD4E7164B41F87C3CD0E73D2043F86E
:1026A000080CCCE710600240286002404060024005
:1026B000586002407060024088600240A0600240A2
:1026C000B860024010640240286402404064024046
:1026D000586402407064024088640240A064024072
:1026E000B864024000003D20006002403D00002030
:1026F000400F00200B68CA68D0F800C02DE9F00731
:102700004F698E69CD690C6AD1F83490D1F8388060
:102710001A4342EA070A4AEA060747EA050646EA72
:1027200004054C6A8B6A104E4F6845EA040242EA7F
:10273000030A4AEA090242EA08020CEA060942EAE6
:1027400009060B6BCC6A0D6989680660426943EA29
:10275000040822F0070348EA0304446145608760E7
:10276000C160BDE8F00770473F801CF0036819B9ED
:1027700023F001010160704743F0010202607047DD
:102780000B060DD54369B2B143F080038029436144
:1027900010D0026801F01E0C4CEA02010160704783
:1027A000802907D0002AF4D1036801F01E0123EA32
:1027B00001020260704723F0800280294261F3D158
:1027C000704700BF044B1A69002A03DA0349044822
:1027D00059605860704700BF003C024023016745C4
:1027E000AB89EFCD014BD860704700BF003C024081
:1027F0000E4BDA68D00309D4D868C10601D506208B
:102800007047D968CA0503D5022070470120704778
:10281000DA6812F0E00F01D007207047DB6813F090
:10282000020F0CBF09200820704700BF003C024087
:1028300000B583B009238DF80730FFF7D9FF8DF875
:1028400007009DF807000128F7D09DF80710C8B2CF
:1028500003B05DF804FB00BF70B5054661B3012904
:1028600030D0022914BF4FF440764FF40076FFF7C2
:10287000DFFF092825D1154C236923F4407020611E
:10288000216946EA01022261266926F0F8032361E4
:10289000206940F002010D432561226942F480362F
:1028A0002661FFF7C5FF236923F002012161256935
:1028B00025F0F802226170BD0E46FFF7B9FF092826
:1028C000D9D070BD4FF48076F7E700BF003C0240DE
:1028D00070B505460E46FFF7ABFF092800D070BD66
:1028E0000A4C236923F440702061216941F400728D
:1028F0002261236943F0010020612E60FFF798FFF9
:10290000256925F00106266170BD00BF003C02402C
:1029100000222DE9F00713460C6823E0013301275C
:1029200007FA03FC0CEA040AE24502F1020200F095
:10293000A18001275E1C07FA06FA0AEA0407574538
:1029400002F1020C6ED001279E1C07FA06F909EA73
:1029500004074F4502F1040C33D00333102B02F16E
:1029600006025CD0012505FA03F707EA0406BE4219
:10297000D4D14FF00308D0F800C091F804A008FAB1
:1029800002F96FEA090505EA0C08C0F80080D0F8E2
:1029900000900AF1FF370AFA02FCFFB24CEA090A7A
:1029A000012FC0F800A040F28B80C66891F8079014
:1029B0003540C560C76809FA02F646EA0705C560F2
:1029C000ACE74FF00308D0F8009008FA0CFA6FEA71
:1029D0000A0505EA090A91F80480C0F800A0D0F8B9
:1029E000009008FA0CFA08F1FF384AEA09095FFA80
:1029F00088FABAF1010FC0F8009040F2B580C668BD
:102A000091F807A03540C560C7680AFA0CF6033391
:102A100046EA0705102BC56002F10602A2D1BDE807
:102A2000F00770474FF00308D0F8009008FA0CF553
:102A3000ED4305EA090A91F80480C0F800A0D0F837
:102A4000009008FA0CFA08F1FF384AEA09095FFA1F
:102A500088FABAF1010FC0F8009065D9C66891F8FC
:102A600007A03540C560C7680AFA0CF646EA0705B4
:102A7000C56068E70326D0F800900F7906FA02F8DF
:102A80006FEA080505EA090CC0F800C0D0F800900C
:102A900007F1FF3807FA02F65FFA88F746EA090CF1
:102AA000012FC0F800C025D9C66891F807903540BD
:102AB000C560C76809FA02F646EA0705C56038E747
:102AC000876891F8058091F806902F4087608768A5
:102AD00008FA02FC4CEA07078760476827EA0606FF
:102AE0004660476809FA03FA1FFA8AF848EA0706B7
:102AF00046605AE7866891F8059091F806C005EAA5
:102B000006078760866809FA02F73E4386604768D1
:102B100027EA0A06466047680CFA03FA1FFA8AF8A1
:102B200048EA07064660BFE7D0F808A091F806809B
:102B300091F8059005EA0A0AC0F808A0D0F808A0A4
:102B400009FA0CF949EA0A0AC0F808A0D0F804907A
:102B500029EA07074760476808FA06F61FFA86F869
:102B600048EA0707476079E7D0F808A091F806809F
:102B700091F8059005EA0A0AC0F808A0D0F808A064
:102B800009FA0CF949EA0A0AC0F808A0D0F804903A
:102B900029EA07074760476808FA06F61FFA86F829
:102BA00048EA070747602AE7036919420CBF00207B
:102BB000012070470AB9418370470183704700BF05
:102BC000CB0800EB830001F0070110B44FEA810C41
:102BD000046A0F2303FA0CF124EA01030362046A76
:102BE00002FA0CF242EA040101625DF8044B7047FC
:102BF00008B5174B984212D0164988421BD0164A86
:102C0000904200D008BD4FF40000012100F084F98B
:102C10004FF400000021BDE8084000F07DB94FF4FA
:102C20000010012100F078F94FF400100021BDE8F8
:102C3000084000F071B94FF48000012100F06CF9F8
:102C40004FF480000021BDE8084000F065B900BFE6
:102C50000054004000580040005C0040F0B50446BD
:102C600085B06846A6880D4600F0EAF80299354816
:102C70002A68DFF8D8C026F03F07A0FB0130800C9F
:102C80003B041E0C87B247EA0603A380268826F081
:102C900001031E04330C6245238029D85300B1FB85
:102CA000F3FC1FFA8CF2032A07F1010198BF0422FA
:102CB0002184A2832788A888B5F80AE02E89AD89E7
:102CC000BAB242F001032380218821F4816727F002
:102CD00002024FEA024C4FEA1C434EEA000E2E431A
:102CE00043EA0E0085B2B1B22580218105B0F0BD66
:102CF000EF884BF6FF76B7421CD002EB820E0EEB4C
:102D00008E02B1FBF2F18BB243F4804CCCF30B0298
:102D10000AB94CF0010C4FF496710B4B01FB00F01B
:102D200083FB00274FEA971E0EF101064CF4004288
:102D30002684BEE702EB4207B1FBF7F61FFA86FCDA
:102D4000E4E700BF83DE1B43D34D6210A086010081
:102D5000038839B923F001010A044FEA124CA0F8A4
:102D600000C070479BB243F001010180704700BF73
:102D7000038839B923F480710A044FEA124CA0F891
:102D800000C070479BB243F480710180704700BF60
:102D9000038839B923F400710A044FEA124CA0F8F1
:102DA00000C070479BB243F400710180704700BFC0
:102DB0001AB901F0FE010182704741F00101018260
:102DC000704700BF01827047828A038B90B240EA4D
:102DD000034221F07F4C0CEA0203C91A48424841E1
:102DE000704700BF82B000230A0F00930193019047
:102DF0000092009821F07F4158B1019800F114032E
:102E00000193019A106801420CBF0020012002B01A
:102E10007047019B03F11802090C0192F1E700BF12
:102E20000907034B41EA8010C3F88400704700BFD4
:102E300000380240014B1860704700BF68004742ED
:102E4000204A936803F00C01042910B41DD008290E
:102E50001ED01D4B03601B491C4A8C68C4F3031C25
:102E600012F80C40E34043608C68C4F3822C12F8E3
:102E70000C4023FA04F484608968C1F34234125D83
:102E80005DF8044BD340C3607047114B0360E2E729
:102E900054685168526863024CBF0D4B0A4BC2F331
:102EA0008814084A01F03F0CB3FBFCF1536801FBA6
:102EB00004FCC3F30144611C4A00BCFBF2F3036051
:102EC000C9E700BF003802400024F40008020020D7
:102ED00000127A00014B1860704700BF5C01474246
:102EE000054B1A6B19B922EA00001863704740EAD3
:102EF00002011963704700BF00380240054B1A6C8D
:102F000019B922EA00001864704740EA0201196406
:102F1000704700BF00380240054B1A6A19B922EA0F
:102F200000001862704740EA02011962704700BF52
:102F300000380240054B5A6A19B922EA000058626B
:102F4000704740EA02015962704700BF00380240F2
:102F50004309012B0BD00A49022B0CBF096F496FA3
:102F600000F01F0021FA00F303F001007047044A4B
:102F7000116800F01F0021FA00F303F00100704710
:102F80000038024008B52D4B98421BD02C4988428E
:102F900024D02C4A90422DD02B4B984236D02B492E
:102FA00088423FD02A4A904200D008BD4FF400101A
:102FB0000121FFF7BFFF4FF400100021BDE80840DA
:102FC000FFF7B8BF4FF480500121FFF7B3FF4FF474
:102FD00080500021BDE80840FFF7ACBF4FF48040AF
:102FE0000121FFF799FF4FF480400021BDE8084020
:102FF000FFF792BF4FF400400121FFF78DFF4FF420
:1030000000400021BDE80840FFF786BF4FF40050A4
:103010000121FFF78FFF4FF400500021BDE8084069
:10302000FFF788BF4FF480100121FFF783FF4FF4B3
:1030300080100021BDE80840FFF77CBF0030014050
:1030400000380040003C0040003401400050014086
:1030500000540140838B8A682DE9F00323F47B64DC
:1030600024F00F052E040223370C87830384848BFE
:103070009A421FFA84FC5CD0354F8C88BD68002CC6
:103080000CBF4FF001084FF002082E024CD4304D17
:10309000D5F88460D5F884906F686D68C9F30273C1
:1030A00007F03F096F024CBF2A4F2B4FC6F388161B
:1030B000B7FBF9F506FB05F6B6FBF3F7CB88B3F5DE
:1030C000007F39D04FEA4818B7FBF8F909EB8905BA
:1030D0006E00B6FBF2F2571DBEB2204DA5FB06678F
:1030E0004FEAD7084FEA5809A9F10206B5B208F02D
:1030F0000102FD2D94BF49EA022202220F88B1F895
:1031000002808E894CEA070141F4006545EA080710
:103110003E4342EA030CB2B214431FFA8CF3038419
:103120008483BDE8F0037047BE6826F40003BB60EB
:10313000ADE78C88CB88E1E74FEA172808EB8805D4
:103140006F00B7FBF2F909F1050296B2C5E700BFBF
:103150000038024000127A000024F400CDCCCCCC20
:10316000838B39B923F480610A044FEA124CA0F82A
:103170001CC070479BB243F480618183704700BFDD
:10318000838B30B423F47B6424F00F054FEA054CA5
:103190004FEA1C43022283830284B0F81CC04D888E
:1031A0000A888C8889891FFA8CF31D4345F4006CCA
:1031B00022F400724CEA040495B22143002D8BB234
:1031C00014BF4FF0000C4FF4807C43EA0C02828362
:1031D00030BC704783881FFA83FC1AB92CEA0101BE
:1031E0008180704741EA0C0282807047002100F024
:1031F00004B80C4B5B58435004310B480B4B42183E
:103200009A42FFF4F6AF0A4A00F003B8002342F8EE
:10321000043B084B9A42FFF4F9AFFFF749F9FDF779
:103220004DFC7047A039000800000020200200205B
:103230002002002020570020FFF7FEBFF0B48407D3
:1032400043D0541E002A3ED0CDB2034603E0621E96
:10325000002C38D0144603F8015B9A07F7D1032CF1
:103260002AD9CDB245EA05250F2C45EA054515D9E1
:10327000A4F110073F0903F1100606EB07161A46E2
:10328000156055609560D5601032B242F8D104F0F7
:103290000F040137032C03EB07130DD91E462246FA
:1032A000043A032A46F8045BFAD8221F22F00302EC
:1032B0000432134404F003042CB1C9B21C4403F8D3
:1032C000011BA342FBD1F0BC704714460346C6E77E
:1032D000000800040080008000A0B9B200C04ECAFF
:1032E000B9D2D6D900E071E54EEAB4EEB9F26BF688
:1032F000D6F906FD0000CC027005EF074D0A8D0CD3
:10330000B30EC110B8129A146A162818D519741B76
:10331000051D881E00206B21CC2223247025B32696
:10332000EF2722294D2A712B8D2CA32DB32EBD2FD3
:10333000C130BF31B832AB339A3484356A364B373B
:1033400028380039D539A73A743B3E3C053DC83D85
:10335000883E453F0040B7406B411D42CC42794317
:103360002344CA4470451346B3465247EF47894841
:103370002249B8494D4AE04A714B004C8D4C194DD9
:10338000A34D2C4EB34E394FBD4F3F50C15040510D
:10339000BF513C52B8523253AB5323549A54105538
:1033A0008455F7556A56DB564B57BA5728589458E8
:1033B00000596B59D5593E5AA75A0E5B745BDA5BBC
:1033C0003E5CA25C055D675DC85D295E885EE75E68
:1033D000455FA35F00605B60B76011616B61C461B2
:1033E0001D627562CC6223637963CE632364776464
:1033F000CA641D657065C16513666366B36603675D
:103400005267A167EF673C688968D66822696D6971
:10341000B869036A4D6A966AE06A286B716BB86B8B
:10342000006C476C8D6CD46C196D5F6DA36DE86D8D
:103430002C6E706EB36EF66E396F7B6FBD6FFE6F64
:103440003F708070C170017140718071BF71FD71FA
:103450003C727A72B872F57232736F73AB73E77342
:1034600023745F749A74D57410754A758475BE752B
:10347000F77531766A76A276DB7613774B778277AB
:10348000BA77F17728785E789478CB7800793679B6
:103490006B79A079D5790A7A3E7A737AA77ADA7A43
:1034A0000E7B417B747BA77BDA7B0C7C3E7C707C43
:1034B000A27CD37C057D367D677D987DC87DF87DB7
:1034C000297E597E887EB87EE77E167F457F747F91
:1034D000A37FD17FD17F0000ECFF2800C9FF40000F
:1034E000FF004000C9FF2800EBFFCDFF7B00FF007D
:1034F0007B00CDFFEBFF0000BAFF1900B400FF0016
:10350000B4001900BAFF0000DDFF5500CD00FF0038
:10351000CD005500DDFF00000000000000000000AD
:1035200000000000D8340008E83400080000000063
:10353000F834000800000000083500080000000012
:1035400000000000000000005C35000800000000E2
:1035500000000000000000006C3500082D00950000
:10356000E300FF00E30095002D0000000000620072
:10357000B400EC00FF00EC00B400620000000000AA
:10358000963007772C610EEEBA51099919C46D0770
:103590008FF46A7035A563E9A395649E3288DB0ECB
:1035A000A4B8DC791EE9D5E088D9D2972B4CB609AE
:1035B000BD7CB17E072DB8E7911DBF906410B71D8B
:1035C000F220B06A4871B9F3DE41BE847DD4DA1AC4
:1035D000EBE4DD6D51B5D4F4C785D38356986C13F5
:1035E000C0A86B647AF962FDECC9658A4F5C01146E
:1035F000D96C0663633D0FFAF50D088DC8206E3B4C
:103600005E10694CE44160D5727167A2D1E4033C5D
:1036100047D4044BFD850DD26BB50AA5FAA8B53584
:103620006C98B242D6C9BBDB40F9BCACE36CD83273
:10363000755CDF45CF0DD6DC593DD1ABAC30D9261A
:103640003A00DE518051D7C81661D0BFB5F4B4211D
:1036500023C4B3569995BACF0FA5BDB89EB802281A
:103660000888055FB2D90CC624E90BB1877C6F2F9F
:10367000114C6858AB1D61C13D2D66B69041DC769A
:103680000671DB01BC20D2982A10D5EF8985B17173
:103690001FB5B606A5E4BF9F33D4B8E8A2C9077822
:1036A00034F9000F8EA8099618980EE1BB0D6A7FB9
:1036B0002D3D6D08976C6491015C63E6F4516B6B72
:1036C00062616C1CD83065854E0062F2ED95066C27
:1036D0007BA5011BC1F4088257C40FF5C6D9B0659C
:1036E00050E9B712EAB8BE8B7C88B9FCDF1DDD62F9
:1036F000492DDA15F37CD38C654CD4FB5861B24D5F
:10370000CE51B53A7400BCA3E230BBD441A5DF4A28
:10371000D795D83D6DC4D1A4FBF4D6D36AE96943EB
:10372000FCD96E34468867ADD0B860DA732D044496
:10373000E51D03335F4C0AAAC97C0DDD3C710550C1
:10374000AA41022710100BBE86200CC925B5685768
:10375000B3856F2009D466B99FE461CE0EF9DE5EB1
:1037600098C9D9292298D0B0B4A8D7C7173DB35962
:10377000810DB42E3B5CBDB7AD6CBAC02083B8EDF3
:10378000B6B3BF9A0CE2B6039AD2B1743947D5EA00
:10379000AF77D29D1526DB048316DC73120B63E32F
:1037A000843B64943E6A6D0DA85A6A7A0BCF0EE48E
:1037B0009DFF099327AE000AB19E077D44930FF049
:1037C000D2A3088768F2011EFEC206695D5762F740
:1037D000CB67658071366C19E7066B6E761BD4FE7D
:1037E000E02BD3895A7ADA10CC4ADD676FDFB9F95A
:1037F000F9EFBE8E43BEB717D58EB060E8A3D6D61C
:103800007E93D1A1C4C2D83852F2DF4FF167BBD149
:103810006757BCA6DD06B53F4B36B248DA2B0DD84C
:103820004C1B0AAFF64A0336607A0441C3EF60DFEF
:1038300055DF67A8EF8E6E3179BE69468CB361CBD8
:103840001A8366BCA0D26F2536E2685295770CCCFD
:1038500003470BBBB91602222F260555BE3BBAC53E
:10386000280BBDB2925AB42B046AB35CA7FFD7C22F
:1038700031CFD0B58B9ED92C1DAEDE5BB0C2649B20
:1038800026F263EC9CA36A750A936D02A906099C53
:103890003F360EEB8567077213570005824ABF95C6
:1038A000147AB8E2AE2BB17B381BB60C9B8ED29249
:1038B0000DBED5E5B7EFDC7C21DFDB0BD4D2D386A0
:1038C00042E2D4F1F8B3DD686E83DA1FCD16BE8113
:1038D0005B26B9F6E177B06F7747B718E65A0888E4
:1038E000706A0FFFCA3B06665C0B0111FF9E658F75
:1038F00069AE62F8D3FF6B6145CF6C1678E20AA01F
:10390000EED20DD75483044EC2B30339612667A7A4
:10391000F71660D04D476949DB776E3E4A6AD1AEF3
:10392000DC5AD6D9660BDF40F03BD83753AEBCA982
:10393000C59EBBDE7FCFB247E9FFB5301CF2BDBDEF
:103940008AC2BACA3093B353A6A3B4240536D0BAF8
:103950009306D7CD2957DE54BF67D9232E7A66B395
:10396000B84A61C4021B685D942B6F2A37BE0BB442
:10397000A18E0CC31BDF055A8DEF022DF8B500BFD9
:10398000F8BC08BC9E467047F8B500BFF8BC08BC40
:103990009E4670470000000000000000000000008C
:1039A000401F00000000320064009600C800FA00CA
:1039B0002C015E018F01C001F1012202520282023C
:1039C000B102E1020F033D036B039803C503F1034A
:1039D0001C04470471049B04C304EB04130539055C
:1039E0005F058405A805CB05ED050E062F064E06DE
:1039F0006C068A06A606C206DC06F5060E07250733
:103A00003B0750076407760788079807A707B5079D
:103A1000C207CE07D807E107E907F007F607FA075C
:103A2000FD07FF070008FF07FD07FA07F607F00785
:103A3000E907E107D807CE07C207B507A707980728
:103A400088077607640750073B0725070E07F5062A
:103A5000DC06C206A6068A066C064E062F060E0671
:103A6000ED05CB05A80584055F0539051305EB04B5
:103A7000C3049B04710447041C04F103C5039803A9
:103A80006B033D030F03E102B102820252022202E4
:103A9000F101C0018F015E012C01FA00C8009600FF
:103AA000640032000000CEFF9CFF6AFF38FF06FF73
:103AB000D4FEA2FE71FE40FE0FFEDEFDAEFD7EFDD9
:103AC0004FFD1FFDF1FCC3FC95FC68FC3BFC0FFCAB
:103AD000E4FBB9FB8FFB65FB3DFB15FBEDFAC7FA79
:103AE000A1FA7CFA58FA35FA13FAF2F9D1F9B2F9D7
:103AF00094F976F95AF93EF924F90BF9F2F8DBF862
:103B0000C5F8B0F89CF88AF878F868F859F84BF8D6
:103B10003EF832F828F81FF817F810F80AF806F8F7
:103B200003F801F800F801F803F806F80AF810F8AD
:103B300017F81FF828F832F83EF84BF859F868F8EB
:103B400078F88AF89CF8B0F8C5F8DBF8F2F80BF9C9
:103B500024F93EF95AF976F994F9B2F9D1F9F2F962
:103B600013FA35FA58FA7CFAA1FAC7FAEDFA15FBFE
:103B70003DFB65FB8FFBB9FBE4FB0FFC3BFC68FCEA
:103B800095FCC3FCF1FC1FFD4FFD7EFDAEFDDEFD8F
:103B90000FFE40FE71FEA2FED4FE06FF38FF6AFF54
:103BA0009CFFCEFF000000000000000001020304A3
:103BB00001020304060708090000000000000000DD
:04000005080031EDD1
:00000001FF
